{"contracts/TestContract.sol":{"TestContract":{"abi":[{"inputs":[{"internalType":"string","name":"_message","type":"string"}],"stateMutability":"nonpayable","type":"constructor"},{"inputs":[],"name":"message","outputs":[{"internalType":"string","name":"","type":"string"}],"stateMutability":"view","type":"function"},{"inputs":[{"internalType":"string","name":"_newMessage","type":"string"}],"name":"updateMessage","outputs":[],"stateMutability":"nonpayable","type":"function"}],"evm":{"bytecode":{"linkReferences":{},"object":"6080604052346101f5576105ed80380380610019816101fa565b928339810190602080828403126101f55781516001600160401b03928382116101f5570192601f908082860112156101f55784518481116101cb57601f1995610067828501881686016101fa565b928284528583830101116101f557849060005b8381106101e15750506000918301015280519384116101cb57600054926001938481811c911680156101c1575b828210146101ab57838111610165575b50809285116001146101005750839450908392916000946100f5575b50501b916000199060031b1c1916176000555b6040516103cd90816102208239f35b0151925038806100d3565b9294849081166000805284600020946000905b8883831061014b5750505010610132575b505050811b016000556100e6565b015160001960f88460031b161c19169055388080610124565b858701518855909601959485019487935090810190610113565b60008052816000208480880160051c8201928489106101a2575b0160051c019085905b8281106101965750506100b7565b60008155018590610188565b9250819261017f565b634e487b7160e01b600052602260045260246000fd5b90607f16906100a7565b634e487b7160e01b600052604160045260246000fd5b81810183015185820184015286920161007a565b600080fd5b6040519190601f01601f191682016001600160401b038111838210176101cb5760405256fe60806040818152600436101561001457600080fd5b600091823560e01c9081631923be241461014b575063e21f37ce1461003857600080fd5b346101475781600319360112610147578051825481846100578361035d565b8083529260019081811690811561012557506001146100c9575b5061008192509492940384610325565b815192839160208084528251928382860152825b8481106100b357505050828201840152601f01601f19168101030190f35b8181018301518882018801528795508201610095565b8680528691507f290decd9548b62a8d60345a988386fc84ba6bc95484008f6362f93160ef3e5635b84831061010a5750610081935050810160200138610071565b819350908160209254838589010152019101909184926100f1565b90506020925061008194915060ff191682840152151560051b82010138610071565b5080fd5b8334610322576020806003193601126101475760043567ffffffffffffffff9182821161031e573660238301121561031e57816004013583811161030a57601f199261019e601f83018516840188610325565b8187523660248383010111610306578186926024859301838a01378701015284519283116102f2576101d0845461035d565b601f8111610291575b508091601f8411600114610215575050829382939261020a575b50508160011b916000199060031b1c191617815580f35b0151905083806101f3565b8480528316947f290decd9548b62a8d60345a988386fc84ba6bc95484008f6362f93160ef3e563929185905b878210610279575050836001959610610260575b505050811b01815580f35b015160001960f88460031b161c19169055838080610255565b80600185968294968601518155019501930190610241565b8480527f290decd9548b62a8d60345a988386fc84ba6bc95484008f6362f93160ef3e563601f850160051c8101918386106102e8575b601f0160051c01905b8181106102dd57506101d9565b8581556001016102d0565b90915081906102c7565b634e487b7160e01b84526041600452602484fd5b8580fd5b634e487b7160e01b85526041600452602485fd5b8380fd5b80fd5b90601f8019910116810190811067ffffffffffffffff82111761034757604052565b634e487b7160e01b600052604160045260246000fd5b90600182811c9216801561038d575b602083101461037757565b634e487b7160e01b600052602260045260246000fd5b91607f169161036c56fea264697066735822122002cf44400cb347c3a02346faa36d965b7a130cc6f9964d736cf1172014b0814464736f6c63430008140033","opcodes":"PUSH1 0x80 PUSH1 0x40 MSTORE CALLVALUE PUSH2 0x1F5 JUMPI PUSH2 0x5ED DUP1 CODESIZE SUB DUP1 PUSH2 0x19 DUP2 PUSH2 0x1FA JUMP JUMPDEST SWAP3 DUP4 CODECOPY DUP2 ADD SWAP1 PUSH1 0x20 DUP1 DUP3 DUP5 SUB SLT PUSH2 0x1F5 JUMPI DUP2 MLOAD PUSH1 0x1 PUSH1 0x1 PUSH1 0x40 SHL SUB SWAP3 DUP4 DUP3 GT PUSH2 0x1F5 JUMPI ADD SWAP3 PUSH1 0x1F SWAP1 DUP1 DUP3 DUP7 ADD SLT ISZERO PUSH2 0x1F5 JUMPI DUP5 MLOAD DUP5 DUP2 GT PUSH2 0x1CB JUMPI PUSH1 0x1F NOT SWAP6 PUSH2 0x67 DUP3 DUP6 ADD DUP9 AND DUP7 ADD PUSH2 0x1FA JUMP JUMPDEST SWAP3 DUP3 DUP5 MSTORE DUP6 DUP4 DUP4 ADD ADD GT PUSH2 0x1F5 JUMPI DUP5 SWAP1 PUSH1 0x0 JUMPDEST DUP4 DUP2 LT PUSH2 0x1E1 JUMPI POP POP PUSH1 0x0 SWAP2 DUP4 ADD ADD MSTORE DUP1 MLOAD SWAP4 DUP5 GT PUSH2 0x1CB JUMPI PUSH1 0x0 SLOAD SWAP3 PUSH1 0x1 SWAP4 DUP5 DUP2 DUP2 SHR SWAP2 AND DUP1 ISZERO PUSH2 0x1C1 JUMPI JUMPDEST DUP3 DUP3 LT EQ PUSH2 0x1AB JUMPI DUP4 DUP2 GT PUSH2 0x165 JUMPI JUMPDEST POP DUP1 SWAP3 DUP6 GT PUSH1 0x1 EQ PUSH2 0x100 JUMPI POP DUP4 SWAP5 POP SWAP1 DUP4 SWAP3 SWAP2 PUSH1 0x0 SWAP5 PUSH2 0xF5 JUMPI JUMPDEST POP POP SHL SWAP2 PUSH1 0x0 NOT SWAP1 PUSH1 0x3 SHL SHR NOT AND OR PUSH1 0x0 SSTORE JUMPDEST PUSH1 0x40 MLOAD PUSH2 0x3CD SWAP1 DUP2 PUSH2 0x220 DUP3 CODECOPY RETURN JUMPDEST ADD MLOAD SWAP3 POP CODESIZE DUP1 PUSH2 0xD3 JUMP JUMPDEST SWAP3 SWAP5 DUP5 SWAP1 DUP2 AND PUSH1 0x0 DUP1 MSTORE DUP5 PUSH1 0x0 KECCAK256 SWAP5 PUSH1 0x0 SWAP1 JUMPDEST DUP9 DUP4 DUP4 LT PUSH2 0x14B JUMPI POP POP POP LT PUSH2 0x132 JUMPI JUMPDEST POP POP POP DUP2 SHL ADD PUSH1 0x0 SSTORE PUSH2 0xE6 JUMP JUMPDEST ADD MLOAD PUSH1 0x0 NOT PUSH1 0xF8 DUP5 PUSH1 0x3 SHL AND SHR NOT AND SWAP1 SSTORE CODESIZE DUP1 DUP1 PUSH2 0x124 JUMP JUMPDEST DUP6 DUP8 ADD MLOAD DUP9 SSTORE SWAP1 SWAP7 ADD SWAP6 SWAP5 DUP6 ADD SWAP5 DUP8 SWAP4 POP SWAP1 DUP2 ADD SWAP1 PUSH2 0x113 JUMP JUMPDEST PUSH1 0x0 DUP1 MSTORE DUP2 PUSH1 0x0 KECCAK256 DUP5 DUP1 DUP9 ADD PUSH1 0x5 SHR DUP3 ADD SWAP3 DUP5 DUP10 LT PUSH2 0x1A2 JUMPI JUMPDEST ADD PUSH1 0x5 SHR ADD SWAP1 DUP6 SWAP1 JUMPDEST DUP3 DUP2 LT PUSH2 0x196 JUMPI POP POP PUSH2 0xB7 JUMP JUMPDEST PUSH1 0x0 DUP2 SSTORE ADD DUP6 SWAP1 PUSH2 0x188 JUMP JUMPDEST SWAP3 POP DUP2 SWAP3 PUSH2 0x17F JUMP JUMPDEST PUSH4 0x4E487B71 PUSH1 0xE0 SHL PUSH1 0x0 MSTORE PUSH1 0x22 PUSH1 0x4 MSTORE PUSH1 0x24 PUSH1 0x0 REVERT JUMPDEST SWAP1 PUSH1 0x7F AND SWAP1 PUSH2 0xA7 JUMP JUMPDEST PUSH4 0x4E487B71 PUSH1 0xE0 SHL PUSH1 0x0 MSTORE PUSH1 0x41 PUSH1 0x4 MSTORE PUSH1 0x24 PUSH1 0x0 REVERT JUMPDEST DUP2 DUP2 ADD DUP4 ADD MLOAD DUP6 DUP3 ADD DUP5 ADD MSTORE DUP7 SWAP3 ADD PUSH2 0x7A JUMP JUMPDEST PUSH1 0x0 DUP1 REVERT JUMPDEST PUSH1 0x40 MLOAD SWAP2 SWAP1 PUSH1 0x1F ADD PUSH1 0x1F NOT AND DUP3 ADD PUSH1 0x1 PUSH1 0x1 PUSH1 0x40 SHL SUB DUP2 GT DUP4 DUP3 LT OR PUSH2 0x1CB JUMPI PUSH1 0x40 MSTORE JUMP INVALID PUSH1 0x80 PUSH1 0x40 DUP2 DUP2 MSTORE PUSH1 0x4 CALLDATASIZE LT ISZERO PUSH2 0x14 JUMPI PUSH1 0x0 DUP1 REVERT JUMPDEST PUSH1 0x0 SWAP2 DUP3 CALLDATALOAD PUSH1 0xE0 SHR SWAP1 DUP2 PUSH4 0x1923BE24 EQ PUSH2 0x14B JUMPI POP PUSH4 0xE21F37CE EQ PUSH2 0x38 JUMPI PUSH1 0x0 DUP1 REVERT JUMPDEST CALLVALUE PUSH2 0x147 JUMPI DUP2 PUSH1 0x3 NOT CALLDATASIZE ADD SLT PUSH2 0x147 JUMPI DUP1 MLOAD DUP3 SLOAD DUP2 DUP5 PUSH2 0x57 DUP4 PUSH2 0x35D JUMP JUMPDEST DUP1 DUP4 MSTORE SWAP3 PUSH1 0x1 SWAP1 DUP2 DUP2 AND SWAP1 DUP2 ISZERO PUSH2 0x125 JUMPI POP PUSH1 0x1 EQ PUSH2 0xC9 JUMPI JUMPDEST POP PUSH2 0x81 SWAP3 POP SWAP5 SWAP3 SWAP5 SUB DUP5 PUSH2 0x325 JUMP JUMPDEST DUP2 MLOAD SWAP3 DUP4 SWAP2 PUSH1 0x20 DUP1 DUP5 MSTORE DUP3 MLOAD SWAP3 DUP4 DUP3 DUP7 ADD MSTORE DUP3 JUMPDEST DUP5 DUP2 LT PUSH2 0xB3 JUMPI POP POP POP DUP3 DUP3 ADD DUP5 ADD MSTORE PUSH1 0x1F ADD PUSH1 0x1F NOT AND DUP2 ADD SUB ADD SWAP1 RETURN JUMPDEST DUP2 DUP2 ADD DUP4 ADD MLOAD DUP9 DUP3 ADD DUP9 ADD MSTORE DUP8 SWAP6 POP DUP3 ADD PUSH2 0x95 JUMP JUMPDEST DUP7 DUP1 MSTORE DUP7 SWAP2 POP PUSH32 0x290DECD9548B62A8D60345A988386FC84BA6BC95484008F6362F93160EF3E563 JUMPDEST DUP5 DUP4 LT PUSH2 0x10A JUMPI POP PUSH2 0x81 SWAP4 POP POP DUP2 ADD PUSH1 0x20 ADD CODESIZE PUSH2 0x71 JUMP JUMPDEST DUP2 SWAP4 POP SWAP1 DUP2 PUSH1 0x20 SWAP3 SLOAD DUP4 DUP6 DUP10 ADD ADD MSTORE ADD SWAP2 ADD SWAP1 SWAP2 DUP5 SWAP3 PUSH2 0xF1 JUMP JUMPDEST SWAP1 POP PUSH1 0x20 SWAP3 POP PUSH2 0x81 SWAP5 SWAP2 POP PUSH1 0xFF NOT AND DUP3 DUP5 ADD MSTORE ISZERO ISZERO PUSH1 0x5 SHL DUP3 ADD ADD CODESIZE PUSH2 0x71 JUMP JUMPDEST POP DUP1 REVERT JUMPDEST DUP4 CALLVALUE PUSH2 0x322 JUMPI PUSH1 0x20 DUP1 PUSH1 0x3 NOT CALLDATASIZE ADD SLT PUSH2 0x147 JUMPI PUSH1 0x4 CALLDATALOAD PUSH8 0xFFFFFFFFFFFFFFFF SWAP2 DUP3 DUP3 GT PUSH2 0x31E JUMPI CALLDATASIZE PUSH1 0x23 DUP4 ADD SLT ISZERO PUSH2 0x31E JUMPI DUP2 PUSH1 0x4 ADD CALLDATALOAD DUP4 DUP2 GT PUSH2 0x30A JUMPI PUSH1 0x1F NOT SWAP3 PUSH2 0x19E PUSH1 0x1F DUP4 ADD DUP6 AND DUP5 ADD DUP9 PUSH2 0x325 JUMP JUMPDEST DUP2 DUP8 MSTORE CALLDATASIZE PUSH1 0x24 DUP4 DUP4 ADD ADD GT PUSH2 0x306 JUMPI DUP2 DUP7 SWAP3 PUSH1 0x24 DUP6 SWAP4 ADD DUP4 DUP11 ADD CALLDATACOPY DUP8 ADD ADD MSTORE DUP5 MLOAD SWAP3 DUP4 GT PUSH2 0x2F2 JUMPI PUSH2 0x1D0 DUP5 SLOAD PUSH2 0x35D JUMP JUMPDEST PUSH1 0x1F DUP2 GT PUSH2 0x291 JUMPI JUMPDEST POP DUP1 SWAP2 PUSH1 0x1F DUP5 GT PUSH1 0x1 EQ PUSH2 0x215 JUMPI POP POP DUP3 SWAP4 DUP3 SWAP4 SWAP3 PUSH2 0x20A JUMPI JUMPDEST POP POP DUP2 PUSH1 0x1 SHL SWAP2 PUSH1 0x0 NOT SWAP1 PUSH1 0x3 SHL SHR NOT AND OR DUP2 SSTORE DUP1 RETURN JUMPDEST ADD MLOAD SWAP1 POP DUP4 DUP1 PUSH2 0x1F3 JUMP JUMPDEST DUP5 DUP1 MSTORE DUP4 AND SWAP5 PUSH32 0x290DECD9548B62A8D60345A988386FC84BA6BC95484008F6362F93160EF3E563 SWAP3 SWAP2 DUP6 SWAP1 JUMPDEST DUP8 DUP3 LT PUSH2 0x279 JUMPI POP POP DUP4 PUSH1 0x1 SWAP6 SWAP7 LT PUSH2 0x260 JUMPI JUMPDEST POP POP POP DUP2 SHL ADD DUP2 SSTORE DUP1 RETURN JUMPDEST ADD MLOAD PUSH1 0x0 NOT PUSH1 0xF8 DUP5 PUSH1 0x3 SHL AND SHR NOT AND SWAP1 SSTORE DUP4 DUP1 DUP1 PUSH2 0x255 JUMP JUMPDEST DUP1 PUSH1 0x1 DUP6 SWAP7 DUP3 SWAP5 SWAP7 DUP7 ADD MLOAD DUP2 SSTORE ADD SWAP6 ADD SWAP4 ADD SWAP1 PUSH2 0x241 JUMP JUMPDEST DUP5 DUP1 MSTORE PUSH32 0x290DECD9548B62A8D60345A988386FC84BA6BC95484008F6362F93160EF3E563 PUSH1 0x1F DUP6 ADD PUSH1 0x5 SHR DUP2 ADD SWAP2 DUP4 DUP7 LT PUSH2 0x2E8 JUMPI JUMPDEST PUSH1 0x1F ADD PUSH1 0x5 SHR ADD SWAP1 JUMPDEST DUP2 DUP2 LT PUSH2 0x2DD JUMPI POP PUSH2 0x1D9 JUMP JUMPDEST DUP6 DUP2 SSTORE PUSH1 0x1 ADD PUSH2 0x2D0 JUMP JUMPDEST SWAP1 SWAP2 POP DUP2 SWAP1 PUSH2 0x2C7 JUMP JUMPDEST PUSH4 0x4E487B71 PUSH1 0xE0 SHL DUP5 MSTORE PUSH1 0x41 PUSH1 0x4 MSTORE PUSH1 0x24 DUP5 REVERT JUMPDEST DUP6 DUP1 REVERT JUMPDEST PUSH4 0x4E487B71 PUSH1 0xE0 SHL DUP6 MSTORE PUSH1 0x41 PUSH1 0x4 MSTORE PUSH1 0x24 DUP6 REVERT JUMPDEST DUP4 DUP1 REVERT JUMPDEST DUP1 REVERT JUMPDEST SWAP1 PUSH1 0x1F DUP1 NOT SWAP2 ADD AND DUP2 ADD SWAP1 DUP2 LT PUSH8 0xFFFFFFFFFFFFFFFF DUP3 GT OR PUSH2 0x347 JUMPI PUSH1 0x40 MSTORE JUMP JUMPDEST PUSH4 0x4E487B71 PUSH1 0xE0 SHL PUSH1 0x0 MSTORE PUSH1 0x41 PUSH1 0x4 MSTORE PUSH1 0x24 PUSH1 0x0 REVERT JUMPDEST SWAP1 PUSH1 0x1 DUP3 DUP2 SHR SWAP3 AND DUP1 ISZERO PUSH2 0x38D JUMPI JUMPDEST PUSH1 0x20 DUP4 LT EQ PUSH2 0x377 JUMPI JUMP JUMPDEST PUSH4 0x4E487B71 PUSH1 0xE0 SHL PUSH1 0x0 MSTORE PUSH1 0x22 PUSH1 0x4 MSTORE PUSH1 0x24 PUSH1 0x0 REVERT JUMPDEST SWAP2 PUSH1 0x7F AND SWAP2 PUSH2 0x36C JUMP INVALID LOG2 PUSH5 0x6970667358 0x22 SLT KECCAK256 MUL 0xCF PREVRANDAO BLOCKHASH 0xC 0xB3 SELFBALANCE 0xC3 LOG0 0x23 CHAINID STATICCALL LOG3 PUSH14 0x965B7A130CC6F9964D736CF11720 EQ 0xB0 DUP2 PREVRANDAO PUSH5 0x736F6C6343 STOP ADDMOD EQ STOP CALLER "},"methodIdentifiers":{"message()":"e21f37ce","updateMessage(string)":"1923be24"}}}}}