{"contracts/GoalNFT.sol":{"GoalNFT":{"abi":[{"inputs":[{"internalType":"string","name":"_baseImageURI","type":"string"}],"stateMutability":"nonpayable","type":"constructor"},{"anonymous":false,"inputs":[{"indexed":true,"internalType":"address","name":"owner","type":"address"},{"indexed":true,"internalType":"address","name":"approved","type":"address"},{"indexed":true,"internalType":"uint256","name":"tokenId","type":"uint256"}],"name":"Approval","type":"event"},{"anonymous":false,"inputs":[{"indexed":true,"internalType":"address","name":"owner","type":"address"},{"indexed":true,"internalType":"address","name":"operator","type":"address"},{"indexed":false,"internalType":"bool","name":"approved","type":"bool"}],"name":"ApprovalForAll","type":"event"},{"anonymous":false,"inputs":[{"indexed":false,"internalType":"string","name":"newBaseImageURI","type":"string"}],"name":"BaseImageURIUpdated","type":"event"},{"anonymous":false,"inputs":[{"indexed":true,"internalType":"address","name":"newGoalTracker","type":"address"}],"name":"GoalTrackerUpdated","type":"event"},{"anonymous":false,"inputs":[{"indexed":true,"internalType":"address","name":"previousOwner","type":"address"},{"indexed":true,"internalType":"address","name":"newOwner","type":"address"}],"name":"OwnershipTransferred","type":"event"},{"anonymous":false,"inputs":[{"indexed":true,"internalType":"address","name":"recipient","type":"address"},{"indexed":true,"internalType":"uint256","name":"tokenId","type":"uint256"},{"indexed":true,"internalType":"uint256","name":"goalId","type":"uint256"}],"name":"RewardMinted","type":"event"},{"anonymous":false,"inputs":[{"indexed":true,"internalType":"address","name":"from","type":"address"},{"indexed":true,"internalType":"address","name":"to","type":"address"},{"indexed":true,"internalType":"uint256","name":"tokenId","type":"uint256"}],"name":"Transfer","type":"event"},{"inputs":[{"internalType":"address","name":"to","type":"address"},{"internalType":"uint256","name":"tokenId","type":"uint256"}],"name":"approve","outputs":[],"stateMutability":"nonpayable","type":"function"},{"inputs":[{"internalType":"address","name":"owner","type":"address"}],"name":"balanceOf","outputs":[{"internalType":"uint256","name":"","type":"uint256"}],"stateMutability":"view","type":"function"},{"inputs":[],"name":"baseImageURI","outputs":[{"internalType":"string","name":"","type":"string"}],"stateMutability":"view","type":"function"},{"inputs":[{"internalType":"uint256","name":"tokenId","type":"uint256"}],"name":"getApproved","outputs":[{"internalType":"address","name":"","type":"address"}],"stateMutability":"view","type":"function"},{"inputs":[{"internalType":"address","name":"_owner","type":"address"}],"name":"getTokensByOwner","outputs":[{"internalType":"uint256[]","name":"","type":"uint256[]"}],"stateMutability":"view","type":"function"},{"inputs":[],"name":"goalTracker","outputs":[{"internalType":"address","name":"","type":"address"}],"stateMutability":"view","type":"function"},{"inputs":[{"internalType":"address","name":"owner","type":"address"},{"internalType":"address","name":"operator","type":"address"}],"name":"isApprovedForAll","outputs":[{"internalType":"bool","name":"","type":"bool"}],"stateMutability":"view","type":"function"},{"inputs":[{"internalType":"address","name":"_recipient","type":"address"},{"internalType":"uint256","name":"_goalId","type":"uint256"},{"internalType":"string","name":"_goalTitle","type":"string"}],"name":"mintReward","outputs":[{"internalType":"uint256","name":"","type":"uint256"}],"stateMutability":"nonpayable","type":"function"},{"inputs":[],"name":"name","outputs":[{"internalType":"string","name":"","type":"string"}],"stateMutability":"view","type":"function"},{"inputs":[],"name":"owner","outputs":[{"internalType":"address","name":"","type":"address"}],"stateMutability":"view","type":"function"},{"inputs":[{"internalType":"uint256","name":"tokenId","type":"uint256"}],"name":"ownerOf","outputs":[{"internalType":"address","name":"","type":"address"}],"stateMutability":"view","type":"function"},{"inputs":[],"name":"renounceOwnership","outputs":[],"stateMutability":"nonpayable","type":"function"},{"inputs":[{"internalType":"address","name":"from","type":"address"},{"internalType":"address","name":"to","type":"address"},{"internalType":"uint256","name":"tokenId","type":"uint256"}],"name":"safeTransferFrom","outputs":[],"stateMutability":"nonpayable","type":"function"},{"inputs":[{"internalType":"address","name":"from","type":"address"},{"internalType":"address","name":"to","type":"address"},{"internalType":"uint256","name":"tokenId","type":"uint256"},{"internalType":"bytes","name":"data","type":"bytes"}],"name":"safeTransferFrom","outputs":[],"stateMutability":"nonpayable","type":"function"},{"inputs":[{"internalType":"address","name":"operator","type":"address"},{"internalType":"bool","name":"approved","type":"bool"}],"name":"setApprovalForAll","outputs":[],"stateMutability":"nonpayable","type":"function"},{"inputs":[{"internalType":"string","name":"_baseImageURI","type":"string"}],"name":"setBaseImageURI","outputs":[],"stateMutability":"nonpayable","type":"function"},{"inputs":[{"internalType":"address","name":"_goalTracker","type":"address"}],"name":"setGoalTracker","outputs":[],"stateMutability":"nonpayable","type":"function"},{"inputs":[{"internalType":"bytes4","name":"interfaceId","type":"bytes4"}],"name":"supportsInterface","outputs":[{"internalType":"bool","name":"","type":"bool"}],"stateMutability":"view","type":"function"},{"inputs":[],"name":"symbol","outputs":[{"internalType":"string","name":"","type":"string"}],"stateMutability":"view","type":"function"},{"inputs":[{"internalType":"uint256","name":"index","type":"uint256"}],"name":"tokenByIndex","outputs":[{"internalType":"uint256","name":"","type":"uint256"}],"stateMutability":"view","type":"function"},{"inputs":[{"internalType":"address","name":"owner","type":"address"},{"internalType":"uint256","name":"index","type":"uint256"}],"name":"tokenOfOwnerByIndex","outputs":[{"internalType":"uint256","name":"","type":"uint256"}],"stateMutability":"view","type":"function"},{"inputs":[{"internalType":"uint256","name":"","type":"uint256"}],"name":"tokenToGoalId","outputs":[{"internalType":"uint256","name":"","type":"uint256"}],"stateMutability":"view","type":"function"},{"inputs":[{"internalType":"uint256","name":"tokenId","type":"uint256"}],"name":"tokenURI","outputs":[{"internalType":"string","name":"","type":"string"}],"stateMutability":"view","type":"function"},{"inputs":[],"name":"totalSupply","outputs":[{"internalType":"uint256","name":"","type":"uint256"}],"stateMutability":"view","type":"function"},{"inputs":[{"internalType":"address","name":"from","type":"address"},{"internalType":"address","name":"to","type":"address"},{"internalType":"uint256","name":"tokenId","type":"uint256"}],"name":"transferFrom","outputs":[],"stateMutability":"nonpayable","type":"function"},{"inputs":[{"internalType":"address","name":"newOwner","type":"address"}],"name":"transferOwnership","outputs":[],"stateMutability":"nonpayable","type":"function"}],"evm":{"bytecode":{"linkReferences":{},"object":"608060405234620005c15762002936803803806200001d81620005fc565b92833981016020918281830312620005c15780516001600160401b0391828211620005c1570190601f838184011215620005c157825192828411620005c657601f19936200007183820186168801620005fc565b95818752878284010111620005c157869160005b828110620005ad5750509060009186010152620000a1620005dc565b90601982527f426173655361766520476f616c20416368696576656d656e740000000000000086830152620000d5620005dc565b946004958681526311d3d05360e21b888201528351858111620004af57600054946001958681811c91168015620005a2575b8b8210146200058d5790818684931162000537575b508a90868311600114620004d057600092620004c4575b5050600019600383901b1c191690851b176000555b805190858211620004af5784548581811c91168015620004a4575b8a8210146200048f5790818584931162000439575b508990858311600114620003d557600092620003c9575b5050600019600383901b1c191690841b1783555b620001ae3362000622565b8051938411620003b457600d548381811c91168015620003a9575b88821014620003945782811162000348575b5086918411600114620002e05783945090839291600094620002d4575b50501b916000199060031b1c191617600d555b600a54336001600160a01b0390911603620002935733156200024257620002323362000622565b6040516122ca90816200066c8239f35b6084916040519162461bcd60e51b8352820152602660248201527f4f776e61626c653a206e6577206f776e657220697320746865207a65726f206160448201526564647265737360d01b6064820152fd5b816064926040519262461bcd60e51b845283015260248201527f4f776e61626c653a2063616c6c6572206973206e6f7420746865206f776e65726044820152fd5b015192503880620001f8565b9193831691600d60005283876000209360005b898883831062000330575050501062000316575b505050811b01600d556200020b565b015160001960f88460031b161c1916905538808062000307565b868601518855909601959485019487935001620002f3565b600d600052876000208380870160051c8201928a88106200038a575b0160051c019084905b8281106200037d575050620001db565b600081550184906200036d565b9250819262000364565b602287634e487b7160e01b6000525260246000fd5b90607f1690620001c9565b604186634e487b7160e01b6000525260246000fd5b0151905038806200018f565b908887941691846000528b6000209260005b8d82821062000422575050841162000408575b505050811b018355620001a3565b015160001960f88460031b161c19169055388080620003fa565b8385015186558a97909501949384019301620003e7565b90915085600052896000208580850160051c8201928c861062000485575b918891869594930160051c01915b8281106200047557505062000178565b6000815585945088910162000465565b9250819262000457565b602289634e487b7160e01b6000525260246000fd5b90607f169062000163565b604188634e487b7160e01b6000525260246000fd5b01519050388062000133565b908988941691600080528c600020928d6000905b8282106200051f575050841162000505575b505050811b0160005562000148565b015160001960f88460031b161c19169055388080620004f6565b8385015186558b979095019493840193018e620004e4565b909150600080528a6000208680850160051c8201928d861062000583575b918991869594930160051c01915b828110620005735750506200011c565b6000815585945089910162000563565b9250819262000555565b60228a634e487b7160e01b6000525260246000fd5b90607f169062000107565b818101840151888201850152830162000085565b600080fd5b634e487b7160e01b600052604160045260246000fd5b60408051919082016001600160401b03811183821017620005c657604052565b6040519190601f01601f191682016001600160401b03811183821017620005c657604052565b600a80546001600160a01b039283166001600160a01b0319821681179092559091167f8be0079c531659141344cd1fd0a4f28419497f9722a3daafe3b4186f6b6457e0600080a356fe608080604052600436101561001357600080fd5b60003560e01c90816301ffc9a7146115755750806306fdde03146114d2578063081812fc146114b4578063095ea7b31461133a57806318160ddd1461131c57806323b872dd146112f85780632f745c59146112d1578063345ff8ec146112a557806336e3ef30146111ec57806340398d67146110f357806342842e0e146110c05780634f6ccce71461102f5780636352211e14610fff57806370a0823114610fd4578063715018a614610f7757806374f82e3014610ee35780638647ca7614610d34578063891197a8146106415780638da5cb5b1461061857806395d89b4114610539578063a22cb46514610467578063b88d4fde146103df578063c87b56dd1461028a578063d28fb95014610261578063e985e9c51461020b5763f2fde38b1461013d57600080fd5b3461020657602036600319011261020657610156611642565b61015e61178c565b6001600160a01b039081169081156101b257600a54826bffffffffffffffffffffffff60a01b821617600a55167f8be0079c531659141344cd1fd0a4f28419497f9722a3daafe3b4186f6b6457e0600080a3005b60405162461bcd60e51b815260206004820152602660248201527f4f776e61626c653a206e6577206f776e657220697320746865207a65726f206160448201526564647265737360d01b6064820152608490fd5b600080fd5b3461020657604036600319011261020657610224611642565b61022c611658565b9060018060a01b03809116600052600560205260406000209116600052602052602060ff604060002054166040519015158152f35b3461020657600036600319011261020657600c546040516001600160a01b039091168152602090f35b3461020657602080600319360112610206576004356000818152600260205260409020546001600160a01b03161561038057600052600f81526040600020906040519182600082546102db816116a3565b9384845260019186838216918260001461035e57505060011461031f575b5050610307925003836116f9565b61031b60405192828493845283019061161d565b0390f35b85925060005281600020906000915b858310610346575050610307935082010185806102f9565b8054838901850152879450869390920191810161032e565b925093505061030794915060ff191682840152151560051b82010185806102f9565b60405162461bcd60e51b815260048101839052603160248201527f45524337323155524953746f726167653a2055524920717565727920666f72206044820152703737b732bc34b9ba32b73a103a37b5b2b760791b6064820152608490fd5b34610206576080366003190112610206576103f8611642565b610400611658565b906064359060443567ffffffffffffffff83116102065736602384011215610206576104659361043d610460943690602481600401359101611737565b9261045061044b84336119e1565b611908565b61045b838383611aa9565b611df8565b6119bd565b005b3461020657604036600319011261020657610480611642565b60243590811515809203610206576001600160a01b0316903382146104f457336000526005602052604060002082600052602052604060002060ff1981541660ff83161790556040519081527f17307eab39ab6107e8899845ad3d59bd9653f200f220920489ca2b5937696c3160203392a3005b60405162461bcd60e51b815260206004820152601960248201527f4552433732313a20617070726f766520746f2063616c6c6572000000000000006044820152606490fd5b34610206576000366003190112610206576040516000600180549061055d826116a3565b808552918181169081156105f15750600114610598575b61031b84610584818603826116f9565b60405191829160208352602083019061161d565b600081815292507fb10e2d527612073b26eecdfd717e6a320cf44b4afac2b0732d9fcbe2b7fa0cf65b8284106105d957505050810160200161058482610574565b805460208587018101919091529093019281016105c1565b60ff191660208087019190915292151560051b850190920192506105849150839050610574565b3461020657600036600319011261020657600a546040516001600160a01b039091168152602090f35b346102065760603660031901126102065761065a611642565b60443567ffffffffffffffff81116102065761067a90369060040161176e565b600c546001600160a01b03919082163303610ce55781831615610ca15760019283600b54019182600b556040516106b0816116dd565b6000808252848152600260205260409020546106d8906001600160a01b031615155b15611f44565b60085484600052600960205280604060002055600160401b811015610c13576107e49161072a86610711848b6104609601600855611f0d565b90919082549060031b91821b91600019901b1916179055565b610733856117e4565b8786166000526006602052604060002081600052602052866040600020558660005260076020526040600020556107826106d287600052600260205260018060a01b0360406000205416151590565b848716600081815260036020908152604080832080548d0190558983526002909152812080546001600160a01b031916831790558791907fddf252ad1be2c89b69c2b068fc378daa952ba7f163c4a11628f55a4df523b3ef8180a48585611cda565b82600052600e6020526024356040600020556107ff83612119565b9061080b602435612119565b61081442612119565b9160405193607b60f81b60208601527f226e616d65223a2022476f616c20416368696576656d656e743a200000000000602186015261085d825180936020603c890191016115fa565b61088b60f21b858301603c8101919091527f226465736372697074696f6e223a202254686973204e46542072657072657365603e8201527f6e747320746865207375636365737366756c20636f6d706c6574696f6e206f66605e8201527f206120736176696e677320676f616c206f6e2042617365536176652e222c0000607e820152691134b6b0b3b2911d101160b11b609c90910152600d54600092610903826116a3565b918b8116908115610c7a5750600114610c29575b5050938093610a6f9360208461093889609d97610a749b51948592016115fa565b650b9c1b99c88b60d21b91019081526e2261747472696275746573223a205b60881b60068201527f7b2274726169745f74797065223a2022476f616c204944222c202276616c7565601582015263111d101160e11b60358201528151916109a890839060398401906020016115fa565b019062089f4b60ea1b918260398201527f7b2274726169745f74797065223a2022416368696576656d656e742044617465603c8201526c111610113b30b63ab2911d101160991b605c820152610a088251809360206069850191016115fa565b019060698201527f7b2274726169745f74797065223a2022506c6174666f726d222c202276616c75606c8201526e65223a20224261736553617665227d60881b608c820152605d60f81b609b820152607d60f81b609c82015203607d8101845201826116f9565b611fc2565b93610ac8603d60405180977f646174613a6170706c69636174696f6e2f6a736f6e3b6261736536342c0000006020830152610ab881518092602086860191016115fa565b810103601d8101885201866116f9565b82600052600f602052604060002090855167ffffffffffffffff8111610c1357610af283546116a3565b601f8111610bcc575b506020968790601f8311600114610b6a57928293918392600094610b5f575b50501b916000199060031b1c19161790555b816040519360243592167f3ab3e8ad6923a956799ae3fe031dfa1cb6a25c9743413b0c4ca812a87b02202a600080a48152f35b015192508980610b1a565b90601f1983169185600052838a6000209360005b87828210610bb457505010610b9b575b505050811b019055610b2c565b015160001960f88460031b161c19169055878080610b8e565b84860151875590950194938c01938692508c01610b7e565b836000526020600020601f830160051c81019160208410610c09575b601f0160051c01905b818110610bfe5750610afb565b600081558301610bf1565b9091508190610be8565b634e487b7160e01b600052604160045260246000fd5b90919250600d6000526000805160206122758339815191528a6000915b848310610c605750505085010160a6019083610a6f610917565b90816020925460a685878d01010152019101908b90610c46565b60ff191691880160a681810193909352831515909302909201019250849050610a6f610917565b606460405162461bcd60e51b815260206004820152602060248201527f526563697069656e742063616e6e6f74206265207a65726f20616464726573736044820152fd5b60405162461bcd60e51b815260206004820152602160248201527f4f6e6c7920476f616c547261636b65722063616e206d696e74207265776172646044820152607360f81b6064820152608490fd5b34610206576020806003193601126102065767ffffffffffffffff9060043582811161020657610d6890369060040161176e565b90610d7161178c565b8151928311610c1357610d85600d546116a3565b601f8111610e91575b508092601f8111600114610e0057807f31cd199f0d1c8c972ab9eab5e47d990d12e7c8e45f636403cdf29e71cddb2bf894600091610df5575b508160011b916000199060031b1c191617600d555b610df060405192828493845283019061161d565b0390a1005b905083015185610dc7565b601f19811693600d6000526000805160206122758339815191529460005b818110610e7a57509482916001937f31cd199f0d1c8c972ab9eab5e47d990d12e7c8e45f636403cdf29e71cddb2bf89710610e61575b5050811b01600d55610ddc565b85015160001960f88460031b161c191690558580610e54565b858301518755600190960195918401918401610e1e565b600d600052600080516020612275833981519152601f850160051c810191838610610ed9575b601f0160051c01905b818110610ecd5750610d8e565b60008155600101610ec0565b9091508190610eb7565b34610206576000366003190112610206576040516000600d54610f05816116a3565b808452906001908181169081156105f15750600114610f2e5761031b84610584818603826116f9565b600d600090815292506000805160206122758339815191525b828410610f5f57505050810160200161058482610574565b80546020858701810191909152909301928101610f47565b3461020657600036600319011261020657610f9061178c565b600a80546001600160a01b031981169091556000906001600160a01b03167f8be0079c531659141344cd1fd0a4f28419497f9722a3daafe3b4186f6b6457e08280a3005b34610206576020366003190112610206576020610ff7610ff2611642565b6117e4565b604051908152f35b3461020657602036600319011261020657602061101d6004356118a7565b6040516001600160a01b039091168152f35b346102065760203660031901126102065760043560085481101561106657611058602091611f0d565b90546040519160031b1c8152f35b60405162461bcd60e51b815260206004820152602c60248201527f455243373231456e756d657261626c653a20676c6f62616c20696e646578206f60448201526b7574206f6620626f756e647360a01b6064820152608490fd5b34610206576104656104606110d43661166e565b90604051926110e2846116dd565b6000845261045061044b84336119e1565b34610206576020806003193601126102065761110d611642565b611116816117e4565b61111f8161225c565b9061112d60405192836116f9565b8082526111398161225c565b8285019390601f190136853760005b8281106111935750505090604051928392818401908285525180915260408401929160005b82811061117c57505050500390f35b83518552869550938101939281019260010161116d565b61119d8183611e7f565b84518210156111d657868260051b8601015260001981146111c057600101611148565b634e487b7160e01b600052601160045260246000fd5b634e487b7160e01b600052603260045260246000fd5b3461020657602036600319011261020657611205611642565b61120d61178c565b6001600160a01b0316801561125557600c80546001600160a01b031916821790557fe671735e9a8814f4b1d2b3b0cacc4ee2e1fbb075a76588fc28b7221bd3d76fd4600080a2005b60405162461bcd60e51b815260206004820152602260248201527f476f616c547261636b65722063616e6e6f74206265207a65726f206164647265604482015261737360f01b6064820152608490fd5b3461020657602036600319011261020657600435600052600e6020526020604060002054604051908152f35b34610206576040366003190112610206576020610ff76112ef611642565b60243590611e7f565b34610206576104656113093661166e565b9161131761044b84336119e1565b611aa9565b34610206576000366003190112610206576020600854604051908152f35b3461020657604036600319011261020657611353611642565b602435906001600160a01b03808061136a856118a7565b1692169180831461146557803314908115611440575b50156113d557600083815260046020526040902080546001600160a01b031916831790556113ad836118a7565b167f8c5be1e5ebec7d5bd14f71427d1e84f3dd0314c0f7b2291e5b200ac8c7c3b925600080a4005b60405162461bcd60e51b815260206004820152603d60248201527f4552433732313a20617070726f76652063616c6c6572206973206e6f7420746f60448201527f6b656e206f776e6572206f7220617070726f76656420666f7220616c6c0000006064820152608490fd5b9050600052600560205260406000203360005260205260ff6040600020541684611380565b60405162461bcd60e51b815260206004820152602160248201527f4552433732313a20617070726f76616c20746f2063757272656e74206f776e656044820152603960f91b6064820152608490fd5b3461020657602036600319011261020657602061101d6004356118ca565b3461020657600036600319011261020657604051600080546114f3816116a3565b808452906001908181169081156105f1575060011461151c5761031b84610584818603826116f9565b600080805292507f290decd9548b62a8d60345a988386fc84ba6bc95484008f6362f93160ef3e5635b82841061155d57505050810160200161058482610574565b80546020858701810191909152909301928101611545565b34610206576020366003190112610206576004359063ffffffff60e01b82168092036102065760209163780e9d6360e01b81149081156115b7575b5015158152f35b6380ac58cd60e01b8114915081156115e9575b81156115d8575b50836115b0565b6301ffc9a760e01b149050836115d1565b635b5e139f60e01b811491506115ca565b60005b83811061160d5750506000910152565b81810151838201526020016115fd565b90602091611636815180928185528580860191016115fa565b601f01601f1916010190565b600435906001600160a01b038216820361020657565b602435906001600160a01b038216820361020657565b6060906003190112610206576001600160a01b0390600435828116810361020657916024359081168103610206579060443590565b90600182811c921680156116d3575b60208310146116bd57565b634e487b7160e01b600052602260045260246000fd5b91607f16916116b2565b6020810190811067ffffffffffffffff821117610c1357604052565b90601f8019910116810190811067ffffffffffffffff821117610c1357604052565b67ffffffffffffffff8111610c1357601f01601f191660200190565b9291926117438261171b565b9161175160405193846116f9565b829481845281830111610206578281602093846000960137010152565b9080601f830112156102065781602061178993359101611737565b90565b600a546001600160a01b031633036117a057565b606460405162461bcd60e51b815260206004820152602060248201527f4f776e61626c653a2063616c6c6572206973206e6f7420746865206f776e65726044820152fd5b6001600160a01b0316801561180457600052600360205260406000205490565b60405162461bcd60e51b815260206004820152602960248201527f4552433732313a2061646472657373207a65726f206973206e6f7420612076616044820152683634b21037bbb732b960b91b6064820152608490fd5b1561186257565b60405162461bcd60e51b815260206004820152601860248201527f4552433732313a20696e76616c696420746f6b656e20494400000000000000006044820152606490fd5b6000908152600260205260409020546001600160a01b031661178981151561185b565b6000818152600260205260409020546118ed906001600160a01b0316151561185b565b6000908152600460205260409020546001600160a01b031690565b1561190f57565b60405162461bcd60e51b815260206004820152602d60248201527f4552433732313a2063616c6c6572206973206e6f7420746f6b656e206f776e6560448201526c1c881bdc88185c1c1c9bdd9959609a1b6064820152608490fd5b60809060208152603260208201527f4552433732313a207472616e7366657220746f206e6f6e20455243373231526560408201527131b2b4bb32b91034b6b83632b6b2b73a32b960711b60608201520190565b156119c457565b60405162461bcd60e51b8152806119dd6004820161196a565b0390fd5b906001600160a01b0380806119f5846118a7565b16931691838314938415611a28575b508315611a12575b50505090565b611a1e919293506118ca565b1614388080611a0c565b909350600052600560205260406000208260005260205260ff604060002054169238611a04565b15611a5657565b60405162461bcd60e51b815260206004820152602560248201527f4552433732313a207472616e736665722066726f6d20696e636f72726563742060448201526437bbb732b960d91b6064820152608490fd5b611acd91611ab6846118a7565b6001600160a01b0393848416939185168414611a4f565b838216938415611c8957839182611be6575090506008549085600052600960205281604060002055600160401b821015610c1357611b3392611b1a87610711856001899701600855611f0d565b828603611bb3575b50611b2c866118a7565b1614611a4f565b7fddf252ad1be2c89b69c2b068fc378daa952ba7f163c4a11628f55a4df523b3ef60008481526004602052604081206bffffffffffffffffffffffff60a01b9081815416905583825260036020526040822060001981540190558482526040822060018154019055858252600260205284604083209182541617905580a4565b611bbc906117e4565b60406000878152600660205281812083825260205288828220558881526007602052205538611b22565b858303611bf8575b50611b3392611b1a565b611c039192506117e4565b6000198101919082116111c057611b339284926000908882526020906007825260409182842054828103611c52575b508a84528383812055868452600681528284209184525281205592611bee565b8785526006825283852083865282528385205488865260068352848620828752835280858720558552600782528385205538611c32565b60405162461bcd60e51b8152602060048201526024808201527f4552433732313a207472616e7366657220746f20746865207a65726f206164646044820152637265737360e01b6064820152608490fd5b91929091803b15611def57611d27936040519081630a85bd0160e11b9384825233600483015260009687602484015260448301526080606483015281878160209a8b96608483019061161d565b03926001600160a01b03165af1849181611dab575b50611d9a575050503d600014611d92573d611d568161171b565b90611d6460405192836116f9565b81528091833d92013e5b80519182611d8f5760405162461bcd60e51b8152806119dd6004820161196a565b01fd5b506060611d6e565b6001600160e01b0319161492509050565b9091508581813d8311611de8575b611dc381836116f9565b81010312611de457516001600160e01b031981168103611de4579038611d3c565b8480fd5b503d611db9565b50915050600190565b92939190803b15611e7557611e4a946040518092630a85bd0160e11b9485835233600484015260018060a01b03809816602484015260448301526080606483015281806020998a95608483019061161d565b03916000988991165af1849181611dab5750611d9a575050503d600014611d92573d611d568161171b565b5050915050600190565b611e88816117e4565b821015611eb45760018060a01b0316600052600660205260406000209060005260205260406000205490565b60405162461bcd60e51b815260206004820152602b60248201527f455243373231456e756d657261626c653a206f776e657220696e646578206f7560448201526a74206f6620626f756e647360a81b6064820152608490fd5b6008548110156111d65760086000527ff3f7a9fe364faab93b216da50a3214154f22a0a2b415b23a84c8169e8b636ee30190600090565b15611f4b57565b60405162461bcd60e51b815260206004820152601c60248201527f4552433732313a20746f6b656e20616c7265616479206d696e746564000000006044820152606490fd5b90611f9a8261171b565b611fa760405191826116f9565b8281528092611fb8601f199161171b565b0190602036910137565b805115612105576040516060810181811067ffffffffffffffff821117610c1357604052604081527f4142434445464748494a4b4c4d4e4f505152535455565758595a61626364656660208201527f6768696a6b6c6d6e6f707172737475767778797a303132333435363738392b2f604082015281516002928382018092116111c0576003918290046001600160fe1b03811681036111c057612068908594951b611f90565b936020850193829183518401925b8381106120b457505050505106806001146120a157600214612096575090565b603d90600019015390565b50603d9081600019820153600119015390565b85600491979293949701918251600190603f9082828260121c16880101518453828282600c1c16880101518385015382828260061c1688010151888501531685010151878201530195929190612076565b50604051612112816116dd565b6000815290565b806000917a184f03e93ff9f4daa797ed6e38ed64bf6a1f0100000000000000008082101561224e575b506d04ee2d6d415b85acef81000000008083101561223f575b50662386f26fc1000080831015612230575b506305f5e10080831015612221575b5061271080831015612212575b506064821015612202575b600a809210156121f8575b6001908160216121b0828701611f90565b95860101905b6121c2575b5050505090565b600019019083906f181899199a1a9b1b9c1cb0b131b232b360811b8282061a8353049182156121f3579190826121b6565b6121bb565b916001019161219f565b9190606460029104910191612194565b60049193920491019138612189565b6008919392049101913861217c565b6010919392049101913861216d565b6020919392049101913861215b565b604093508104915038612142565b67ffffffffffffffff8111610c135760051b6020019056fed7b6990105719101dabeb77144f2a3385c8033acd3af97e9423a695e81ad1eb5a2646970667358221220bbe8af4e3754c6e042d74d28a880b61fbd616b305acebed67ce1bfbab5086c1464736f6c63430008140033","opcodes":"PUSH1 0x80 PUSH1 0x40 MSTORE CALLVALUE PUSH3 0x5C1 JUMPI PUSH3 0x2936 DUP1 CODESIZE SUB DUP1 PUSH3 0x1D DUP2 PUSH3 0x5FC JUMP JUMPDEST SWAP3 DUP4 CODECOPY DUP2 ADD PUSH1 0x20 SWAP2 DUP3 DUP2 DUP4 SUB SLT PUSH3 0x5C1 JUMPI DUP1 MLOAD PUSH1 0x1 PUSH1 0x1 PUSH1 0x40 SHL SUB SWAP2 DUP3 DUP3 GT PUSH3 0x5C1 JUMPI ADD SWAP1 PUSH1 0x1F DUP4 DUP2 DUP5 ADD SLT ISZERO PUSH3 0x5C1 JUMPI DUP3 MLOAD SWAP3 DUP3 DUP5 GT PUSH3 0x5C6 JUMPI PUSH1 0x1F NOT SWAP4 PUSH3 0x71 DUP4 DUP3 ADD DUP7 AND DUP9 ADD PUSH3 0x5FC JUMP JUMPDEST SWAP6 DUP2 DUP8 MSTORE DUP8 DUP3 DUP5 ADD ADD GT PUSH3 0x5C1 JUMPI DUP7 SWAP2 PUSH1 0x0 JUMPDEST DUP3 DUP2 LT PUSH3 0x5AD JUMPI POP POP SWAP1 PUSH1 0x0 SWAP2 DUP7 ADD ADD MSTORE PUSH3 0xA1 PUSH3 0x5DC JUMP JUMPDEST SWAP1 PUSH1 0x19 DUP3 MSTORE PUSH32 0x426173655361766520476F616C20416368696576656D656E7400000000000000 DUP7 DUP4 ADD MSTORE PUSH3 0xD5 PUSH3 0x5DC JUMP JUMPDEST SWAP5 PUSH1 0x4 SWAP6 DUP7 DUP2 MSTORE PUSH4 0x11D3D053 PUSH1 0xE2 SHL DUP9 DUP3 ADD MSTORE DUP4 MLOAD DUP6 DUP2 GT PUSH3 0x4AF JUMPI PUSH1 0x0 SLOAD SWAP5 PUSH1 0x1 SWAP6 DUP7 DUP2 DUP2 SHR SWAP2 AND DUP1 ISZERO PUSH3 0x5A2 JUMPI JUMPDEST DUP12 DUP3 LT EQ PUSH3 0x58D JUMPI SWAP1 DUP2 DUP7 DUP5 SWAP4 GT PUSH3 0x537 JUMPI JUMPDEST POP DUP11 SWAP1 DUP7 DUP4 GT PUSH1 0x1 EQ PUSH3 0x4D0 JUMPI PUSH1 0x0 SWAP3 PUSH3 0x4C4 JUMPI JUMPDEST POP POP PUSH1 0x0 NOT PUSH1 0x3 DUP4 SWAP1 SHL SHR NOT AND SWAP1 DUP6 SHL OR PUSH1 0x0 SSTORE JUMPDEST DUP1 MLOAD SWAP1 DUP6 DUP3 GT PUSH3 0x4AF JUMPI DUP5 SLOAD DUP6 DUP2 DUP2 SHR SWAP2 AND DUP1 ISZERO PUSH3 0x4A4 JUMPI JUMPDEST DUP11 DUP3 LT EQ PUSH3 0x48F JUMPI SWAP1 DUP2 DUP6 DUP5 SWAP4 GT PUSH3 0x439 JUMPI JUMPDEST POP DUP10 SWAP1 DUP6 DUP4 GT PUSH1 0x1 EQ PUSH3 0x3D5 JUMPI PUSH1 0x0 SWAP3 PUSH3 0x3C9 JUMPI JUMPDEST POP POP PUSH1 0x0 NOT PUSH1 0x3 DUP4 SWAP1 SHL SHR NOT AND SWAP1 DUP5 SHL OR DUP4 SSTORE JUMPDEST PUSH3 0x1AE CALLER PUSH3 0x622 JUMP JUMPDEST DUP1 MLOAD SWAP4 DUP5 GT PUSH3 0x3B4 JUMPI PUSH1 0xD SLOAD DUP4 DUP2 DUP2 SHR SWAP2 AND DUP1 ISZERO PUSH3 0x3A9 JUMPI JUMPDEST DUP9 DUP3 LT EQ PUSH3 0x394 JUMPI DUP3 DUP2 GT PUSH3 0x348 JUMPI JUMPDEST POP DUP7 SWAP2 DUP5 GT PUSH1 0x1 EQ PUSH3 0x2E0 JUMPI DUP4 SWAP5 POP SWAP1 DUP4 SWAP3 SWAP2 PUSH1 0x0 SWAP5 PUSH3 0x2D4 JUMPI JUMPDEST POP POP SHL SWAP2 PUSH1 0x0 NOT SWAP1 PUSH1 0x3 SHL SHR NOT AND OR PUSH1 0xD SSTORE JUMPDEST PUSH1 0xA SLOAD CALLER PUSH1 0x1 PUSH1 0x1 PUSH1 0xA0 SHL SUB SWAP1 SWAP2 AND SUB PUSH3 0x293 JUMPI CALLER ISZERO PUSH3 0x242 JUMPI PUSH3 0x232 CALLER PUSH3 0x622 JUMP JUMPDEST PUSH1 0x40 MLOAD PUSH2 0x22CA SWAP1 DUP2 PUSH3 0x66C DUP3 CODECOPY RETURN JUMPDEST PUSH1 0x84 SWAP2 PUSH1 0x40 MLOAD SWAP2 PUSH3 0x461BCD PUSH1 0xE5 SHL DUP4 MSTORE DUP3 ADD MSTORE PUSH1 0x26 PUSH1 0x24 DUP3 ADD MSTORE PUSH32 0x4F776E61626C653A206E6577206F776E657220697320746865207A65726F2061 PUSH1 0x44 DUP3 ADD MSTORE PUSH6 0x646472657373 PUSH1 0xD0 SHL PUSH1 0x64 DUP3 ADD MSTORE REVERT JUMPDEST DUP2 PUSH1 0x64 SWAP3 PUSH1 0x40 MLOAD SWAP3 PUSH3 0x461BCD PUSH1 0xE5 SHL DUP5 MSTORE DUP4 ADD MSTORE PUSH1 0x24 DUP3 ADD MSTORE PUSH32 0x4F776E61626C653A2063616C6C6572206973206E6F7420746865206F776E6572 PUSH1 0x44 DUP3 ADD MSTORE REVERT JUMPDEST ADD MLOAD SWAP3 POP CODESIZE DUP1 PUSH3 0x1F8 JUMP JUMPDEST SWAP2 SWAP4 DUP4 AND SWAP2 PUSH1 0xD PUSH1 0x0 MSTORE DUP4 DUP8 PUSH1 0x0 KECCAK256 SWAP4 PUSH1 0x0 JUMPDEST DUP10 DUP9 DUP4 DUP4 LT PUSH3 0x330 JUMPI POP POP POP LT PUSH3 0x316 JUMPI JUMPDEST POP POP POP DUP2 SHL ADD PUSH1 0xD SSTORE PUSH3 0x20B JUMP JUMPDEST ADD MLOAD PUSH1 0x0 NOT PUSH1 0xF8 DUP5 PUSH1 0x3 SHL AND SHR NOT AND SWAP1 SSTORE CODESIZE DUP1 DUP1 PUSH3 0x307 JUMP JUMPDEST DUP7 DUP7 ADD MLOAD DUP9 SSTORE SWAP1 SWAP7 ADD SWAP6 SWAP5 DUP6 ADD SWAP5 DUP8 SWAP4 POP ADD PUSH3 0x2F3 JUMP JUMPDEST PUSH1 0xD PUSH1 0x0 MSTORE DUP8 PUSH1 0x0 KECCAK256 DUP4 DUP1 DUP8 ADD PUSH1 0x5 SHR DUP3 ADD SWAP3 DUP11 DUP9 LT PUSH3 0x38A JUMPI JUMPDEST ADD PUSH1 0x5 SHR ADD SWAP1 DUP5 SWAP1 JUMPDEST DUP3 DUP2 LT PUSH3 0x37D JUMPI POP POP PUSH3 0x1DB JUMP JUMPDEST PUSH1 0x0 DUP2 SSTORE ADD DUP5 SWAP1 PUSH3 0x36D JUMP JUMPDEST SWAP3 POP DUP2 SWAP3 PUSH3 0x364 JUMP JUMPDEST PUSH1 0x22 DUP8 PUSH4 0x4E487B71 PUSH1 0xE0 SHL PUSH1 0x0 MSTORE MSTORE PUSH1 0x24 PUSH1 0x0 REVERT JUMPDEST SWAP1 PUSH1 0x7F AND SWAP1 PUSH3 0x1C9 JUMP JUMPDEST PUSH1 0x41 DUP7 PUSH4 0x4E487B71 PUSH1 0xE0 SHL PUSH1 0x0 MSTORE MSTORE PUSH1 0x24 PUSH1 0x0 REVERT JUMPDEST ADD MLOAD SWAP1 POP CODESIZE DUP1 PUSH3 0x18F JUMP JUMPDEST SWAP1 DUP9 DUP8 SWAP5 AND SWAP2 DUP5 PUSH1 0x0 MSTORE DUP12 PUSH1 0x0 KECCAK256 SWAP3 PUSH1 0x0 JUMPDEST DUP14 DUP3 DUP3 LT PUSH3 0x422 JUMPI POP POP DUP5 GT PUSH3 0x408 JUMPI JUMPDEST POP POP POP DUP2 SHL ADD DUP4 SSTORE PUSH3 0x1A3 JUMP JUMPDEST ADD MLOAD PUSH1 0x0 NOT PUSH1 0xF8 DUP5 PUSH1 0x3 SHL AND SHR NOT AND SWAP1 SSTORE CODESIZE DUP1 DUP1 PUSH3 0x3FA JUMP JUMPDEST DUP4 DUP6 ADD MLOAD DUP7 SSTORE DUP11 SWAP8 SWAP1 SWAP6 ADD SWAP5 SWAP4 DUP5 ADD SWAP4 ADD PUSH3 0x3E7 JUMP JUMPDEST SWAP1 SWAP2 POP DUP6 PUSH1 0x0 MSTORE DUP10 PUSH1 0x0 KECCAK256 DUP6 DUP1 DUP6 ADD PUSH1 0x5 SHR DUP3 ADD SWAP3 DUP13 DUP7 LT PUSH3 0x485 JUMPI JUMPDEST SWAP2 DUP9 SWAP2 DUP7 SWAP6 SWAP5 SWAP4 ADD PUSH1 0x5 SHR ADD SWAP2 JUMPDEST DUP3 DUP2 LT PUSH3 0x475 JUMPI POP POP PUSH3 0x178 JUMP JUMPDEST PUSH1 0x0 DUP2 SSTORE DUP6 SWAP5 POP DUP9 SWAP2 ADD PUSH3 0x465 JUMP JUMPDEST SWAP3 POP DUP2 SWAP3 PUSH3 0x457 JUMP JUMPDEST PUSH1 0x22 DUP10 PUSH4 0x4E487B71 PUSH1 0xE0 SHL PUSH1 0x0 MSTORE MSTORE PUSH1 0x24 PUSH1 0x0 REVERT JUMPDEST SWAP1 PUSH1 0x7F AND SWAP1 PUSH3 0x163 JUMP JUMPDEST PUSH1 0x41 DUP9 PUSH4 0x4E487B71 PUSH1 0xE0 SHL PUSH1 0x0 MSTORE MSTORE PUSH1 0x24 PUSH1 0x0 REVERT JUMPDEST ADD MLOAD SWAP1 POP CODESIZE DUP1 PUSH3 0x133 JUMP JUMPDEST SWAP1 DUP10 DUP9 SWAP5 AND SWAP2 PUSH1 0x0 DUP1 MSTORE DUP13 PUSH1 0x0 KECCAK256 SWAP3 DUP14 PUSH1 0x0 SWAP1 JUMPDEST DUP3 DUP3 LT PUSH3 0x51F JUMPI POP POP DUP5 GT PUSH3 0x505 JUMPI JUMPDEST POP POP POP DUP2 SHL ADD PUSH1 0x0 SSTORE PUSH3 0x148 JUMP JUMPDEST ADD MLOAD PUSH1 0x0 NOT PUSH1 0xF8 DUP5 PUSH1 0x3 SHL AND SHR NOT AND SWAP1 SSTORE CODESIZE DUP1 DUP1 PUSH3 0x4F6 JUMP JUMPDEST DUP4 DUP6 ADD MLOAD DUP7 SSTORE DUP12 SWAP8 SWAP1 SWAP6 ADD SWAP5 SWAP4 DUP5 ADD SWAP4 ADD DUP15 PUSH3 0x4E4 JUMP JUMPDEST SWAP1 SWAP2 POP PUSH1 0x0 DUP1 MSTORE DUP11 PUSH1 0x0 KECCAK256 DUP7 DUP1 DUP6 ADD PUSH1 0x5 SHR DUP3 ADD SWAP3 DUP14 DUP7 LT PUSH3 0x583 JUMPI JUMPDEST SWAP2 DUP10 SWAP2 DUP7 SWAP6 SWAP5 SWAP4 ADD PUSH1 0x5 SHR ADD SWAP2 JUMPDEST DUP3 DUP2 LT PUSH3 0x573 JUMPI POP POP PUSH3 0x11C JUMP JUMPDEST PUSH1 0x0 DUP2 SSTORE DUP6 SWAP5 POP DUP10 SWAP2 ADD PUSH3 0x563 JUMP JUMPDEST SWAP3 POP DUP2 SWAP3 PUSH3 0x555 JUMP JUMPDEST PUSH1 0x22 DUP11 PUSH4 0x4E487B71 PUSH1 0xE0 SHL PUSH1 0x0 MSTORE MSTORE PUSH1 0x24 PUSH1 0x0 REVERT JUMPDEST SWAP1 PUSH1 0x7F AND SWAP1 PUSH3 0x107 JUMP JUMPDEST DUP2 DUP2 ADD DUP5 ADD MLOAD DUP9 DUP3 ADD DUP6 ADD MSTORE DUP4 ADD PUSH3 0x85 JUMP JUMPDEST PUSH1 0x0 DUP1 REVERT JUMPDEST PUSH4 0x4E487B71 PUSH1 0xE0 SHL PUSH1 0x0 MSTORE PUSH1 0x41 PUSH1 0x4 MSTORE PUSH1 0x24 PUSH1 0x0 REVERT JUMPDEST PUSH1 0x40 DUP1 MLOAD SWAP2 SWAP1 DUP3 ADD PUSH1 0x1 PUSH1 0x1 PUSH1 0x40 SHL SUB DUP2 GT DUP4 DUP3 LT OR PUSH3 0x5C6 JUMPI PUSH1 0x40 MSTORE JUMP JUMPDEST PUSH1 0x40 MLOAD SWAP2 SWAP1 PUSH1 0x1F ADD PUSH1 0x1F NOT AND DUP3 ADD PUSH1 0x1 PUSH1 0x1 PUSH1 0x40 SHL SUB DUP2 GT DUP4 DUP3 LT OR PUSH3 0x5C6 JUMPI PUSH1 0x40 MSTORE JUMP JUMPDEST PUSH1 0xA DUP1 SLOAD PUSH1 0x1 PUSH1 0x1 PUSH1 0xA0 SHL SUB SWAP3 DUP4 AND PUSH1 0x1 PUSH1 0x1 PUSH1 0xA0 SHL SUB NOT DUP3 AND DUP2 OR SWAP1 SWAP3 SSTORE SWAP1 SWAP2 AND PUSH32 0x8BE0079C531659141344CD1FD0A4F28419497F9722A3DAAFE3B4186F6B6457E0 PUSH1 0x0 DUP1 LOG3 JUMP INVALID PUSH1 0x80 DUP1 PUSH1 0x40 MSTORE PUSH1 0x4 CALLDATASIZE LT ISZERO PUSH2 0x13 JUMPI PUSH1 0x0 DUP1 REVERT JUMPDEST PUSH1 0x0 CALLDATALOAD PUSH1 0xE0 SHR SWAP1 DUP2 PUSH4 0x1FFC9A7 EQ PUSH2 0x1575 JUMPI POP DUP1 PUSH4 0x6FDDE03 EQ PUSH2 0x14D2 JUMPI DUP1 PUSH4 0x81812FC EQ PUSH2 0x14B4 JUMPI DUP1 PUSH4 0x95EA7B3 EQ PUSH2 0x133A JUMPI DUP1 PUSH4 0x18160DDD EQ PUSH2 0x131C JUMPI DUP1 PUSH4 0x23B872DD EQ PUSH2 0x12F8 JUMPI DUP1 PUSH4 0x2F745C59 EQ PUSH2 0x12D1 JUMPI DUP1 PUSH4 0x345FF8EC EQ PUSH2 0x12A5 JUMPI DUP1 PUSH4 0x36E3EF30 EQ PUSH2 0x11EC JUMPI DUP1 PUSH4 0x40398D67 EQ PUSH2 0x10F3 JUMPI DUP1 PUSH4 0x42842E0E EQ PUSH2 0x10C0 JUMPI DUP1 PUSH4 0x4F6CCCE7 EQ PUSH2 0x102F JUMPI DUP1 PUSH4 0x6352211E EQ PUSH2 0xFFF JUMPI DUP1 PUSH4 0x70A08231 EQ PUSH2 0xFD4 JUMPI DUP1 PUSH4 0x715018A6 EQ PUSH2 0xF77 JUMPI DUP1 PUSH4 0x74F82E30 EQ PUSH2 0xEE3 JUMPI DUP1 PUSH4 0x8647CA76 EQ PUSH2 0xD34 JUMPI DUP1 PUSH4 0x891197A8 EQ PUSH2 0x641 JUMPI DUP1 PUSH4 0x8DA5CB5B EQ PUSH2 0x618 JUMPI DUP1 PUSH4 0x95D89B41 EQ PUSH2 0x539 JUMPI DUP1 PUSH4 0xA22CB465 EQ PUSH2 0x467 JUMPI DUP1 PUSH4 0xB88D4FDE EQ PUSH2 0x3DF JUMPI DUP1 PUSH4 0xC87B56DD EQ PUSH2 0x28A JUMPI DUP1 PUSH4 0xD28FB950 EQ PUSH2 0x261 JUMPI DUP1 PUSH4 0xE985E9C5 EQ PUSH2 0x20B JUMPI PUSH4 0xF2FDE38B EQ PUSH2 0x13D JUMPI PUSH1 0x0 DUP1 REVERT JUMPDEST CALLVALUE PUSH2 0x206 JUMPI PUSH1 0x20 CALLDATASIZE PUSH1 0x3 NOT ADD SLT PUSH2 0x206 JUMPI PUSH2 0x156 PUSH2 0x1642 JUMP JUMPDEST PUSH2 0x15E PUSH2 0x178C JUMP JUMPDEST PUSH1 0x1 PUSH1 0x1 PUSH1 0xA0 SHL SUB SWAP1 DUP2 AND SWAP1 DUP2 ISZERO PUSH2 0x1B2 JUMPI PUSH1 0xA SLOAD DUP3 PUSH12 0xFFFFFFFFFFFFFFFFFFFFFFFF PUSH1 0xA0 SHL DUP3 AND OR PUSH1 0xA SSTORE AND PUSH32 0x8BE0079C531659141344CD1FD0A4F28419497F9722A3DAAFE3B4186F6B6457E0 PUSH1 0x0 DUP1 LOG3 STOP JUMPDEST PUSH1 0x40 MLOAD PUSH3 0x461BCD PUSH1 0xE5 SHL DUP2 MSTORE PUSH1 0x20 PUSH1 0x4 DUP3 ADD MSTORE PUSH1 0x26 PUSH1 0x24 DUP3 ADD MSTORE PUSH32 0x4F776E61626C653A206E6577206F776E657220697320746865207A65726F2061 PUSH1 0x44 DUP3 ADD MSTORE PUSH6 0x646472657373 PUSH1 0xD0 SHL PUSH1 0x64 DUP3 ADD MSTORE PUSH1 0x84 SWAP1 REVERT JUMPDEST PUSH1 0x0 DUP1 REVERT JUMPDEST CALLVALUE PUSH2 0x206 JUMPI PUSH1 0x40 CALLDATASIZE PUSH1 0x3 NOT ADD SLT PUSH2 0x206 JUMPI PUSH2 0x224 PUSH2 0x1642 JUMP JUMPDEST PUSH2 0x22C PUSH2 0x1658 JUMP JUMPDEST SWAP1 PUSH1 0x1 DUP1 PUSH1 0xA0 SHL SUB DUP1 SWAP2 AND PUSH1 0x0 MSTORE PUSH1 0x5 PUSH1 0x20 MSTORE PUSH1 0x40 PUSH1 0x0 KECCAK256 SWAP2 AND PUSH1 0x0 MSTORE PUSH1 0x20 MSTORE PUSH1 0x20 PUSH1 0xFF PUSH1 0x40 PUSH1 0x0 KECCAK256 SLOAD AND PUSH1 0x40 MLOAD SWAP1 ISZERO ISZERO DUP2 MSTORE RETURN JUMPDEST CALLVALUE PUSH2 0x206 JUMPI PUSH1 0x0 CALLDATASIZE PUSH1 0x3 NOT ADD SLT PUSH2 0x206 JUMPI PUSH1 0xC SLOAD PUSH1 0x40 MLOAD PUSH1 0x1 PUSH1 0x1 PUSH1 0xA0 SHL SUB SWAP1 SWAP2 AND DUP2 MSTORE PUSH1 0x20 SWAP1 RETURN JUMPDEST CALLVALUE PUSH2 0x206 JUMPI PUSH1 0x20 DUP1 PUSH1 0x3 NOT CALLDATASIZE ADD SLT PUSH2 0x206 JUMPI PUSH1 0x4 CALLDATALOAD PUSH1 0x0 DUP2 DUP2 MSTORE PUSH1 0x2 PUSH1 0x20 MSTORE PUSH1 0x40 SWAP1 KECCAK256 SLOAD PUSH1 0x1 PUSH1 0x1 PUSH1 0xA0 SHL SUB AND ISZERO PUSH2 0x380 JUMPI PUSH1 0x0 MSTORE PUSH1 0xF DUP2 MSTORE PUSH1 0x40 PUSH1 0x0 KECCAK256 SWAP1 PUSH1 0x40 MLOAD SWAP2 DUP3 PUSH1 0x0 DUP3 SLOAD PUSH2 0x2DB DUP2 PUSH2 0x16A3 JUMP JUMPDEST SWAP4 DUP5 DUP5 MSTORE PUSH1 0x1 SWAP2 DUP7 DUP4 DUP3 AND SWAP2 DUP3 PUSH1 0x0 EQ PUSH2 0x35E JUMPI POP POP PUSH1 0x1 EQ PUSH2 0x31F JUMPI JUMPDEST POP POP PUSH2 0x307 SWAP3 POP SUB DUP4 PUSH2 0x16F9 JUMP JUMPDEST PUSH2 0x31B PUSH1 0x40 MLOAD SWAP3 DUP3 DUP5 SWAP4 DUP5 MSTORE DUP4 ADD SWAP1 PUSH2 0x161D JUMP JUMPDEST SUB SWAP1 RETURN JUMPDEST DUP6 SWAP3 POP PUSH1 0x0 MSTORE DUP2 PUSH1 0x0 KECCAK256 SWAP1 PUSH1 0x0 SWAP2 JUMPDEST DUP6 DUP4 LT PUSH2 0x346 JUMPI POP POP PUSH2 0x307 SWAP4 POP DUP3 ADD ADD DUP6 DUP1 PUSH2 0x2F9 JUMP JUMPDEST DUP1 SLOAD DUP4 DUP10 ADD DUP6 ADD MSTORE DUP8 SWAP5 POP DUP7 SWAP4 SWAP1 SWAP3 ADD SWAP2 DUP2 ADD PUSH2 0x32E JUMP JUMPDEST SWAP3 POP SWAP4 POP POP PUSH2 0x307 SWAP5 SWAP2 POP PUSH1 0xFF NOT AND DUP3 DUP5 ADD MSTORE ISZERO ISZERO PUSH1 0x5 SHL DUP3 ADD ADD DUP6 DUP1 PUSH2 0x2F9 JUMP JUMPDEST PUSH1 0x40 MLOAD PUSH3 0x461BCD PUSH1 0xE5 SHL DUP2 MSTORE PUSH1 0x4 DUP2 ADD DUP4 SWAP1 MSTORE PUSH1 0x31 PUSH1 0x24 DUP3 ADD MSTORE PUSH32 0x45524337323155524953746F726167653A2055524920717565727920666F7220 PUSH1 0x44 DUP3 ADD MSTORE PUSH17 0x3737B732BC34B9BA32B73A103A37B5B2B7 PUSH1 0x79 SHL PUSH1 0x64 DUP3 ADD MSTORE PUSH1 0x84 SWAP1 REVERT JUMPDEST CALLVALUE PUSH2 0x206 JUMPI PUSH1 0x80 CALLDATASIZE PUSH1 0x3 NOT ADD SLT PUSH2 0x206 JUMPI PUSH2 0x3F8 PUSH2 0x1642 JUMP JUMPDEST PUSH2 0x400 PUSH2 0x1658 JUMP JUMPDEST SWAP1 PUSH1 0x64 CALLDATALOAD SWAP1 PUSH1 0x44 CALLDATALOAD PUSH8 0xFFFFFFFFFFFFFFFF DUP4 GT PUSH2 0x206 JUMPI CALLDATASIZE PUSH1 0x23 DUP5 ADD SLT ISZERO PUSH2 0x206 JUMPI PUSH2 0x465 SWAP4 PUSH2 0x43D PUSH2 0x460 SWAP5 CALLDATASIZE SWAP1 PUSH1 0x24 DUP2 PUSH1 0x4 ADD CALLDATALOAD SWAP2 ADD PUSH2 0x1737 JUMP JUMPDEST SWAP3 PUSH2 0x450 PUSH2 0x44B DUP5 CALLER PUSH2 0x19E1 JUMP JUMPDEST PUSH2 0x1908 JUMP JUMPDEST PUSH2 0x45B DUP4 DUP4 DUP4 PUSH2 0x1AA9 JUMP JUMPDEST PUSH2 0x1DF8 JUMP JUMPDEST PUSH2 0x19BD JUMP JUMPDEST STOP JUMPDEST CALLVALUE PUSH2 0x206 JUMPI PUSH1 0x40 CALLDATASIZE PUSH1 0x3 NOT ADD SLT PUSH2 0x206 JUMPI PUSH2 0x480 PUSH2 0x1642 JUMP JUMPDEST PUSH1 0x24 CALLDATALOAD SWAP1 DUP2 ISZERO ISZERO DUP1 SWAP3 SUB PUSH2 0x206 JUMPI PUSH1 0x1 PUSH1 0x1 PUSH1 0xA0 SHL SUB AND SWAP1 CALLER DUP3 EQ PUSH2 0x4F4 JUMPI CALLER PUSH1 0x0 MSTORE PUSH1 0x5 PUSH1 0x20 MSTORE PUSH1 0x40 PUSH1 0x0 KECCAK256 DUP3 PUSH1 0x0 MSTORE PUSH1 0x20 MSTORE PUSH1 0x40 PUSH1 0x0 KECCAK256 PUSH1 0xFF NOT DUP2 SLOAD AND PUSH1 0xFF DUP4 AND OR SWAP1 SSTORE PUSH1 0x40 MLOAD SWAP1 DUP2 MSTORE PUSH32 0x17307EAB39AB6107E8899845AD3D59BD9653F200F220920489CA2B5937696C31 PUSH1 0x20 CALLER SWAP3 LOG3 STOP JUMPDEST PUSH1 0x40 MLOAD PUSH3 0x461BCD PUSH1 0xE5 SHL DUP2 MSTORE PUSH1 0x20 PUSH1 0x4 DUP3 ADD MSTORE PUSH1 0x19 PUSH1 0x24 DUP3 ADD MSTORE PUSH32 0x4552433732313A20617070726F766520746F2063616C6C657200000000000000 PUSH1 0x44 DUP3 ADD MSTORE PUSH1 0x64 SWAP1 REVERT JUMPDEST CALLVALUE PUSH2 0x206 JUMPI PUSH1 0x0 CALLDATASIZE PUSH1 0x3 NOT ADD SLT PUSH2 0x206 JUMPI PUSH1 0x40 MLOAD PUSH1 0x0 PUSH1 0x1 DUP1 SLOAD SWAP1 PUSH2 0x55D DUP3 PUSH2 0x16A3 JUMP JUMPDEST DUP1 DUP6 MSTORE SWAP2 DUP2 DUP2 AND SWAP1 DUP2 ISZERO PUSH2 0x5F1 JUMPI POP PUSH1 0x1 EQ PUSH2 0x598 JUMPI JUMPDEST PUSH2 0x31B DUP5 PUSH2 0x584 DUP2 DUP7 SUB DUP3 PUSH2 0x16F9 JUMP JUMPDEST PUSH1 0x40 MLOAD SWAP2 DUP3 SWAP2 PUSH1 0x20 DUP4 MSTORE PUSH1 0x20 DUP4 ADD SWAP1 PUSH2 0x161D JUMP JUMPDEST PUSH1 0x0 DUP2 DUP2 MSTORE SWAP3 POP PUSH32 0xB10E2D527612073B26EECDFD717E6A320CF44B4AFAC2B0732D9FCBE2B7FA0CF6 JUMPDEST DUP3 DUP5 LT PUSH2 0x5D9 JUMPI POP POP POP DUP2 ADD PUSH1 0x20 ADD PUSH2 0x584 DUP3 PUSH2 0x574 JUMP JUMPDEST DUP1 SLOAD PUSH1 0x20 DUP6 DUP8 ADD DUP2 ADD SWAP2 SWAP1 SWAP2 MSTORE SWAP1 SWAP4 ADD SWAP3 DUP2 ADD PUSH2 0x5C1 JUMP JUMPDEST PUSH1 0xFF NOT AND PUSH1 0x20 DUP1 DUP8 ADD SWAP2 SWAP1 SWAP2 MSTORE SWAP3 ISZERO ISZERO PUSH1 0x5 SHL DUP6 ADD SWAP1 SWAP3 ADD SWAP3 POP PUSH2 0x584 SWAP2 POP DUP4 SWAP1 POP PUSH2 0x574 JUMP JUMPDEST CALLVALUE PUSH2 0x206 JUMPI PUSH1 0x0 CALLDATASIZE PUSH1 0x3 NOT ADD SLT PUSH2 0x206 JUMPI PUSH1 0xA SLOAD PUSH1 0x40 MLOAD PUSH1 0x1 PUSH1 0x1 PUSH1 0xA0 SHL SUB SWAP1 SWAP2 AND DUP2 MSTORE PUSH1 0x20 SWAP1 RETURN JUMPDEST CALLVALUE PUSH2 0x206 JUMPI PUSH1 0x60 CALLDATASIZE PUSH1 0x3 NOT ADD SLT PUSH2 0x206 JUMPI PUSH2 0x65A PUSH2 0x1642 JUMP JUMPDEST PUSH1 0x44 CALLDATALOAD PUSH8 0xFFFFFFFFFFFFFFFF DUP2 GT PUSH2 0x206 JUMPI PUSH2 0x67A SWAP1 CALLDATASIZE SWAP1 PUSH1 0x4 ADD PUSH2 0x176E JUMP JUMPDEST PUSH1 0xC SLOAD PUSH1 0x1 PUSH1 0x1 PUSH1 0xA0 SHL SUB SWAP2 SWAP1 DUP3 AND CALLER SUB PUSH2 0xCE5 JUMPI DUP2 DUP4 AND ISZERO PUSH2 0xCA1 JUMPI PUSH1 0x1 SWAP3 DUP4 PUSH1 0xB SLOAD ADD SWAP2 DUP3 PUSH1 0xB SSTORE PUSH1 0x40 MLOAD PUSH2 0x6B0 DUP2 PUSH2 0x16DD JUMP JUMPDEST PUSH1 0x0 DUP1 DUP3 MSTORE DUP5 DUP2 MSTORE PUSH1 0x2 PUSH1 0x20 MSTORE PUSH1 0x40 SWAP1 KECCAK256 SLOAD PUSH2 0x6D8 SWAP1 PUSH1 0x1 PUSH1 0x1 PUSH1 0xA0 SHL SUB AND ISZERO ISZERO JUMPDEST ISZERO PUSH2 0x1F44 JUMP JUMPDEST PUSH1 0x8 SLOAD DUP5 PUSH1 0x0 MSTORE PUSH1 0x9 PUSH1 0x20 MSTORE DUP1 PUSH1 0x40 PUSH1 0x0 KECCAK256 SSTORE PUSH1 0x1 PUSH1 0x40 SHL DUP2 LT ISZERO PUSH2 0xC13 JUMPI PUSH2 0x7E4 SWAP2 PUSH2 0x72A DUP7 PUSH2 0x711 DUP5 DUP12 PUSH2 0x460 SWAP7 ADD PUSH1 0x8 SSTORE PUSH2 0x1F0D JUMP JUMPDEST SWAP1 SWAP2 SWAP1 DUP3 SLOAD SWAP1 PUSH1 0x3 SHL SWAP2 DUP3 SHL SWAP2 PUSH1 0x0 NOT SWAP1 SHL NOT AND OR SWAP1 SSTORE JUMP JUMPDEST PUSH2 0x733 DUP6 PUSH2 0x17E4 JUMP JUMPDEST DUP8 DUP7 AND PUSH1 0x0 MSTORE PUSH1 0x6 PUSH1 0x20 MSTORE PUSH1 0x40 PUSH1 0x0 KECCAK256 DUP2 PUSH1 0x0 MSTORE PUSH1 0x20 MSTORE DUP7 PUSH1 0x40 PUSH1 0x0 KECCAK256 SSTORE DUP7 PUSH1 0x0 MSTORE PUSH1 0x7 PUSH1 0x20 MSTORE PUSH1 0x40 PUSH1 0x0 KECCAK256 SSTORE PUSH2 0x782 PUSH2 0x6D2 DUP8 PUSH1 0x0 MSTORE PUSH1 0x2 PUSH1 0x20 MSTORE PUSH1 0x1 DUP1 PUSH1 0xA0 SHL SUB PUSH1 0x40 PUSH1 0x0 KECCAK256 SLOAD AND ISZERO ISZERO SWAP1 JUMP JUMPDEST DUP5 DUP8 AND PUSH1 0x0 DUP2 DUP2 MSTORE PUSH1 0x3 PUSH1 0x20 SWAP1 DUP2 MSTORE PUSH1 0x40 DUP1 DUP4 KECCAK256 DUP1 SLOAD DUP14 ADD SWAP1 SSTORE DUP10 DUP4 MSTORE PUSH1 0x2 SWAP1 SWAP2 MSTORE DUP2 KECCAK256 DUP1 SLOAD PUSH1 0x1 PUSH1 0x1 PUSH1 0xA0 SHL SUB NOT AND DUP4 OR SWAP1 SSTORE DUP8 SWAP2 SWAP1 PUSH32 0xDDF252AD1BE2C89B69C2B068FC378DAA952BA7F163C4A11628F55A4DF523B3EF DUP2 DUP1 LOG4 DUP6 DUP6 PUSH2 0x1CDA JUMP JUMPDEST DUP3 PUSH1 0x0 MSTORE PUSH1 0xE PUSH1 0x20 MSTORE PUSH1 0x24 CALLDATALOAD PUSH1 0x40 PUSH1 0x0 KECCAK256 SSTORE PUSH2 0x7FF DUP4 PUSH2 0x2119 JUMP JUMPDEST SWAP1 PUSH2 0x80B PUSH1 0x24 CALLDATALOAD PUSH2 0x2119 JUMP JUMPDEST PUSH2 0x814 TIMESTAMP PUSH2 0x2119 JUMP JUMPDEST SWAP2 PUSH1 0x40 MLOAD SWAP4 PUSH1 0x7B PUSH1 0xF8 SHL PUSH1 0x20 DUP7 ADD MSTORE PUSH32 0x226E616D65223A2022476F616C20416368696576656D656E743A200000000000 PUSH1 0x21 DUP7 ADD MSTORE PUSH2 0x85D DUP3 MLOAD DUP1 SWAP4 PUSH1 0x20 PUSH1 0x3C DUP10 ADD SWAP2 ADD PUSH2 0x15FA JUMP JUMPDEST PUSH2 0x88B PUSH1 0xF2 SHL DUP6 DUP4 ADD PUSH1 0x3C DUP2 ADD SWAP2 SWAP1 SWAP2 MSTORE PUSH32 0x226465736372697074696F6E223A202254686973204E46542072657072657365 PUSH1 0x3E DUP3 ADD MSTORE PUSH32 0x6E747320746865207375636365737366756C20636F6D706C6574696F6E206F66 PUSH1 0x5E DUP3 ADD MSTORE PUSH32 0x206120736176696E677320676F616C206F6E2042617365536176652E222C0000 PUSH1 0x7E DUP3 ADD MSTORE PUSH10 0x1134B6B0B3B2911D1011 PUSH1 0xB1 SHL PUSH1 0x9C SWAP1 SWAP2 ADD MSTORE PUSH1 0xD SLOAD PUSH1 0x0 SWAP3 PUSH2 0x903 DUP3 PUSH2 0x16A3 JUMP JUMPDEST SWAP2 DUP12 DUP2 AND SWAP1 DUP2 ISZERO PUSH2 0xC7A JUMPI POP PUSH1 0x1 EQ PUSH2 0xC29 JUMPI JUMPDEST POP POP SWAP4 DUP1 SWAP4 PUSH2 0xA6F SWAP4 PUSH1 0x20 DUP5 PUSH2 0x938 DUP10 PUSH1 0x9D SWAP8 PUSH2 0xA74 SWAP12 MLOAD SWAP5 DUP6 SWAP3 ADD PUSH2 0x15FA JUMP JUMPDEST PUSH6 0xB9C1B99C88B PUSH1 0xD2 SHL SWAP2 ADD SWAP1 DUP2 MSTORE PUSH15 0x2261747472696275746573223A205B PUSH1 0x88 SHL PUSH1 0x6 DUP3 ADD MSTORE PUSH32 0x7B2274726169745F74797065223A2022476F616C204944222C202276616C7565 PUSH1 0x15 DUP3 ADD MSTORE PUSH4 0x111D1011 PUSH1 0xE1 SHL PUSH1 0x35 DUP3 ADD MSTORE DUP2 MLOAD SWAP2 PUSH2 0x9A8 SWAP1 DUP4 SWAP1 PUSH1 0x39 DUP5 ADD SWAP1 PUSH1 0x20 ADD PUSH2 0x15FA JUMP JUMPDEST ADD SWAP1 PUSH3 0x89F4B PUSH1 0xEA SHL SWAP2 DUP3 PUSH1 0x39 DUP3 ADD MSTORE PUSH32 0x7B2274726169745F74797065223A2022416368696576656D656E742044617465 PUSH1 0x3C DUP3 ADD MSTORE PUSH13 0x111610113B30B63AB2911D1011 PUSH1 0x99 SHL PUSH1 0x5C DUP3 ADD MSTORE PUSH2 0xA08 DUP3 MLOAD DUP1 SWAP4 PUSH1 0x20 PUSH1 0x69 DUP6 ADD SWAP2 ADD PUSH2 0x15FA JUMP JUMPDEST ADD SWAP1 PUSH1 0x69 DUP3 ADD MSTORE PUSH32 0x7B2274726169745F74797065223A2022506C6174666F726D222C202276616C75 PUSH1 0x6C DUP3 ADD MSTORE PUSH15 0x65223A20224261736553617665227D PUSH1 0x88 SHL PUSH1 0x8C DUP3 ADD MSTORE PUSH1 0x5D PUSH1 0xF8 SHL PUSH1 0x9B DUP3 ADD MSTORE PUSH1 0x7D PUSH1 0xF8 SHL PUSH1 0x9C DUP3 ADD MSTORE SUB PUSH1 0x7D DUP2 ADD DUP5 MSTORE ADD DUP3 PUSH2 0x16F9 JUMP JUMPDEST PUSH2 0x1FC2 JUMP JUMPDEST SWAP4 PUSH2 0xAC8 PUSH1 0x3D PUSH1 0x40 MLOAD DUP1 SWAP8 PUSH32 0x646174613A6170706C69636174696F6E2F6A736F6E3B6261736536342C000000 PUSH1 0x20 DUP4 ADD MSTORE PUSH2 0xAB8 DUP2 MLOAD DUP1 SWAP3 PUSH1 0x20 DUP7 DUP7 ADD SWAP2 ADD PUSH2 0x15FA JUMP JUMPDEST DUP2 ADD SUB PUSH1 0x1D DUP2 ADD DUP9 MSTORE ADD DUP7 PUSH2 0x16F9 JUMP JUMPDEST DUP3 PUSH1 0x0 MSTORE PUSH1 0xF PUSH1 0x20 MSTORE PUSH1 0x40 PUSH1 0x0 KECCAK256 SWAP1 DUP6 MLOAD PUSH8 0xFFFFFFFFFFFFFFFF DUP2 GT PUSH2 0xC13 JUMPI PUSH2 0xAF2 DUP4 SLOAD PUSH2 0x16A3 JUMP JUMPDEST PUSH1 0x1F DUP2 GT PUSH2 0xBCC JUMPI JUMPDEST POP PUSH1 0x20 SWAP7 DUP8 SWAP1 PUSH1 0x1F DUP4 GT PUSH1 0x1 EQ PUSH2 0xB6A JUMPI SWAP3 DUP3 SWAP4 SWAP2 DUP4 SWAP3 PUSH1 0x0 SWAP5 PUSH2 0xB5F JUMPI JUMPDEST POP POP SHL SWAP2 PUSH1 0x0 NOT SWAP1 PUSH1 0x3 SHL SHR NOT AND OR SWAP1 SSTORE JUMPDEST DUP2 PUSH1 0x40 MLOAD SWAP4 PUSH1 0x24 CALLDATALOAD SWAP3 AND PUSH32 0x3AB3E8AD6923A956799AE3FE031DFA1CB6A25C9743413B0C4CA812A87B02202A PUSH1 0x0 DUP1 LOG4 DUP2 MSTORE RETURN JUMPDEST ADD MLOAD SWAP3 POP DUP10 DUP1 PUSH2 0xB1A JUMP JUMPDEST SWAP1 PUSH1 0x1F NOT DUP4 AND SWAP2 DUP6 PUSH1 0x0 MSTORE DUP4 DUP11 PUSH1 0x0 KECCAK256 SWAP4 PUSH1 0x0 JUMPDEST DUP8 DUP3 DUP3 LT PUSH2 0xBB4 JUMPI POP POP LT PUSH2 0xB9B JUMPI JUMPDEST POP POP POP DUP2 SHL ADD SWAP1 SSTORE PUSH2 0xB2C JUMP JUMPDEST ADD MLOAD PUSH1 0x0 NOT PUSH1 0xF8 DUP5 PUSH1 0x3 SHL AND SHR NOT AND SWAP1 SSTORE DUP8 DUP1 DUP1 PUSH2 0xB8E JUMP JUMPDEST DUP5 DUP7 ADD MLOAD DUP8 SSTORE SWAP1 SWAP6 ADD SWAP5 SWAP4 DUP13 ADD SWAP4 DUP7 SWAP3 POP DUP13 ADD PUSH2 0xB7E JUMP JUMPDEST DUP4 PUSH1 0x0 MSTORE PUSH1 0x20 PUSH1 0x0 KECCAK256 PUSH1 0x1F DUP4 ADD PUSH1 0x5 SHR DUP2 ADD SWAP2 PUSH1 0x20 DUP5 LT PUSH2 0xC09 JUMPI JUMPDEST PUSH1 0x1F ADD PUSH1 0x5 SHR ADD SWAP1 JUMPDEST DUP2 DUP2 LT PUSH2 0xBFE JUMPI POP PUSH2 0xAFB JUMP JUMPDEST PUSH1 0x0 DUP2 SSTORE DUP4 ADD PUSH2 0xBF1 JUMP JUMPDEST SWAP1 SWAP2 POP DUP2 SWAP1 PUSH2 0xBE8 JUMP JUMPDEST PUSH4 0x4E487B71 PUSH1 0xE0 SHL PUSH1 0x0 MSTORE PUSH1 0x41 PUSH1 0x4 MSTORE PUSH1 0x24 PUSH1 0x0 REVERT JUMPDEST SWAP1 SWAP2 SWAP3 POP PUSH1 0xD PUSH1 0x0 MSTORE PUSH1 0x0 DUP1 MLOAD PUSH1 0x20 PUSH2 0x2275 DUP4 CODECOPY DUP2 MLOAD SWAP2 MSTORE DUP11 PUSH1 0x0 SWAP2 JUMPDEST DUP5 DUP4 LT PUSH2 0xC60 JUMPI POP POP POP DUP6 ADD ADD PUSH1 0xA6 ADD SWAP1 DUP4 PUSH2 0xA6F PUSH2 0x917 JUMP JUMPDEST SWAP1 DUP2 PUSH1 0x20 SWAP3 SLOAD PUSH1 0xA6 DUP6 DUP8 DUP14 ADD ADD ADD MSTORE ADD SWAP2 ADD SWAP1 DUP12 SWAP1 PUSH2 0xC46 JUMP JUMPDEST PUSH1 0xFF NOT AND SWAP2 DUP9 ADD PUSH1 0xA6 DUP2 DUP2 ADD SWAP4 SWAP1 SWAP4 MSTORE DUP4 ISZERO ISZERO SWAP1 SWAP4 MUL SWAP1 SWAP3 ADD ADD SWAP3 POP DUP5 SWAP1 POP PUSH2 0xA6F PUSH2 0x917 JUMP JUMPDEST PUSH1 0x64 PUSH1 0x40 MLOAD PUSH3 0x461BCD PUSH1 0xE5 SHL DUP2 MSTORE PUSH1 0x20 PUSH1 0x4 DUP3 ADD MSTORE PUSH1 0x20 PUSH1 0x24 DUP3 ADD MSTORE PUSH32 0x526563697069656E742063616E6E6F74206265207A65726F2061646472657373 PUSH1 0x44 DUP3 ADD MSTORE REVERT JUMPDEST PUSH1 0x40 MLOAD PUSH3 0x461BCD PUSH1 0xE5 SHL DUP2 MSTORE PUSH1 0x20 PUSH1 0x4 DUP3 ADD MSTORE PUSH1 0x21 PUSH1 0x24 DUP3 ADD MSTORE PUSH32 0x4F6E6C7920476F616C547261636B65722063616E206D696E7420726577617264 PUSH1 0x44 DUP3 ADD MSTORE PUSH1 0x73 PUSH1 0xF8 SHL PUSH1 0x64 DUP3 ADD MSTORE PUSH1 0x84 SWAP1 REVERT JUMPDEST CALLVALUE PUSH2 0x206 JUMPI PUSH1 0x20 DUP1 PUSH1 0x3 NOT CALLDATASIZE ADD SLT PUSH2 0x206 JUMPI PUSH8 0xFFFFFFFFFFFFFFFF SWAP1 PUSH1 0x4 CALLDATALOAD DUP3 DUP2 GT PUSH2 0x206 JUMPI PUSH2 0xD68 SWAP1 CALLDATASIZE SWAP1 PUSH1 0x4 ADD PUSH2 0x176E JUMP JUMPDEST SWAP1 PUSH2 0xD71 PUSH2 0x178C JUMP JUMPDEST DUP2 MLOAD SWAP3 DUP4 GT PUSH2 0xC13 JUMPI PUSH2 0xD85 PUSH1 0xD SLOAD PUSH2 0x16A3 JUMP JUMPDEST PUSH1 0x1F DUP2 GT PUSH2 0xE91 JUMPI JUMPDEST POP DUP1 SWAP3 PUSH1 0x1F DUP2 GT PUSH1 0x1 EQ PUSH2 0xE00 JUMPI DUP1 PUSH32 0x31CD199F0D1C8C972AB9EAB5E47D990D12E7C8E45F636403CDF29E71CDDB2BF8 SWAP5 PUSH1 0x0 SWAP2 PUSH2 0xDF5 JUMPI JUMPDEST POP DUP2 PUSH1 0x1 SHL SWAP2 PUSH1 0x0 NOT SWAP1 PUSH1 0x3 SHL SHR NOT AND OR PUSH1 0xD SSTORE JUMPDEST PUSH2 0xDF0 PUSH1 0x40 MLOAD SWAP3 DUP3 DUP5 SWAP4 DUP5 MSTORE DUP4 ADD SWAP1 PUSH2 0x161D JUMP JUMPDEST SUB SWAP1 LOG1 STOP JUMPDEST SWAP1 POP DUP4 ADD MLOAD DUP6 PUSH2 0xDC7 JUMP JUMPDEST PUSH1 0x1F NOT DUP2 AND SWAP4 PUSH1 0xD PUSH1 0x0 MSTORE PUSH1 0x0 DUP1 MLOAD PUSH1 0x20 PUSH2 0x2275 DUP4 CODECOPY DUP2 MLOAD SWAP2 MSTORE SWAP5 PUSH1 0x0 JUMPDEST DUP2 DUP2 LT PUSH2 0xE7A JUMPI POP SWAP5 DUP3 SWAP2 PUSH1 0x1 SWAP4 PUSH32 0x31CD199F0D1C8C972AB9EAB5E47D990D12E7C8E45F636403CDF29E71CDDB2BF8 SWAP8 LT PUSH2 0xE61 JUMPI JUMPDEST POP POP DUP2 SHL ADD PUSH1 0xD SSTORE PUSH2 0xDDC JUMP JUMPDEST DUP6 ADD MLOAD PUSH1 0x0 NOT PUSH1 0xF8 DUP5 PUSH1 0x3 SHL AND SHR NOT AND SWAP1 SSTORE DUP6 DUP1 PUSH2 0xE54 JUMP JUMPDEST DUP6 DUP4 ADD MLOAD DUP8 SSTORE PUSH1 0x1 SWAP1 SWAP7 ADD SWAP6 SWAP2 DUP5 ADD SWAP2 DUP5 ADD PUSH2 0xE1E JUMP JUMPDEST PUSH1 0xD PUSH1 0x0 MSTORE PUSH1 0x0 DUP1 MLOAD PUSH1 0x20 PUSH2 0x2275 DUP4 CODECOPY DUP2 MLOAD SWAP2 MSTORE PUSH1 0x1F DUP6 ADD PUSH1 0x5 SHR DUP2 ADD SWAP2 DUP4 DUP7 LT PUSH2 0xED9 JUMPI JUMPDEST PUSH1 0x1F ADD PUSH1 0x5 SHR ADD SWAP1 JUMPDEST DUP2 DUP2 LT PUSH2 0xECD JUMPI POP PUSH2 0xD8E JUMP JUMPDEST PUSH1 0x0 DUP2 SSTORE PUSH1 0x1 ADD PUSH2 0xEC0 JUMP JUMPDEST SWAP1 SWAP2 POP DUP2 SWAP1 PUSH2 0xEB7 JUMP JUMPDEST CALLVALUE PUSH2 0x206 JUMPI PUSH1 0x0 CALLDATASIZE PUSH1 0x3 NOT ADD SLT PUSH2 0x206 JUMPI PUSH1 0x40 MLOAD PUSH1 0x0 PUSH1 0xD SLOAD PUSH2 0xF05 DUP2 PUSH2 0x16A3 JUMP JUMPDEST DUP1 DUP5 MSTORE SWAP1 PUSH1 0x1 SWAP1 DUP2 DUP2 AND SWAP1 DUP2 ISZERO PUSH2 0x5F1 JUMPI POP PUSH1 0x1 EQ PUSH2 0xF2E JUMPI PUSH2 0x31B DUP5 PUSH2 0x584 DUP2 DUP7 SUB DUP3 PUSH2 0x16F9 JUMP JUMPDEST PUSH1 0xD PUSH1 0x0 SWAP1 DUP2 MSTORE SWAP3 POP PUSH1 0x0 DUP1 MLOAD PUSH1 0x20 PUSH2 0x2275 DUP4 CODECOPY DUP2 MLOAD SWAP2 MSTORE JUMPDEST DUP3 DUP5 LT PUSH2 0xF5F JUMPI POP POP POP DUP2 ADD PUSH1 0x20 ADD PUSH2 0x584 DUP3 PUSH2 0x574 JUMP JUMPDEST DUP1 SLOAD PUSH1 0x20 DUP6 DUP8 ADD DUP2 ADD SWAP2 SWAP1 SWAP2 MSTORE SWAP1 SWAP4 ADD SWAP3 DUP2 ADD PUSH2 0xF47 JUMP JUMPDEST CALLVALUE PUSH2 0x206 JUMPI PUSH1 0x0 CALLDATASIZE PUSH1 0x3 NOT ADD SLT PUSH2 0x206 JUMPI PUSH2 0xF90 PUSH2 0x178C JUMP JUMPDEST PUSH1 0xA DUP1 SLOAD PUSH1 0x1 PUSH1 0x1 PUSH1 0xA0 SHL SUB NOT DUP2 AND SWAP1 SWAP2 SSTORE PUSH1 0x0 SWAP1 PUSH1 0x1 PUSH1 0x1 PUSH1 0xA0 SHL SUB AND PUSH32 0x8BE0079C531659141344CD1FD0A4F28419497F9722A3DAAFE3B4186F6B6457E0 DUP3 DUP1 LOG3 STOP JUMPDEST CALLVALUE PUSH2 0x206 JUMPI PUSH1 0x20 CALLDATASIZE PUSH1 0x3 NOT ADD SLT PUSH2 0x206 JUMPI PUSH1 0x20 PUSH2 0xFF7 PUSH2 0xFF2 PUSH2 0x1642 JUMP JUMPDEST PUSH2 0x17E4 JUMP JUMPDEST PUSH1 0x40 MLOAD SWAP1 DUP2 MSTORE RETURN JUMPDEST CALLVALUE PUSH2 0x206 JUMPI PUSH1 0x20 CALLDATASIZE PUSH1 0x3 NOT ADD SLT PUSH2 0x206 JUMPI PUSH1 0x20 PUSH2 0x101D PUSH1 0x4 CALLDATALOAD PUSH2 0x18A7 JUMP JUMPDEST PUSH1 0x40 MLOAD PUSH1 0x1 PUSH1 0x1 PUSH1 0xA0 SHL SUB SWAP1 SWAP2 AND DUP2 MSTORE RETURN JUMPDEST CALLVALUE PUSH2 0x206 JUMPI PUSH1 0x20 CALLDATASIZE PUSH1 0x3 NOT ADD SLT PUSH2 0x206 JUMPI PUSH1 0x4 CALLDATALOAD PUSH1 0x8 SLOAD DUP2 LT ISZERO PUSH2 0x1066 JUMPI PUSH2 0x1058 PUSH1 0x20 SWAP2 PUSH2 0x1F0D JUMP JUMPDEST SWAP1 SLOAD PUSH1 0x40 MLOAD SWAP2 PUSH1 0x3 SHL SHR DUP2 MSTORE RETURN JUMPDEST PUSH1 0x40 MLOAD PUSH3 0x461BCD PUSH1 0xE5 SHL DUP2 MSTORE PUSH1 0x20 PUSH1 0x4 DUP3 ADD MSTORE PUSH1 0x2C PUSH1 0x24 DUP3 ADD MSTORE PUSH32 0x455243373231456E756D657261626C653A20676C6F62616C20696E646578206F PUSH1 0x44 DUP3 ADD MSTORE PUSH12 0x7574206F6620626F756E6473 PUSH1 0xA0 SHL PUSH1 0x64 DUP3 ADD MSTORE PUSH1 0x84 SWAP1 REVERT JUMPDEST CALLVALUE PUSH2 0x206 JUMPI PUSH2 0x465 PUSH2 0x460 PUSH2 0x10D4 CALLDATASIZE PUSH2 0x166E JUMP JUMPDEST SWAP1 PUSH1 0x40 MLOAD SWAP3 PUSH2 0x10E2 DUP5 PUSH2 0x16DD JUMP JUMPDEST PUSH1 0x0 DUP5 MSTORE PUSH2 0x450 PUSH2 0x44B DUP5 CALLER PUSH2 0x19E1 JUMP JUMPDEST CALLVALUE PUSH2 0x206 JUMPI PUSH1 0x20 DUP1 PUSH1 0x3 NOT CALLDATASIZE ADD SLT PUSH2 0x206 JUMPI PUSH2 0x110D PUSH2 0x1642 JUMP JUMPDEST PUSH2 0x1116 DUP2 PUSH2 0x17E4 JUMP JUMPDEST PUSH2 0x111F DUP2 PUSH2 0x225C JUMP JUMPDEST SWAP1 PUSH2 0x112D PUSH1 0x40 MLOAD SWAP3 DUP4 PUSH2 0x16F9 JUMP JUMPDEST DUP1 DUP3 MSTORE PUSH2 0x1139 DUP2 PUSH2 0x225C JUMP JUMPDEST DUP3 DUP6 ADD SWAP4 SWAP1 PUSH1 0x1F NOT ADD CALLDATASIZE DUP6 CALLDATACOPY PUSH1 0x0 JUMPDEST DUP3 DUP2 LT PUSH2 0x1193 JUMPI POP POP POP SWAP1 PUSH1 0x40 MLOAD SWAP3 DUP4 SWAP3 DUP2 DUP5 ADD SWAP1 DUP3 DUP6 MSTORE MLOAD DUP1 SWAP2 MSTORE PUSH1 0x40 DUP5 ADD SWAP3 SWAP2 PUSH1 0x0 JUMPDEST DUP3 DUP2 LT PUSH2 0x117C JUMPI POP POP POP POP SUB SWAP1 RETURN JUMPDEST DUP4 MLOAD DUP6 MSTORE DUP7 SWAP6 POP SWAP4 DUP2 ADD SWAP4 SWAP3 DUP2 ADD SWAP3 PUSH1 0x1 ADD PUSH2 0x116D JUMP JUMPDEST PUSH2 0x119D DUP2 DUP4 PUSH2 0x1E7F JUMP JUMPDEST DUP5 MLOAD DUP3 LT ISZERO PUSH2 0x11D6 JUMPI DUP7 DUP3 PUSH1 0x5 SHL DUP7 ADD ADD MSTORE PUSH1 0x0 NOT DUP2 EQ PUSH2 0x11C0 JUMPI PUSH1 0x1 ADD PUSH2 0x1148 JUMP JUMPDEST PUSH4 0x4E487B71 PUSH1 0xE0 SHL PUSH1 0x0 MSTORE PUSH1 0x11 PUSH1 0x4 MSTORE PUSH1 0x24 PUSH1 0x0 REVERT JUMPDEST PUSH4 0x4E487B71 PUSH1 0xE0 SHL PUSH1 0x0 MSTORE PUSH1 0x32 PUSH1 0x4 MSTORE PUSH1 0x24 PUSH1 0x0 REVERT JUMPDEST CALLVALUE PUSH2 0x206 JUMPI PUSH1 0x20 CALLDATASIZE PUSH1 0x3 NOT ADD SLT PUSH2 0x206 JUMPI PUSH2 0x1205 PUSH2 0x1642 JUMP JUMPDEST PUSH2 0x120D PUSH2 0x178C JUMP JUMPDEST PUSH1 0x1 PUSH1 0x1 PUSH1 0xA0 SHL SUB AND DUP1 ISZERO PUSH2 0x1255 JUMPI PUSH1 0xC DUP1 SLOAD PUSH1 0x1 PUSH1 0x1 PUSH1 0xA0 SHL SUB NOT AND DUP3 OR SWAP1 SSTORE PUSH32 0xE671735E9A8814F4B1D2B3B0CACC4EE2E1FBB075A76588FC28B7221BD3D76FD4 PUSH1 0x0 DUP1 LOG2 STOP JUMPDEST PUSH1 0x40 MLOAD PUSH3 0x461BCD PUSH1 0xE5 SHL DUP2 MSTORE PUSH1 0x20 PUSH1 0x4 DUP3 ADD MSTORE PUSH1 0x22 PUSH1 0x24 DUP3 ADD MSTORE PUSH32 0x476F616C547261636B65722063616E6E6F74206265207A65726F206164647265 PUSH1 0x44 DUP3 ADD MSTORE PUSH2 0x7373 PUSH1 0xF0 SHL PUSH1 0x64 DUP3 ADD MSTORE PUSH1 0x84 SWAP1 REVERT JUMPDEST CALLVALUE PUSH2 0x206 JUMPI PUSH1 0x20 CALLDATASIZE PUSH1 0x3 NOT ADD SLT PUSH2 0x206 JUMPI PUSH1 0x4 CALLDATALOAD PUSH1 0x0 MSTORE PUSH1 0xE PUSH1 0x20 MSTORE PUSH1 0x20 PUSH1 0x40 PUSH1 0x0 KECCAK256 SLOAD PUSH1 0x40 MLOAD SWAP1 DUP2 MSTORE RETURN JUMPDEST CALLVALUE PUSH2 0x206 JUMPI PUSH1 0x40 CALLDATASIZE PUSH1 0x3 NOT ADD SLT PUSH2 0x206 JUMPI PUSH1 0x20 PUSH2 0xFF7 PUSH2 0x12EF PUSH2 0x1642 JUMP JUMPDEST PUSH1 0x24 CALLDATALOAD SWAP1 PUSH2 0x1E7F JUMP JUMPDEST CALLVALUE PUSH2 0x206 JUMPI PUSH2 0x465 PUSH2 0x1309 CALLDATASIZE PUSH2 0x166E JUMP JUMPDEST SWAP2 PUSH2 0x1317 PUSH2 0x44B DUP5 CALLER PUSH2 0x19E1 JUMP JUMPDEST PUSH2 0x1AA9 JUMP JUMPDEST CALLVALUE PUSH2 0x206 JUMPI PUSH1 0x0 CALLDATASIZE PUSH1 0x3 NOT ADD SLT PUSH2 0x206 JUMPI PUSH1 0x20 PUSH1 0x8 SLOAD PUSH1 0x40 MLOAD SWAP1 DUP2 MSTORE RETURN JUMPDEST CALLVALUE PUSH2 0x206 JUMPI PUSH1 0x40 CALLDATASIZE PUSH1 0x3 NOT ADD SLT PUSH2 0x206 JUMPI PUSH2 0x1353 PUSH2 0x1642 JUMP JUMPDEST PUSH1 0x24 CALLDATALOAD SWAP1 PUSH1 0x1 PUSH1 0x1 PUSH1 0xA0 SHL SUB DUP1 DUP1 PUSH2 0x136A DUP6 PUSH2 0x18A7 JUMP JUMPDEST AND SWAP3 AND SWAP2 DUP1 DUP4 EQ PUSH2 0x1465 JUMPI DUP1 CALLER EQ SWAP1 DUP2 ISZERO PUSH2 0x1440 JUMPI JUMPDEST POP ISZERO PUSH2 0x13D5 JUMPI PUSH1 0x0 DUP4 DUP2 MSTORE PUSH1 0x4 PUSH1 0x20 MSTORE PUSH1 0x40 SWAP1 KECCAK256 DUP1 SLOAD PUSH1 0x1 PUSH1 0x1 PUSH1 0xA0 SHL SUB NOT AND DUP4 OR SWAP1 SSTORE PUSH2 0x13AD DUP4 PUSH2 0x18A7 JUMP JUMPDEST AND PUSH32 0x8C5BE1E5EBEC7D5BD14F71427D1E84F3DD0314C0F7B2291E5B200AC8C7C3B925 PUSH1 0x0 DUP1 LOG4 STOP JUMPDEST PUSH1 0x40 MLOAD PUSH3 0x461BCD PUSH1 0xE5 SHL DUP2 MSTORE PUSH1 0x20 PUSH1 0x4 DUP3 ADD MSTORE PUSH1 0x3D PUSH1 0x24 DUP3 ADD MSTORE PUSH32 0x4552433732313A20617070726F76652063616C6C6572206973206E6F7420746F PUSH1 0x44 DUP3 ADD MSTORE PUSH32 0x6B656E206F776E6572206F7220617070726F76656420666F7220616C6C000000 PUSH1 0x64 DUP3 ADD MSTORE PUSH1 0x84 SWAP1 REVERT JUMPDEST SWAP1 POP PUSH1 0x0 MSTORE PUSH1 0x5 PUSH1 0x20 MSTORE PUSH1 0x40 PUSH1 0x0 KECCAK256 CALLER PUSH1 0x0 MSTORE PUSH1 0x20 MSTORE PUSH1 0xFF PUSH1 0x40 PUSH1 0x0 KECCAK256 SLOAD AND DUP5 PUSH2 0x1380 JUMP JUMPDEST PUSH1 0x40 MLOAD PUSH3 0x461BCD PUSH1 0xE5 SHL DUP2 MSTORE PUSH1 0x20 PUSH1 0x4 DUP3 ADD MSTORE PUSH1 0x21 PUSH1 0x24 DUP3 ADD MSTORE PUSH32 0x4552433732313A20617070726F76616C20746F2063757272656E74206F776E65 PUSH1 0x44 DUP3 ADD MSTORE PUSH1 0x39 PUSH1 0xF9 SHL PUSH1 0x64 DUP3 ADD MSTORE PUSH1 0x84 SWAP1 REVERT JUMPDEST CALLVALUE PUSH2 0x206 JUMPI PUSH1 0x20 CALLDATASIZE PUSH1 0x3 NOT ADD SLT PUSH2 0x206 JUMPI PUSH1 0x20 PUSH2 0x101D PUSH1 0x4 CALLDATALOAD PUSH2 0x18CA JUMP JUMPDEST CALLVALUE PUSH2 0x206 JUMPI PUSH1 0x0 CALLDATASIZE PUSH1 0x3 NOT ADD SLT PUSH2 0x206 JUMPI PUSH1 0x40 MLOAD PUSH1 0x0 DUP1 SLOAD PUSH2 0x14F3 DUP2 PUSH2 0x16A3 JUMP JUMPDEST DUP1 DUP5 MSTORE SWAP1 PUSH1 0x1 SWAP1 DUP2 DUP2 AND SWAP1 DUP2 ISZERO PUSH2 0x5F1 JUMPI POP PUSH1 0x1 EQ PUSH2 0x151C JUMPI PUSH2 0x31B DUP5 PUSH2 0x584 DUP2 DUP7 SUB DUP3 PUSH2 0x16F9 JUMP JUMPDEST PUSH1 0x0 DUP1 DUP1 MSTORE SWAP3 POP PUSH32 0x290DECD9548B62A8D60345A988386FC84BA6BC95484008F6362F93160EF3E563 JUMPDEST DUP3 DUP5 LT PUSH2 0x155D JUMPI POP POP POP DUP2 ADD PUSH1 0x20 ADD PUSH2 0x584 DUP3 PUSH2 0x574 JUMP JUMPDEST DUP1 SLOAD PUSH1 0x20 DUP6 DUP8 ADD DUP2 ADD SWAP2 SWAP1 SWAP2 MSTORE SWAP1 SWAP4 ADD SWAP3 DUP2 ADD PUSH2 0x1545 JUMP JUMPDEST CALLVALUE PUSH2 0x206 JUMPI PUSH1 0x20 CALLDATASIZE PUSH1 0x3 NOT ADD SLT PUSH2 0x206 JUMPI PUSH1 0x4 CALLDATALOAD SWAP1 PUSH4 0xFFFFFFFF PUSH1 0xE0 SHL DUP3 AND DUP1 SWAP3 SUB PUSH2 0x206 JUMPI PUSH1 0x20 SWAP2 PUSH4 0x780E9D63 PUSH1 0xE0 SHL DUP2 EQ SWAP1 DUP2 ISZERO PUSH2 0x15B7 JUMPI JUMPDEST POP ISZERO ISZERO DUP2 MSTORE RETURN JUMPDEST PUSH4 0x80AC58CD PUSH1 0xE0 SHL DUP2 EQ SWAP2 POP DUP2 ISZERO PUSH2 0x15E9 JUMPI JUMPDEST DUP2 ISZERO PUSH2 0x15D8 JUMPI JUMPDEST POP DUP4 PUSH2 0x15B0 JUMP JUMPDEST PUSH4 0x1FFC9A7 PUSH1 0xE0 SHL EQ SWAP1 POP DUP4 PUSH2 0x15D1 JUMP JUMPDEST PUSH4 0x5B5E139F PUSH1 0xE0 SHL DUP2 EQ SWAP2 POP PUSH2 0x15CA JUMP JUMPDEST PUSH1 0x0 JUMPDEST DUP4 DUP2 LT PUSH2 0x160D JUMPI POP POP PUSH1 0x0 SWAP2 ADD MSTORE JUMP JUMPDEST DUP2 DUP2 ADD MLOAD DUP4 DUP3 ADD MSTORE PUSH1 0x20 ADD PUSH2 0x15FD JUMP JUMPDEST SWAP1 PUSH1 0x20 SWAP2 PUSH2 0x1636 DUP2 MLOAD DUP1 SWAP3 DUP2 DUP6 MSTORE DUP6 DUP1 DUP7 ADD SWAP2 ADD PUSH2 0x15FA JUMP JUMPDEST PUSH1 0x1F ADD PUSH1 0x1F NOT AND ADD ADD SWAP1 JUMP JUMPDEST PUSH1 0x4 CALLDATALOAD SWAP1 PUSH1 0x1 PUSH1 0x1 PUSH1 0xA0 SHL SUB DUP3 AND DUP3 SUB PUSH2 0x206 JUMPI JUMP JUMPDEST PUSH1 0x24 CALLDATALOAD SWAP1 PUSH1 0x1 PUSH1 0x1 PUSH1 0xA0 SHL SUB DUP3 AND DUP3 SUB PUSH2 0x206 JUMPI JUMP JUMPDEST PUSH1 0x60 SWAP1 PUSH1 0x3 NOT ADD SLT PUSH2 0x206 JUMPI PUSH1 0x1 PUSH1 0x1 PUSH1 0xA0 SHL SUB SWAP1 PUSH1 0x4 CALLDATALOAD DUP3 DUP2 AND DUP2 SUB PUSH2 0x206 JUMPI SWAP2 PUSH1 0x24 CALLDATALOAD SWAP1 DUP2 AND DUP2 SUB PUSH2 0x206 JUMPI SWAP1 PUSH1 0x44 CALLDATALOAD SWAP1 JUMP JUMPDEST SWAP1 PUSH1 0x1 DUP3 DUP2 SHR SWAP3 AND DUP1 ISZERO PUSH2 0x16D3 JUMPI JUMPDEST PUSH1 0x20 DUP4 LT EQ PUSH2 0x16BD JUMPI JUMP JUMPDEST PUSH4 0x4E487B71 PUSH1 0xE0 SHL PUSH1 0x0 MSTORE PUSH1 0x22 PUSH1 0x4 MSTORE PUSH1 0x24 PUSH1 0x0 REVERT JUMPDEST SWAP2 PUSH1 0x7F AND SWAP2 PUSH2 0x16B2 JUMP JUMPDEST PUSH1 0x20 DUP2 ADD SWAP1 DUP2 LT PUSH8 0xFFFFFFFFFFFFFFFF DUP3 GT OR PUSH2 0xC13 JUMPI PUSH1 0x40 MSTORE JUMP JUMPDEST SWAP1 PUSH1 0x1F DUP1 NOT SWAP2 ADD AND DUP2 ADD SWAP1 DUP2 LT PUSH8 0xFFFFFFFFFFFFFFFF DUP3 GT OR PUSH2 0xC13 JUMPI PUSH1 0x40 MSTORE JUMP JUMPDEST PUSH8 0xFFFFFFFFFFFFFFFF DUP2 GT PUSH2 0xC13 JUMPI PUSH1 0x1F ADD PUSH1 0x1F NOT AND PUSH1 0x20 ADD SWAP1 JUMP JUMPDEST SWAP3 SWAP2 SWAP3 PUSH2 0x1743 DUP3 PUSH2 0x171B JUMP JUMPDEST SWAP2 PUSH2 0x1751 PUSH1 0x40 MLOAD SWAP4 DUP5 PUSH2 0x16F9 JUMP JUMPDEST DUP3 SWAP5 DUP2 DUP5 MSTORE DUP2 DUP4 ADD GT PUSH2 0x206 JUMPI DUP3 DUP2 PUSH1 0x20 SWAP4 DUP5 PUSH1 0x0 SWAP7 ADD CALLDATACOPY ADD ADD MSTORE JUMP JUMPDEST SWAP1 DUP1 PUSH1 0x1F DUP4 ADD SLT ISZERO PUSH2 0x206 JUMPI DUP2 PUSH1 0x20 PUSH2 0x1789 SWAP4 CALLDATALOAD SWAP2 ADD PUSH2 0x1737 JUMP JUMPDEST SWAP1 JUMP JUMPDEST PUSH1 0xA SLOAD PUSH1 0x1 PUSH1 0x1 PUSH1 0xA0 SHL SUB AND CALLER SUB PUSH2 0x17A0 JUMPI JUMP JUMPDEST PUSH1 0x64 PUSH1 0x40 MLOAD PUSH3 0x461BCD PUSH1 0xE5 SHL DUP2 MSTORE PUSH1 0x20 PUSH1 0x4 DUP3 ADD MSTORE PUSH1 0x20 PUSH1 0x24 DUP3 ADD MSTORE PUSH32 0x4F776E61626C653A2063616C6C6572206973206E6F7420746865206F776E6572 PUSH1 0x44 DUP3 ADD MSTORE REVERT JUMPDEST PUSH1 0x1 PUSH1 0x1 PUSH1 0xA0 SHL SUB AND DUP1 ISZERO PUSH2 0x1804 JUMPI PUSH1 0x0 MSTORE PUSH1 0x3 PUSH1 0x20 MSTORE PUSH1 0x40 PUSH1 0x0 KECCAK256 SLOAD SWAP1 JUMP JUMPDEST PUSH1 0x40 MLOAD PUSH3 0x461BCD PUSH1 0xE5 SHL DUP2 MSTORE PUSH1 0x20 PUSH1 0x4 DUP3 ADD MSTORE PUSH1 0x29 PUSH1 0x24 DUP3 ADD MSTORE PUSH32 0x4552433732313A2061646472657373207A65726F206973206E6F742061207661 PUSH1 0x44 DUP3 ADD MSTORE PUSH9 0x3634B21037BBB732B9 PUSH1 0xB9 SHL PUSH1 0x64 DUP3 ADD MSTORE PUSH1 0x84 SWAP1 REVERT JUMPDEST ISZERO PUSH2 0x1862 JUMPI JUMP JUMPDEST PUSH1 0x40 MLOAD PUSH3 0x461BCD PUSH1 0xE5 SHL DUP2 MSTORE PUSH1 0x20 PUSH1 0x4 DUP3 ADD MSTORE PUSH1 0x18 PUSH1 0x24 DUP3 ADD MSTORE PUSH32 0x4552433732313A20696E76616C696420746F6B656E2049440000000000000000 PUSH1 0x44 DUP3 ADD MSTORE PUSH1 0x64 SWAP1 REVERT JUMPDEST PUSH1 0x0 SWAP1 DUP2 MSTORE PUSH1 0x2 PUSH1 0x20 MSTORE PUSH1 0x40 SWAP1 KECCAK256 SLOAD PUSH1 0x1 PUSH1 0x1 PUSH1 0xA0 SHL SUB AND PUSH2 0x1789 DUP2 ISZERO ISZERO PUSH2 0x185B JUMP JUMPDEST PUSH1 0x0 DUP2 DUP2 MSTORE PUSH1 0x2 PUSH1 0x20 MSTORE PUSH1 0x40 SWAP1 KECCAK256 SLOAD PUSH2 0x18ED SWAP1 PUSH1 0x1 PUSH1 0x1 PUSH1 0xA0 SHL SUB AND ISZERO ISZERO PUSH2 0x185B JUMP JUMPDEST PUSH1 0x0 SWAP1 DUP2 MSTORE PUSH1 0x4 PUSH1 0x20 MSTORE PUSH1 0x40 SWAP1 KECCAK256 SLOAD PUSH1 0x1 PUSH1 0x1 PUSH1 0xA0 SHL SUB AND SWAP1 JUMP JUMPDEST ISZERO PUSH2 0x190F JUMPI JUMP JUMPDEST PUSH1 0x40 MLOAD PUSH3 0x461BCD PUSH1 0xE5 SHL DUP2 MSTORE PUSH1 0x20 PUSH1 0x4 DUP3 ADD MSTORE PUSH1 0x2D PUSH1 0x24 DUP3 ADD MSTORE PUSH32 0x4552433732313A2063616C6C6572206973206E6F7420746F6B656E206F776E65 PUSH1 0x44 DUP3 ADD MSTORE PUSH13 0x1C881BDC88185C1C1C9BDD9959 PUSH1 0x9A SHL PUSH1 0x64 DUP3 ADD MSTORE PUSH1 0x84 SWAP1 REVERT JUMPDEST PUSH1 0x80 SWAP1 PUSH1 0x20 DUP2 MSTORE PUSH1 0x32 PUSH1 0x20 DUP3 ADD MSTORE PUSH32 0x4552433732313A207472616E7366657220746F206E6F6E204552433732315265 PUSH1 0x40 DUP3 ADD MSTORE PUSH18 0x31B2B4BB32B91034B6B83632B6B2B73A32B9 PUSH1 0x71 SHL PUSH1 0x60 DUP3 ADD MSTORE ADD SWAP1 JUMP JUMPDEST ISZERO PUSH2 0x19C4 JUMPI JUMP JUMPDEST PUSH1 0x40 MLOAD PUSH3 0x461BCD PUSH1 0xE5 SHL DUP2 MSTORE DUP1 PUSH2 0x19DD PUSH1 0x4 DUP3 ADD PUSH2 0x196A JUMP JUMPDEST SUB SWAP1 REVERT JUMPDEST SWAP1 PUSH1 0x1 PUSH1 0x1 PUSH1 0xA0 SHL SUB DUP1 DUP1 PUSH2 0x19F5 DUP5 PUSH2 0x18A7 JUMP JUMPDEST AND SWAP4 AND SWAP2 DUP4 DUP4 EQ SWAP4 DUP5 ISZERO PUSH2 0x1A28 JUMPI JUMPDEST POP DUP4 ISZERO PUSH2 0x1A12 JUMPI JUMPDEST POP POP POP SWAP1 JUMP JUMPDEST PUSH2 0x1A1E SWAP2 SWAP3 SWAP4 POP PUSH2 0x18CA JUMP JUMPDEST AND EQ CODESIZE DUP1 DUP1 PUSH2 0x1A0C JUMP JUMPDEST SWAP1 SWAP4 POP PUSH1 0x0 MSTORE PUSH1 0x5 PUSH1 0x20 MSTORE PUSH1 0x40 PUSH1 0x0 KECCAK256 DUP3 PUSH1 0x0 MSTORE PUSH1 0x20 MSTORE PUSH1 0xFF PUSH1 0x40 PUSH1 0x0 KECCAK256 SLOAD AND SWAP3 CODESIZE PUSH2 0x1A04 JUMP JUMPDEST ISZERO PUSH2 0x1A56 JUMPI JUMP JUMPDEST PUSH1 0x40 MLOAD PUSH3 0x461BCD PUSH1 0xE5 SHL DUP2 MSTORE PUSH1 0x20 PUSH1 0x4 DUP3 ADD MSTORE PUSH1 0x25 PUSH1 0x24 DUP3 ADD MSTORE PUSH32 0x4552433732313A207472616E736665722066726F6D20696E636F727265637420 PUSH1 0x44 DUP3 ADD MSTORE PUSH5 0x37BBB732B9 PUSH1 0xD9 SHL PUSH1 0x64 DUP3 ADD MSTORE PUSH1 0x84 SWAP1 REVERT JUMPDEST PUSH2 0x1ACD SWAP2 PUSH2 0x1AB6 DUP5 PUSH2 0x18A7 JUMP JUMPDEST PUSH1 0x1 PUSH1 0x1 PUSH1 0xA0 SHL SUB SWAP4 DUP5 DUP5 AND SWAP4 SWAP2 DUP6 AND DUP5 EQ PUSH2 0x1A4F JUMP JUMPDEST DUP4 DUP3 AND SWAP4 DUP5 ISZERO PUSH2 0x1C89 JUMPI DUP4 SWAP2 DUP3 PUSH2 0x1BE6 JUMPI POP SWAP1 POP PUSH1 0x8 SLOAD SWAP1 DUP6 PUSH1 0x0 MSTORE PUSH1 0x9 PUSH1 0x20 MSTORE DUP2 PUSH1 0x40 PUSH1 0x0 KECCAK256 SSTORE PUSH1 0x1 PUSH1 0x40 SHL DUP3 LT ISZERO PUSH2 0xC13 JUMPI PUSH2 0x1B33 SWAP3 PUSH2 0x1B1A DUP8 PUSH2 0x711 DUP6 PUSH1 0x1 DUP10 SWAP8 ADD PUSH1 0x8 SSTORE PUSH2 0x1F0D JUMP JUMPDEST DUP3 DUP7 SUB PUSH2 0x1BB3 JUMPI JUMPDEST POP PUSH2 0x1B2C DUP7 PUSH2 0x18A7 JUMP JUMPDEST AND EQ PUSH2 0x1A4F JUMP JUMPDEST PUSH32 0xDDF252AD1BE2C89B69C2B068FC378DAA952BA7F163C4A11628F55A4DF523B3EF PUSH1 0x0 DUP5 DUP2 MSTORE PUSH1 0x4 PUSH1 0x20 MSTORE PUSH1 0x40 DUP2 KECCAK256 PUSH12 0xFFFFFFFFFFFFFFFFFFFFFFFF PUSH1 0xA0 SHL SWAP1 DUP2 DUP2 SLOAD AND SWAP1 SSTORE DUP4 DUP3 MSTORE PUSH1 0x3 PUSH1 0x20 MSTORE PUSH1 0x40 DUP3 KECCAK256 PUSH1 0x0 NOT DUP2 SLOAD ADD SWAP1 SSTORE DUP5 DUP3 MSTORE PUSH1 0x40 DUP3 KECCAK256 PUSH1 0x1 DUP2 SLOAD ADD SWAP1 SSTORE DUP6 DUP3 MSTORE PUSH1 0x2 PUSH1 0x20 MSTORE DUP5 PUSH1 0x40 DUP4 KECCAK256 SWAP2 DUP3 SLOAD AND OR SWAP1 SSTORE DUP1 LOG4 JUMP JUMPDEST PUSH2 0x1BBC SWAP1 PUSH2 0x17E4 JUMP JUMPDEST PUSH1 0x40 PUSH1 0x0 DUP8 DUP2 MSTORE PUSH1 0x6 PUSH1 0x20 MSTORE DUP2 DUP2 KECCAK256 DUP4 DUP3 MSTORE PUSH1 0x20 MSTORE DUP9 DUP3 DUP3 KECCAK256 SSTORE DUP9 DUP2 MSTORE PUSH1 0x7 PUSH1 0x20 MSTORE KECCAK256 SSTORE CODESIZE PUSH2 0x1B22 JUMP JUMPDEST DUP6 DUP4 SUB PUSH2 0x1BF8 JUMPI JUMPDEST POP PUSH2 0x1B33 SWAP3 PUSH2 0x1B1A JUMP JUMPDEST PUSH2 0x1C03 SWAP2 SWAP3 POP PUSH2 0x17E4 JUMP JUMPDEST PUSH1 0x0 NOT DUP2 ADD SWAP2 SWAP1 DUP3 GT PUSH2 0x11C0 JUMPI PUSH2 0x1B33 SWAP3 DUP5 SWAP3 PUSH1 0x0 SWAP1 DUP9 DUP3 MSTORE PUSH1 0x20 SWAP1 PUSH1 0x7 DUP3 MSTORE PUSH1 0x40 SWAP2 DUP3 DUP5 KECCAK256 SLOAD DUP3 DUP2 SUB PUSH2 0x1C52 JUMPI JUMPDEST POP DUP11 DUP5 MSTORE DUP4 DUP4 DUP2 KECCAK256 SSTORE DUP7 DUP5 MSTORE PUSH1 0x6 DUP2 MSTORE DUP3 DUP5 KECCAK256 SWAP2 DUP5 MSTORE MSTORE DUP2 KECCAK256 SSTORE SWAP3 PUSH2 0x1BEE JUMP JUMPDEST DUP8 DUP6 MSTORE PUSH1 0x6 DUP3 MSTORE DUP4 DUP6 KECCAK256 DUP4 DUP7 MSTORE DUP3 MSTORE DUP4 DUP6 KECCAK256 SLOAD DUP9 DUP7 MSTORE PUSH1 0x6 DUP4 MSTORE DUP5 DUP7 KECCAK256 DUP3 DUP8 MSTORE DUP4 MSTORE DUP1 DUP6 DUP8 KECCAK256 SSTORE DUP6 MSTORE PUSH1 0x7 DUP3 MSTORE DUP4 DUP6 KECCAK256 SSTORE CODESIZE PUSH2 0x1C32 JUMP JUMPDEST PUSH1 0x40 MLOAD PUSH3 0x461BCD PUSH1 0xE5 SHL DUP2 MSTORE PUSH1 0x20 PUSH1 0x4 DUP3 ADD MSTORE PUSH1 0x24 DUP1 DUP3 ADD MSTORE PUSH32 0x4552433732313A207472616E7366657220746F20746865207A65726F20616464 PUSH1 0x44 DUP3 ADD MSTORE PUSH4 0x72657373 PUSH1 0xE0 SHL PUSH1 0x64 DUP3 ADD MSTORE PUSH1 0x84 SWAP1 REVERT JUMPDEST SWAP2 SWAP3 SWAP1 SWAP2 DUP1 EXTCODESIZE ISZERO PUSH2 0x1DEF JUMPI PUSH2 0x1D27 SWAP4 PUSH1 0x40 MLOAD SWAP1 DUP2 PUSH4 0xA85BD01 PUSH1 0xE1 SHL SWAP4 DUP5 DUP3 MSTORE CALLER PUSH1 0x4 DUP4 ADD MSTORE PUSH1 0x0 SWAP7 DUP8 PUSH1 0x24 DUP5 ADD MSTORE PUSH1 0x44 DUP4 ADD MSTORE PUSH1 0x80 PUSH1 0x64 DUP4 ADD MSTORE DUP2 DUP8 DUP2 PUSH1 0x20 SWAP11 DUP12 SWAP7 PUSH1 0x84 DUP4 ADD SWAP1 PUSH2 0x161D JUMP JUMPDEST SUB SWAP3 PUSH1 0x1 PUSH1 0x1 PUSH1 0xA0 SHL SUB AND GAS CALL DUP5 SWAP2 DUP2 PUSH2 0x1DAB JUMPI JUMPDEST POP PUSH2 0x1D9A JUMPI POP POP POP RETURNDATASIZE PUSH1 0x0 EQ PUSH2 0x1D92 JUMPI RETURNDATASIZE PUSH2 0x1D56 DUP2 PUSH2 0x171B JUMP JUMPDEST SWAP1 PUSH2 0x1D64 PUSH1 0x40 MLOAD SWAP3 DUP4 PUSH2 0x16F9 JUMP JUMPDEST DUP2 MSTORE DUP1 SWAP2 DUP4 RETURNDATASIZE SWAP3 ADD RETURNDATACOPY JUMPDEST DUP1 MLOAD SWAP2 DUP3 PUSH2 0x1D8F JUMPI PUSH1 0x40 MLOAD PUSH3 0x461BCD PUSH1 0xE5 SHL DUP2 MSTORE DUP1 PUSH2 0x19DD PUSH1 0x4 DUP3 ADD PUSH2 0x196A JUMP JUMPDEST ADD REVERT JUMPDEST POP PUSH1 0x60 PUSH2 0x1D6E JUMP JUMPDEST PUSH1 0x1 PUSH1 0x1 PUSH1 0xE0 SHL SUB NOT AND EQ SWAP3 POP SWAP1 POP JUMP JUMPDEST SWAP1 SWAP2 POP DUP6 DUP2 DUP2 RETURNDATASIZE DUP4 GT PUSH2 0x1DE8 JUMPI JUMPDEST PUSH2 0x1DC3 DUP2 DUP4 PUSH2 0x16F9 JUMP JUMPDEST DUP2 ADD SUB SLT PUSH2 0x1DE4 JUMPI MLOAD PUSH1 0x1 PUSH1 0x1 PUSH1 0xE0 SHL SUB NOT DUP2 AND DUP2 SUB PUSH2 0x1DE4 JUMPI SWAP1 CODESIZE PUSH2 0x1D3C JUMP JUMPDEST DUP5 DUP1 REVERT JUMPDEST POP RETURNDATASIZE PUSH2 0x1DB9 JUMP JUMPDEST POP SWAP2 POP POP PUSH1 0x1 SWAP1 JUMP JUMPDEST SWAP3 SWAP4 SWAP2 SWAP1 DUP1 EXTCODESIZE ISZERO PUSH2 0x1E75 JUMPI PUSH2 0x1E4A SWAP5 PUSH1 0x40 MLOAD DUP1 SWAP3 PUSH4 0xA85BD01 PUSH1 0xE1 SHL SWAP5 DUP6 DUP4 MSTORE CALLER PUSH1 0x4 DUP5 ADD MSTORE PUSH1 0x1 DUP1 PUSH1 0xA0 SHL SUB DUP1 SWAP9 AND PUSH1 0x24 DUP5 ADD MSTORE PUSH1 0x44 DUP4 ADD MSTORE PUSH1 0x80 PUSH1 0x64 DUP4 ADD MSTORE DUP2 DUP1 PUSH1 0x20 SWAP10 DUP11 SWAP6 PUSH1 0x84 DUP4 ADD SWAP1 PUSH2 0x161D JUMP JUMPDEST SUB SWAP2 PUSH1 0x0 SWAP9 DUP10 SWAP2 AND GAS CALL DUP5 SWAP2 DUP2 PUSH2 0x1DAB JUMPI POP PUSH2 0x1D9A JUMPI POP POP POP RETURNDATASIZE PUSH1 0x0 EQ PUSH2 0x1D92 JUMPI RETURNDATASIZE PUSH2 0x1D56 DUP2 PUSH2 0x171B JUMP JUMPDEST POP POP SWAP2 POP POP PUSH1 0x1 SWAP1 JUMP JUMPDEST PUSH2 0x1E88 DUP2 PUSH2 0x17E4 JUMP JUMPDEST DUP3 LT ISZERO PUSH2 0x1EB4 JUMPI PUSH1 0x1 DUP1 PUSH1 0xA0 SHL SUB AND PUSH1 0x0 MSTORE PUSH1 0x6 PUSH1 0x20 MSTORE PUSH1 0x40 PUSH1 0x0 KECCAK256 SWAP1 PUSH1 0x0 MSTORE PUSH1 0x20 MSTORE PUSH1 0x40 PUSH1 0x0 KECCAK256 SLOAD SWAP1 JUMP JUMPDEST PUSH1 0x40 MLOAD PUSH3 0x461BCD PUSH1 0xE5 SHL DUP2 MSTORE PUSH1 0x20 PUSH1 0x4 DUP3 ADD MSTORE PUSH1 0x2B PUSH1 0x24 DUP3 ADD MSTORE PUSH32 0x455243373231456E756D657261626C653A206F776E657220696E646578206F75 PUSH1 0x44 DUP3 ADD MSTORE PUSH11 0x74206F6620626F756E6473 PUSH1 0xA8 SHL PUSH1 0x64 DUP3 ADD MSTORE PUSH1 0x84 SWAP1 REVERT JUMPDEST PUSH1 0x8 SLOAD DUP2 LT ISZERO PUSH2 0x11D6 JUMPI PUSH1 0x8 PUSH1 0x0 MSTORE PUSH32 0xF3F7A9FE364FAAB93B216DA50A3214154F22A0A2B415B23A84C8169E8B636EE3 ADD SWAP1 PUSH1 0x0 SWAP1 JUMP JUMPDEST ISZERO PUSH2 0x1F4B JUMPI JUMP JUMPDEST PUSH1 0x40 MLOAD PUSH3 0x461BCD PUSH1 0xE5 SHL DUP2 MSTORE PUSH1 0x20 PUSH1 0x4 DUP3 ADD MSTORE PUSH1 0x1C PUSH1 0x24 DUP3 ADD MSTORE PUSH32 0x4552433732313A20746F6B656E20616C7265616479206D696E74656400000000 PUSH1 0x44 DUP3 ADD MSTORE PUSH1 0x64 SWAP1 REVERT JUMPDEST SWAP1 PUSH2 0x1F9A DUP3 PUSH2 0x171B JUMP JUMPDEST PUSH2 0x1FA7 PUSH1 0x40 MLOAD SWAP2 DUP3 PUSH2 0x16F9 JUMP JUMPDEST DUP3 DUP2 MSTORE DUP1 SWAP3 PUSH2 0x1FB8 PUSH1 0x1F NOT SWAP2 PUSH2 0x171B JUMP JUMPDEST ADD SWAP1 PUSH1 0x20 CALLDATASIZE SWAP2 ADD CALLDATACOPY JUMP JUMPDEST DUP1 MLOAD ISZERO PUSH2 0x2105 JUMPI PUSH1 0x40 MLOAD PUSH1 0x60 DUP2 ADD DUP2 DUP2 LT PUSH8 0xFFFFFFFFFFFFFFFF DUP3 GT OR PUSH2 0xC13 JUMPI PUSH1 0x40 MSTORE PUSH1 0x40 DUP2 MSTORE PUSH32 0x4142434445464748494A4B4C4D4E4F505152535455565758595A616263646566 PUSH1 0x20 DUP3 ADD MSTORE PUSH32 0x6768696A6B6C6D6E6F707172737475767778797A303132333435363738392B2F PUSH1 0x40 DUP3 ADD MSTORE DUP2 MLOAD PUSH1 0x2 SWAP3 DUP4 DUP3 ADD DUP1 SWAP3 GT PUSH2 0x11C0 JUMPI PUSH1 0x3 SWAP2 DUP3 SWAP1 DIV PUSH1 0x1 PUSH1 0x1 PUSH1 0xFE SHL SUB DUP2 AND DUP2 SUB PUSH2 0x11C0 JUMPI PUSH2 0x2068 SWAP1 DUP6 SWAP5 SWAP6 SHL PUSH2 0x1F90 JUMP JUMPDEST SWAP4 PUSH1 0x20 DUP6 ADD SWAP4 DUP3 SWAP2 DUP4 MLOAD DUP5 ADD SWAP3 JUMPDEST DUP4 DUP2 LT PUSH2 0x20B4 JUMPI POP POP POP POP MLOAD MOD DUP1 PUSH1 0x1 EQ PUSH2 0x20A1 JUMPI PUSH1 0x2 EQ PUSH2 0x2096 JUMPI POP SWAP1 JUMP JUMPDEST PUSH1 0x3D SWAP1 PUSH1 0x0 NOT ADD MSTORE8 SWAP1 JUMP JUMPDEST POP PUSH1 0x3D SWAP1 DUP2 PUSH1 0x0 NOT DUP3 ADD MSTORE8 PUSH1 0x1 NOT ADD MSTORE8 SWAP1 JUMP JUMPDEST DUP6 PUSH1 0x4 SWAP2 SWAP8 SWAP3 SWAP4 SWAP5 SWAP8 ADD SWAP2 DUP3 MLOAD PUSH1 0x1 SWAP1 PUSH1 0x3F SWAP1 DUP3 DUP3 DUP3 PUSH1 0x12 SHR AND DUP9 ADD ADD MLOAD DUP5 MSTORE8 DUP3 DUP3 DUP3 PUSH1 0xC SHR AND DUP9 ADD ADD MLOAD DUP4 DUP6 ADD MSTORE8 DUP3 DUP3 DUP3 PUSH1 0x6 SHR AND DUP9 ADD ADD MLOAD DUP9 DUP6 ADD MSTORE8 AND DUP6 ADD ADD MLOAD DUP8 DUP3 ADD MSTORE8 ADD SWAP6 SWAP3 SWAP2 SWAP1 PUSH2 0x2076 JUMP JUMPDEST POP PUSH1 0x40 MLOAD PUSH2 0x2112 DUP2 PUSH2 0x16DD JUMP JUMPDEST PUSH1 0x0 DUP2 MSTORE SWAP1 JUMP JUMPDEST DUP1 PUSH1 0x0 SWAP2 PUSH27 0x184F03E93FF9F4DAA797ED6E38ED64BF6A1F010000000000000000 DUP1 DUP3 LT ISZERO PUSH2 0x224E JUMPI JUMPDEST POP PUSH14 0x4EE2D6D415B85ACEF8100000000 DUP1 DUP4 LT ISZERO PUSH2 0x223F JUMPI JUMPDEST POP PUSH7 0x2386F26FC10000 DUP1 DUP4 LT ISZERO PUSH2 0x2230 JUMPI JUMPDEST POP PUSH4 0x5F5E100 DUP1 DUP4 LT ISZERO PUSH2 0x2221 JUMPI JUMPDEST POP PUSH2 0x2710 DUP1 DUP4 LT ISZERO PUSH2 0x2212 JUMPI JUMPDEST POP PUSH1 0x64 DUP3 LT ISZERO PUSH2 0x2202 JUMPI JUMPDEST PUSH1 0xA DUP1 SWAP3 LT ISZERO PUSH2 0x21F8 JUMPI JUMPDEST PUSH1 0x1 SWAP1 DUP2 PUSH1 0x21 PUSH2 0x21B0 DUP3 DUP8 ADD PUSH2 0x1F90 JUMP JUMPDEST SWAP6 DUP7 ADD ADD SWAP1 JUMPDEST PUSH2 0x21C2 JUMPI JUMPDEST POP POP POP POP SWAP1 JUMP JUMPDEST PUSH1 0x0 NOT ADD SWAP1 DUP4 SWAP1 PUSH16 0x181899199A1A9B1B9C1CB0B131B232B3 PUSH1 0x81 SHL DUP3 DUP3 MOD BYTE DUP4 MSTORE8 DIV SWAP2 DUP3 ISZERO PUSH2 0x21F3 JUMPI SWAP2 SWAP1 DUP3 PUSH2 0x21B6 JUMP JUMPDEST PUSH2 0x21BB JUMP JUMPDEST SWAP2 PUSH1 0x1 ADD SWAP2 PUSH2 0x219F JUMP JUMPDEST SWAP2 SWAP1 PUSH1 0x64 PUSH1 0x2 SWAP2 DIV SWAP2 ADD SWAP2 PUSH2 0x2194 JUMP JUMPDEST PUSH1 0x4 SWAP2 SWAP4 SWAP3 DIV SWAP2 ADD SWAP2 CODESIZE PUSH2 0x2189 JUMP JUMPDEST PUSH1 0x8 SWAP2 SWAP4 SWAP3 DIV SWAP2 ADD SWAP2 CODESIZE PUSH2 0x217C JUMP JUMPDEST PUSH1 0x10 SWAP2 SWAP4 SWAP3 DIV SWAP2 ADD SWAP2 CODESIZE PUSH2 0x216D JUMP JUMPDEST PUSH1 0x20 SWAP2 SWAP4 SWAP3 DIV SWAP2 ADD SWAP2 CODESIZE PUSH2 0x215B JUMP JUMPDEST PUSH1 0x40 SWAP4 POP DUP2 DIV SWAP2 POP CODESIZE PUSH2 0x2142 JUMP JUMPDEST PUSH8 0xFFFFFFFFFFFFFFFF DUP2 GT PUSH2 0xC13 JUMPI PUSH1 0x5 SHL PUSH1 0x20 ADD SWAP1 JUMP INVALID 0xD7 0xB6 SWAP10 ADD SDIV PUSH18 0x9101DABEB77144F2A3385C8033ACD3AF97E9 TIMESTAMP GASPRICE PUSH10 0x5E81AD1EB5A264697066 PUSH20 0x58221220BBE8AF4E3754C6E042D74D28A880B61F 0xBD PUSH2 0x6B30 GAS 0xCE 0xBE 0xD6 PUSH29 0xE1BFBAB5086C1464736F6C634300081400330000000000000000000000 "},"methodIdentifiers":{"approve(address,uint256)":"095ea7b3","balanceOf(address)":"70a08231","baseImageURI()":"74f82e30","getApproved(uint256)":"081812fc","getTokensByOwner(address)":"40398d67","goalTracker()":"d28fb950","isApprovedForAll(address,address)":"e985e9c5","mintReward(address,uint256,string)":"891197a8","name()":"06fdde03","owner()":"8da5cb5b","ownerOf(uint256)":"6352211e","renounceOwnership()":"715018a6","safeTransferFrom(address,address,uint256)":"42842e0e","safeTransferFrom(address,address,uint256,bytes)":"b88d4fde","setApprovalForAll(address,bool)":"a22cb465","setBaseImageURI(string)":"8647ca76","setGoalTracker(address)":"36e3ef30","supportsInterface(bytes4)":"01ffc9a7","symbol()":"95d89b41","tokenByIndex(uint256)":"4f6ccce7","tokenOfOwnerByIndex(address,uint256)":"2f745c59","tokenToGoalId(uint256)":"345ff8ec","tokenURI(uint256)":"c87b56dd","totalSupply()":"18160ddd","transferFrom(address,address,uint256)":"23b872dd","transferOwnership(address)":"f2fde38b"}}}}}