{"contracts/GoalTracker.sol":{"GoalTracker":{"abi":[{"inputs":[{"internalType":"address","name":"_feeCollector","type":"address"},{"internalType":"address","name":"_goalNFT","type":"address"}],"stateMutability":"nonpayable","type":"constructor"},{"anonymous":false,"inputs":[{"indexed":true,"internalType":"uint256","name":"goalId","type":"uint256"},{"indexed":true,"internalType":"address","name":"depositor","type":"address"},{"indexed":false,"internalType":"uint256","name":"amount","type":"uint256"}],"name":"Deposit","type":"event"},{"anonymous":false,"inputs":[{"indexed":false,"internalType":"address","name":"newFeeCollector","type":"address"}],"name":"FeeCollectorUpdated","type":"event"},{"anonymous":false,"inputs":[{"indexed":true,"internalType":"uint256","name":"goalId","type":"uint256"},{"indexed":true,"internalType":"address","name":"owner","type":"address"},{"indexed":false,"internalType":"uint256","name":"amount","type":"uint256"}],"name":"GoalCompleted","type":"event"},{"anonymous":false,"inputs":[{"indexed":true,"internalType":"uint256","name":"goalId","type":"uint256"},{"indexed":true,"internalType":"address","name":"owner","type":"address"},{"indexed":false,"internalType":"string","name":"title","type":"string"},{"indexed":false,"internalType":"uint256","name":"targetAmount","type":"uint256"},{"indexed":false,"internalType":"uint256","name":"deadline","type":"uint256"}],"name":"GoalCreated","type":"event"},{"anonymous":false,"inputs":[{"indexed":true,"internalType":"uint256","name":"goalId","type":"uint256"},{"indexed":true,"internalType":"address","name":"owner","type":"address"}],"name":"GoalExpired","type":"event"},{"anonymous":false,"inputs":[{"indexed":true,"internalType":"uint256","name":"goalId","type":"uint256"},{"indexed":true,"internalType":"address","name":"owner","type":"address"},{"indexed":false,"internalType":"uint256","name":"amount","type":"uint256"},{"indexed":false,"internalType":"bool","name":"completed","type":"bool"}],"name":"GoalWithdrawn","type":"event"},{"anonymous":false,"inputs":[{"indexed":true,"internalType":"address","name":"previousOwner","type":"address"},{"indexed":true,"internalType":"address","name":"newOwner","type":"address"}],"name":"OwnershipTransferred","type":"event"},{"anonymous":false,"inputs":[{"indexed":false,"internalType":"uint256","name":"newFeeRate","type":"uint256"}],"name":"ProtocolFeeUpdated","type":"event"},{"inputs":[{"internalType":"string","name":"_title","type":"string"},{"internalType":"string","name":"_description","type":"string"},{"internalType":"address","name":"_tokenAddress","type":"address"},{"internalType":"uint256","name":"_targetAmount","type":"uint256"},{"internalType":"uint256","name":"_deadline","type":"uint256"},{"internalType":"bool","name":"_isPublic","type":"bool"}],"name":"createGoal","outputs":[{"internalType":"uint256","name":"goalId","type":"uint256"}],"stateMutability":"nonpayable","type":"function"},{"inputs":[{"internalType":"uint256","name":"_goalId","type":"uint256"},{"internalType":"uint256","name":"_amount","type":"uint256"}],"name":"deposit","outputs":[],"stateMutability":"payable","type":"function"},{"inputs":[],"name":"feeCollector","outputs":[{"internalType":"address","name":"","type":"address"}],"stateMutability":"view","type":"function"},{"inputs":[{"internalType":"uint256","name":"_goalId","type":"uint256"}],"name":"getGoalDetails","outputs":[{"components":[{"internalType":"uint256","name":"id","type":"uint256"},{"internalType":"address","name":"owner","type":"address"},{"internalType":"string","name":"title","type":"string"},{"internalType":"string","name":"description","type":"string"},{"internalType":"address","name":"tokenAddress","type":"address"},{"internalType":"uint256","name":"targetAmount","type":"uint256"},{"internalType":"uint256","name":"currentAmount","type":"uint256"},{"internalType":"uint256","name":"createdAt","type":"uint256"},{"internalType":"uint256","name":"deadline","type":"uint256"},{"internalType":"bool","name":"isPublic","type":"bool"},{"internalType":"enum GoalTracker.GoalStatus","name":"status","type":"uint8"}],"internalType":"struct GoalTracker.Goal","name":"","type":"tuple"}],"stateMutability":"view","type":"function"},{"inputs":[{"internalType":"address","name":"_user","type":"address"}],"name":"getGoalsByUser","outputs":[{"internalType":"uint256[]","name":"","type":"uint256[]"}],"stateMutability":"view","type":"function"},{"inputs":[{"internalType":"uint256","name":"_offset","type":"uint256"},{"internalType":"uint256","name":"_limit","type":"uint256"}],"name":"getPublicGoals","outputs":[{"components":[{"internalType":"uint256","name":"id","type":"uint256"},{"internalType":"address","name":"owner","type":"address"},{"internalType":"string","name":"title","type":"string"},{"internalType":"string","name":"description","type":"string"},{"internalType":"address","name":"tokenAddress","type":"address"},{"internalType":"uint256","name":"targetAmount","type":"uint256"},{"internalType":"uint256","name":"currentAmount","type":"uint256"},{"internalType":"uint256","name":"createdAt","type":"uint256"},{"internalType":"uint256","name":"deadline","type":"uint256"},{"internalType":"bool","name":"isPublic","type":"bool"},{"internalType":"enum GoalTracker.GoalStatus","name":"status","type":"uint8"}],"internalType":"struct GoalTracker.Goal[]","name":"","type":"tuple[]"}],"stateMutability":"view","type":"function"},{"inputs":[],"name":"goalNFT","outputs":[{"internalType":"contract GoalNFT","name":"","type":"address"}],"stateMutability":"view","type":"function"},{"inputs":[{"internalType":"uint256","name":"","type":"uint256"}],"name":"goals","outputs":[{"internalType":"uint256","name":"id","type":"uint256"},{"internalType":"address","name":"owner","type":"address"},{"internalType":"string","name":"title","type":"string"},{"internalType":"string","name":"description","type":"string"},{"internalType":"address","name":"tokenAddress","type":"address"},{"internalType":"uint256","name":"targetAmount","type":"uint256"},{"internalType":"uint256","name":"currentAmount","type":"uint256"},{"internalType":"uint256","name":"createdAt","type":"uint256"},{"internalType":"uint256","name":"deadline","type":"uint256"},{"internalType":"bool","name":"isPublic","type":"bool"},{"internalType":"enum GoalTracker.GoalStatus","name":"status","type":"uint8"}],"stateMutability":"view","type":"function"},{"inputs":[],"name":"maxGoalDuration","outputs":[{"internalType":"uint256","name":"","type":"uint256"}],"stateMutability":"view","type":"function"},{"inputs":[],"name":"minGoalDuration","outputs":[{"internalType":"uint256","name":"","type":"uint256"}],"stateMutability":"view","type":"function"},{"inputs":[],"name":"owner","outputs":[{"internalType":"address","name":"","type":"address"}],"stateMutability":"view","type":"function"},{"inputs":[],"name":"protocolFeeRate","outputs":[{"internalType":"uint256","name":"","type":"uint256"}],"stateMutability":"view","type":"function"},{"inputs":[],"name":"renounceOwnership","outputs":[],"stateMutability":"nonpayable","type":"function"},{"inputs":[{"internalType":"address","name":"newOwner","type":"address"}],"name":"transferOwnership","outputs":[],"stateMutability":"nonpayable","type":"function"},{"inputs":[{"internalType":"address","name":"_newFeeCollector","type":"address"}],"name":"updateFeeCollector","outputs":[],"stateMutability":"nonpayable","type":"function"},{"inputs":[{"internalType":"uint256","name":"_minDuration","type":"uint256"},{"internalType":"uint256","name":"_maxDuration","type":"uint256"}],"name":"updateGoalDurationLimits","outputs":[],"stateMutability":"nonpayable","type":"function"},{"inputs":[{"internalType":"address","name":"_newGoalNFT","type":"address"}],"name":"updateGoalNFT","outputs":[],"stateMutability":"nonpayable","type":"function"},{"inputs":[{"internalType":"uint256","name":"_newFeeRate","type":"uint256"}],"name":"updateProtocolFeeRate","outputs":[],"stateMutability":"nonpayable","type":"function"},{"inputs":[{"internalType":"address","name":"","type":"address"},{"internalType":"uint256","name":"","type":"uint256"}],"name":"userGoals","outputs":[{"internalType":"uint256","name":"","type":"uint256"}],"stateMutability":"view","type":"function"},{"inputs":[{"internalType":"uint256","name":"_goalId","type":"uint256"}],"name":"withdraw","outputs":[],"stateMutability":"nonpayable","type":"function"},{"inputs":[{"internalType":"uint256","name":"_amount","type":"uint256"}],"name":"withdrawExcessETH","outputs":[],"stateMutability":"nonpayable","type":"function"},{"inputs":[{"internalType":"address","name":"_token","type":"address"},{"internalType":"uint256","name":"_amount","type":"uint256"}],"name":"withdrawExcessTokens","outputs":[],"stateMutability":"nonpayable","type":"function"},{"stateMutability":"payable","type":"receive"}],"evm":{"bytecode":{"linkReferences":{},"object":"608034620001c257620023f490601f38839003908101601f19168201906001600160401b03821183831017620001c75780839160409586948552833981010312620001c2576200005d60206200005583620001dd565b9201620001dd565b6200006833620001f2565b6001805560326004556201518060065563096601806007556001600160a01b039182169081156200017257829060018060a01b03199283600554161760055516906003541617600355339060005416036200012f573315620000dd57620000cf33620001f2565b516121ba90816200023a8239f35b5162461bcd60e51b815260206004820152602660248201527f4f776e61626c653a206e6577206f776e657220697320746865207a65726f206160448201526564647265737360d01b6064820152608490fd5b5162461bcd60e51b815260206004820181905260248201527f4f776e61626c653a2063616c6c6572206973206e6f7420746865206f776e65726044820152606490fd5b835162461bcd60e51b8152602060048201526024808201527f46656520636f6c6c6563746f722063616e6e6f74206265207a65726f206164646044820152637265737360e01b6064820152608490fd5b600080fd5b634e487b7160e01b600052604160045260246000fd5b51906001600160a01b0382168203620001c257565b600080546001600160a01b039283166001600160a01b03198216811783559216907f8be0079c531659141344cd1fd0a4f28419497f9722a3daafe3b4186f6b6457e09080a356fe6080604052600436101561001b575b361561001957600080fd5b005b60003560e01c806307ad91aa1461017b5780631b70e79c146101765780632e1a7d4d1461017157806341b240df1461016c57806343459f881461016757806353e052ac1461016257806358f858801461015d57806361449ca2146101585780636340d55c1461015357806371444dd01461014e578063715018a6146101495780638da5cb5b146101445780639ec2c8cc1461013f578063aa413f0e1461013a578063b6b3eedf14610135578063b8b7a5a614610130578063c415b95c1461012b578063c7bf914214610126578063c8cd887914610121578063d2c35ce81461011c578063e2bbb158146101175763f2fde38b0361000e57611349565b61109f565b610fd0565b610f4c565b610ef3565b610eca565b610ea1565b610e49565b610df8565b610d66565b610d3d565b610cdf565b610c00565b610b5d565b610aaf565b61092f565b610889565b61080a565b610775565b610365565b61031f565b61029a565b919082519283825260005b8481106101ac575050826000602080949584010152601f8019910116010190565b60208183018101518483018201520161018b565b600411156101ca57565b634e487b7160e01b600052602160045260246000fd5b9060048210156101ca5752565b805182526020808201516001600160a01b03169083015290610297906102376102256040850151610160806040860152840190610180565b60608501518382036060850152610180565b6080808501516001600160a01b0316908301529260a081015160a083015260c081015160c083015260e081015160e08301526101008082015190830152610288610120808301519084019015159052565b610140809101519101906101e0565b90565b3461031a57604036600319011261031a576102b9602435600435612050565b60405160209182820192808352815180945260408301938160408260051b8601019301916000955b8287106102ee5785850386f35b90919293828061030a600193603f198a820301865288516101ed565b96019201960195929190926102e1565b600080fd5b3461031a57602036600319011261031a5760043561033b61140c565b61034747821115612141565b61036260008080808095335af161035c611c51565b50611e00565b80f35b3461031a57602036600319011261031a57600435610381611ab8565b610395816000526008602052604060002090565b906103a2825415156118ec565b6001820180546001600160a01b0393906103bf9085163314611d1a565b60098101936103d3855460ff9060081c1690565b916103dd836101c0565b821595868015610665575b8015610652575b6103f890611d66565b610401846101c0565b6001841492831561063f575b831580610632575b6105c357807f90c3239dd73158697951389819d91da3f6114f6b17741dec0c9c377f642c774e966104e3966104999a600887015442101591826105b1575b5050610565575b50506104a76004600685015494610487610480610478845489611dab565b612710900490565b8097611562565b9a8b9561030061ff0019825416179055565b01546001600160a01b031690565b1680610531575050806104ef575b506104ca600080808089335af161035c611c51565b6040805195865290151560208601523394918291820190565b0390a361001960018055565b600080808061052b9461051b61050f61050f60055460018060a01b031690565b6001600160a01b031690565b5af1610525611c51565b50611dbe565b386104b5565b8261054393610548575b503390611e3e565b6104ca565b60055461055f91906001600160a01b031683611e3e565b3861053b565b835461ff00191661020017845561058390546001600160a01b031690565b16877fe44052fc5e34b4c20e0d59b3fd3c5e6f26458d96c934413747613fd0a38b568a600080a3803861045a565b6105bc9192506101c0565b3880610453565b60405162461bcd60e51b815260206004820152603860248201527f43616e6e6f74207769746864726177206265666f726520646561646c696e652060448201527f756e6c65737320676f616c20697320636f6d706c6574656400000000000000006064820152608490fd5b0390fd5b5060088301544210610415565b600683015460058401541115935061040d565b5061065c846101c0565b600284146103ef565b5061066f846101c0565b600184146103e8565b634e487b7160e01b600052604160045260246000fd5b6040810190811067ffffffffffffffff8211176106aa57604052565b610678565b90601f8019910116810190811067ffffffffffffffff8211176106aa57604052565b60405190610160820182811067ffffffffffffffff8211176106aa57604052565b67ffffffffffffffff81116106aa57601f01601f191660200190565b81601f8201121561031a57803590610725826106f2565b9261073360405194856106af565b8284526020838301011161031a57816000926020809301838601378301015290565b600435906001600160a01b038216820361031a57565b8015150361031a57565b3461031a5760c036600319011261031a5767ffffffffffffffff60043581811161031a576107a790369060040161070e565b9060243590811161031a576107c090369060040161070e565b906044356001600160a01b038116810361031a57610806926107f69260a435926107e98461076b565b6084359260643592611784565b6040519081529081906020820190565b0390f35b3461031a57604036600319011261031a5760243560043561082961140c565b81811161083857600655600755005b60405162461bcd60e51b8152602060048201526024808201527f4d696e206475726174696f6e206d757374206265203c3d206d617820647572616044820152633a34b7b760e11b6064820152608490fd5b3461031a57604036600319011261031a576108a2610755565b602435906108ae61140c565b6040516370a0823160e01b815230600482015291906001600160a01b0316602083602481845afa92831561092a57610019936108f5916000916108fc575b50831115612141565b3390611e3e565b61091d915060203d8111610923575b61091581836106af565b8101906119fa565b386108ec565b503d61090b565b611a09565b3461031a57600036600319011261031a576020600454604051908152f35b90600182811c9216801561097d575b602083101461096757565b634e487b7160e01b600052602260045260246000fd5b91607f169161095c565b90600092918054916109988361094d565b9182825260019384811690816000146109fa57506001146109ba575b50505050565b90919394506000526020928360002092846000945b8386106109e65750505050010190388080806109b4565b8054858701830152940193859082016109cf565b9294505050602093945060ff191683830152151560051b010190388080806109b4565b90610a38610a319260405193848092610987565b03836106af565b565b96926101409894610a76610a8492979e9d9b97610a389d9995948b5260018060a01b0380951660208c01526101608060408d01528b0190610180565b9089820360608b0152610180565b9b16608087015260a086015260c085015260e0840152610100830152151561012082015201906101e0565b3461031a57602036600319011261031a576004356000526008602052604060002080549061080660018060a01b036001830154169160405193610b0085610af98160028601610987565b03866106af565b60405191610b1c83610b158160038501610987565b03846106af565b60048101546001600160a01b0316600582015460068301549060078401549260096008860154950154966040519a8b9a60ff808b60081c169a16988c610a3a565b3461031a57602036600319011261031a57600435610b7961140c565b6101f48111610bb3576020817fd10d75876659a287a59a6ccfa2e3fff42f84d94b542837acd30bc184d562de4092600455604051908152a1005b60405162461bcd60e51b81526020600482015260146024820152734665652063616e6e6f742065786365656420352560601b6044820152606490fd5b9060206102979281815201906101ed565b3461031a57602036600319011261031a57600435610c1c611e8e565b50806000526008602052610c3660406000205415156118ec565b6000526008602052610c4b6040600020611f00565b610c60610c5c610120830151151590565b1590565b80610cbf575b610c7a576108069060405191829182610bef565b60405162461bcd60e51b815260206004820181905260248201527f4e6f7420617574686f72697a656420746f2076696577207468697320676f616c6044820152606490fd5b5060208101516001600160a01b03166001600160a01b0316331415610c66565b3461031a57600080600319360112610d3a57610cf961140c565b80546001600160a01b03198116825581906001600160a01b03167f8be0079c531659141344cd1fd0a4f28419497f9722a3daafe3b4186f6b6457e08280a380f35b80fd5b3461031a57600036600319011261031a576000546040516001600160a01b039091168152602090f35b3461031a57602036600319011261031a57610d7f610755565b610d8761140c565b6001600160a01b03168015610db3576bffffffffffffffffffffffff60a01b6003541617600355600080f35b60405162461bcd60e51b815260206004820152601e60248201527f476f616c4e46542063616e6e6f74206265207a65726f206164647265737300006044820152606490fd5b3461031a57600036600319011261031a576020600754604051908152f35b634e487b7160e01b600052603260045260246000fd5b8054821015610e445760005260206000200190600090565b610e16565b3461031a57604036600319011261031a57610e62610755565b6001600160a01b031660009081526009602052604090208054602435919082101561031a57602091610e9391610e2c565b90546040519160031b1c8152f35b3461031a57600036600319011261031a576003546040516001600160a01b039091168152602090f35b3461031a57600036600319011261031a576005546040516001600160a01b039091168152602090f35b3461031a57600036600319011261031a576020600654604051908152f35b6020908160408183019282815285518094520193019160005b828110610f38575050505090565b835185529381019392810192600101610f2a565b3461031a5760208060031936011261031a576001600160a01b03610f6e610755565b1660005260098152604060002090604051908181845491828152019360005281600020916000905b828210610fb95761080685610fad818903826106af565b60405191829182610f11565b835486529485019460019384019390910190610f96565b3461031a57602036600319011261031a57610fe9610755565b610ff161140c565b6001600160a01b038116801561104e57600580546001600160a01b0319169190911790556040516001600160a01b039190911681527fe5693914d19c789bdee50a362998c0bc8d035a835f9871da5d51152f0582c34f90602090a1005b60405162461bcd60e51b8152602060048201526024808201527f46656520636f6c6c6563746f722063616e6e6f74206265207a65726f206164646044820152637265737360e01b6064820152608490fd5b60408060031936011261031a57600435602435916110bb611ab8565b6110cf826000526008602052604060002090565b906110dc825415156118ec565b6009820180546110fb9060081c60ff166110f5816101c0565b1561192e565b61110a6008840154421061196f565b60048301546001600160a01b039390841680611280575061112c863414611a30565b6006810161113b348254611a23565b90555b6006810191825460058301541115611186575b8351878152339087907feaa18152488ce5959073c9c79c88ca90b3d96c00de1f118cfaad664c3dab06b99080602081016104e3565b805461ff0019166101001790556003546111a8906001600160a01b031661050f565b60018201805490926020916001600160a01b031692600260008354936111e58a519788968795869463112232f560e31b8652019160048501611a94565b03925af194851561092a5761124c87937ff1e784b979c484ae49b13fe4d42c00fea7f6bd55f7fbb717841d97571a6c2480937feaa18152488ce5959073c9c79c88ca90b3d96c00de1f118cfaad664c3dab06b998611262575b50546001600160a01b031690565b93548551908152931692602090a3388080611151565b6112799060203d81116109235761091581836106af565b503861123e565b61128a34156119ae565b83516370a0823160e01b80825230600483015260209290918381602481855afa92831561092a57849160009461132a575b506112c88b303386611b0e565b875190815230600482015291829060249082905afa90811561092a576112f79360009261130d575b5050611562565b61130660068301918254611a23565b905561113e565b6113239250803d106109235761091581836106af565b38806112f0565b611342919450823d84116109235761091581836106af565b92386112bb565b3461031a57602036600319011261031a57611362610755565b61136a61140c565b6001600160a01b0390811680156113b857600080546001600160a01b03198116831782559092167f8be0079c531659141344cd1fd0a4f28419497f9722a3daafe3b4186f6b6457e08380a380f35b60405162461bcd60e51b815260206004820152602660248201527f4f776e61626c653a206e6577206f776e657220697320746865207a65726f206160448201526564647265737360d01b6064820152608490fd5b6000546001600160a01b0316330361142057565b606460405162461bcd60e51b815260206004820152602060248201527f4f776e61626c653a2063616c6c6572206973206e6f7420746865206f776e65726044820152fd5b1561146b57565b60405162461bcd60e51b81526020600482015260156024820152745469746c652063616e6e6f7420626520656d70747960581b6044820152606490fd5b156114af57565b60405162461bcd60e51b8152602060048201526024808201527f54617267657420616d6f756e74206d75737420626520677265617465722074686044820152630616e20360e41b6064820152608490fd5b1561150757565b60405162461bcd60e51b815260206004820152601e60248201527f446561646c696e65206d75737420626520696e207468652066757475726500006044820152606490fd5b634e487b7160e01b600052601160045260246000fd5b9190820391821161156f57565b61154c565b1561157b57565b60405162461bcd60e51b815260206004820152601760248201527f476f616c206475726174696f6e20746f6f2073686f72740000000000000000006044820152606490fd5b156115c757565b60405162461bcd60e51b8152602060048201526016602482015275476f616c206475726174696f6e20746f6f206c6f6e6760501b6044820152606490fd5b90601f811161161357505050565b600091825260208220906020601f850160051c8301941061164f575b601f0160051c01915b82811061164457505050565b818155600101611638565b909250829061162f565b919091825167ffffffffffffffff81116106aa576116818161167b845461094d565b84611605565b602080601f83116001146116bd5750819293946000926116b2575b50508160011b916000199060031b1c1916179055565b01519050388061169c565b90601f198316956116d385600052602060002090565b926000905b888210611710575050836001959697106116f7575b505050811b019055565b015160001960f88460031b161c191690553880806116ed565b806001859682949686015181550195019301906116d8565b8054680100000000000000008110156106aa5761174a91600182018155610e2c565b819291549060031b91821b91600019901b1916179055565b61177a60409295949395606083526060830190610180565b9460208201520152565b939094926118bb611857946118b06009886118837fea338ecebd76d63d9c1f905132a63f13c68cc4530e205f4026d455cd89d2e666986117c683511515611464565b6117d18815156114a8565b6117dc428a11611500565b6117f36117e9428b611562565b6006541115611574565b61180a611800428b611562565b60075410156115c0565b611818600160025401600255565b6118606002549d8e9c8d95611837876000526008602052604060002090565b9687556001870180546001600160a01b0319163317905560028701611659565b60038501611659565b6004830180546001600160a01b0319166001600160a01b03909216919091179055565b856005820155600060068201554260078201558660088201550191829060ff801983541691151516179055565b805461ff0019169055565b3360009081526009602052604090206118d5908590611728565b6118e6604051928392339784611762565b0390a390565b156118f357565b60405162461bcd60e51b815260206004820152601360248201527211dbd85b08191bd95cc81b9bdd08195e1a5cdd606a1b6044820152606490fd5b1561193557565b60405162461bcd60e51b8152602060048201526012602482015271476f616c206973206e6f742061637469766560701b6044820152606490fd5b1561197657565b60405162461bcd60e51b815260206004820152601060248201526f11dbd85b081a185cc8195e1c1a5c995960821b6044820152606490fd5b156119b557565b60405162461bcd60e51b815260206004820152601b60248201527f4554482073656e742077697468204552433230206465706f73697400000000006044820152606490fd5b9081602091031261031a575190565b6040513d6000823e3d90fd5b906001820180921161156f57565b9190820180921161156f57565b15611a3757565b60405162461bcd60e51b815260206004820152602f60248201527f53656e742045544820616d6f756e7420646f6573206e6f74206d61746368207360448201526e1c1958da599a595908185b5bdd5b9d608a1b6064820152608490fd5b610297939260609260018060a01b0316825260208201528160408201520190610987565b600260015414611ac9576002600155565b60405162461bcd60e51b815260206004820152601f60248201527f5265656e7472616e637947756172643a207265656e7472616e742063616c6c006044820152606490fd5b6040516323b872dd60e01b60208201526001600160a01b03928316602482015292909116604483015260648083019390935291815260a081019181831067ffffffffffffffff8411176106aa57610a38926040525b604051611bc1916001600160a01b0316611b7c8261068e565b6000806020958685527f5361666545524332303a206c6f772d6c6576656c2063616c6c206661696c656487860152868151910182855af1611bbb611c51565b91611c81565b8051828115918215611c31575b5050905015611bda5750565b6084906040519062461bcd60e51b82526004820152602a60248201527f5361666545524332303a204552433230206f7065726174696f6e20646964206e6044820152691bdd081cdd58d8d9595960b21b6064820152fd5b838092935001031261031a57810151611c498161076b565b808238611bce565b3d15611c7c573d90611c62826106f2565b91611c7060405193846106af565b82523d6000602084013e565b606090565b91929015611ce35750815115611c95575090565b3b15611c9e5790565b60405162461bcd60e51b815260206004820152601d60248201527f416464726573733a2063616c6c20746f206e6f6e2d636f6e74726163740000006044820152606490fd5b825190915015611cf65750805190602001fd5b60405162461bcd60e51b81526020600482015290819061062e906024830190610180565b15611d2157565b60405162461bcd60e51b815260206004820152601c60248201527f4f6e6c7920676f616c206f776e65722063616e207769746864726177000000006044820152606490fd5b15611d6d57565b60405162461bcd60e51b815260206004820152601660248201527523b7b0b61030b63932b0b23c903bb4ba34323930bbb760511b6044820152606490fd5b8181029291811591840414171561156f57565b15611dc557565b60405162461bcd60e51b8152602060048201526013602482015272119959481d1c985b9cd9995c8819985a5b1959606a1b6044820152606490fd5b15611e0757565b60405162461bcd60e51b815260206004820152600f60248201526e151c985b9cd9995c8819985a5b1959608a1b6044820152606490fd5b60405163a9059cbb60e01b60208201526001600160a01b039092166024830152604480830193909352918152608081019167ffffffffffffffff8311828410176106aa57610a3892604052611b63565b60405190610160820182811067ffffffffffffffff8211176106aa5760405281610140600091828152826020820152606060408201526060808201528260808201528260a08201528260c08201528260e082015282610100820152826101208201520152565b60048210156101ca5752565b90610a3860ff6009611f106106d1565b8554815260018601546001600160a01b0316602082015294611f3460028201610a1d565b6040870152611f4560038201610a1d565b606087015260048101546001600160a01b03166080870152600581015460a0870152600681015460c0870152600781015460e087015260088101546101008701520154818116151561012086015260081c166101408401611ef4565b67ffffffffffffffff81116106aa5760051b60200190565b6040516020810181811067ffffffffffffffff8211176106aa576040526000815290565b90611fe782611fa1565b611ff460405191826106af565b8281528092612005601f1991611fa1565b019060005b82811061201657505050565b602090612021611e8e565b8282850101520161200a565b600019811461156f5760010190565b8051821015610e445760209160051b010190565b6002549182821015612136576120668284611562565b908082101561212e5750905b61207b82611fdd565b91612087600092611a15565b8481111580612125575b15612111576120b760096120af836000526008602052604060002090565b015460ff1690565b6120ca575b6120c59061202d565b612087565b916121096120c5916120ee6120e9866000526008602052604060002090565b611f00565b6120f8828861203c565b52612103818761203c565b5061202d565b9290506120bc565b50909192508110612120575090565b815290565b50818310612091565b905090612072565b505050610297611fb9565b1561214857565b60405162461bcd60e51b8152602060048201526014602482015273496e73756666696369656e742062616c616e636560601b6044820152606490fdfea264697066735822122064fb9fa05c5001b08a5d2df0701e022f7e92a28f45611bd8a5f81699194d96ca64736f6c63430008140033","opcodes":"PUSH1 0x80 CALLVALUE PUSH3 0x1C2 JUMPI PUSH3 0x23F4 SWAP1 PUSH1 0x1F CODESIZE DUP4 SWAP1 SUB SWAP1 DUP2 ADD PUSH1 0x1F NOT AND DUP3 ADD SWAP1 PUSH1 0x1 PUSH1 0x1 PUSH1 0x40 SHL SUB DUP3 GT DUP4 DUP4 LT OR PUSH3 0x1C7 JUMPI DUP1 DUP4 SWAP2 PUSH1 0x40 SWAP6 DUP7 SWAP5 DUP6 MSTORE DUP4 CODECOPY DUP2 ADD SUB SLT PUSH3 0x1C2 JUMPI PUSH3 0x5D PUSH1 0x20 PUSH3 0x55 DUP4 PUSH3 0x1DD JUMP JUMPDEST SWAP3 ADD PUSH3 0x1DD JUMP JUMPDEST PUSH3 0x68 CALLER PUSH3 0x1F2 JUMP JUMPDEST PUSH1 0x1 DUP1 SSTORE PUSH1 0x32 PUSH1 0x4 SSTORE PUSH3 0x15180 PUSH1 0x6 SSTORE PUSH4 0x9660180 PUSH1 0x7 SSTORE PUSH1 0x1 PUSH1 0x1 PUSH1 0xA0 SHL SUB SWAP2 DUP3 AND SWAP1 DUP2 ISZERO PUSH3 0x172 JUMPI DUP3 SWAP1 PUSH1 0x1 DUP1 PUSH1 0xA0 SHL SUB NOT SWAP3 DUP4 PUSH1 0x5 SLOAD AND OR PUSH1 0x5 SSTORE AND SWAP1 PUSH1 0x3 SLOAD AND OR PUSH1 0x3 SSTORE CALLER SWAP1 PUSH1 0x0 SLOAD AND SUB PUSH3 0x12F JUMPI CALLER ISZERO PUSH3 0xDD JUMPI PUSH3 0xCF CALLER PUSH3 0x1F2 JUMP JUMPDEST MLOAD PUSH2 0x21BA SWAP1 DUP2 PUSH3 0x23A DUP3 CODECOPY RETURN JUMPDEST MLOAD PUSH3 0x461BCD PUSH1 0xE5 SHL DUP2 MSTORE PUSH1 0x20 PUSH1 0x4 DUP3 ADD MSTORE PUSH1 0x26 PUSH1 0x24 DUP3 ADD MSTORE PUSH32 0x4F776E61626C653A206E6577206F776E657220697320746865207A65726F2061 PUSH1 0x44 DUP3 ADD MSTORE PUSH6 0x646472657373 PUSH1 0xD0 SHL PUSH1 0x64 DUP3 ADD MSTORE PUSH1 0x84 SWAP1 REVERT JUMPDEST MLOAD PUSH3 0x461BCD PUSH1 0xE5 SHL DUP2 MSTORE PUSH1 0x20 PUSH1 0x4 DUP3 ADD DUP2 SWAP1 MSTORE PUSH1 0x24 DUP3 ADD MSTORE PUSH32 0x4F776E61626C653A2063616C6C6572206973206E6F7420746865206F776E6572 PUSH1 0x44 DUP3 ADD MSTORE PUSH1 0x64 SWAP1 REVERT JUMPDEST DUP4 MLOAD PUSH3 0x461BCD PUSH1 0xE5 SHL DUP2 MSTORE PUSH1 0x20 PUSH1 0x4 DUP3 ADD MSTORE PUSH1 0x24 DUP1 DUP3 ADD MSTORE PUSH32 0x46656520636F6C6C6563746F722063616E6E6F74206265207A65726F20616464 PUSH1 0x44 DUP3 ADD MSTORE PUSH4 0x72657373 PUSH1 0xE0 SHL PUSH1 0x64 DUP3 ADD MSTORE PUSH1 0x84 SWAP1 REVERT JUMPDEST PUSH1 0x0 DUP1 REVERT JUMPDEST PUSH4 0x4E487B71 PUSH1 0xE0 SHL PUSH1 0x0 MSTORE PUSH1 0x41 PUSH1 0x4 MSTORE PUSH1 0x24 PUSH1 0x0 REVERT JUMPDEST MLOAD SWAP1 PUSH1 0x1 PUSH1 0x1 PUSH1 0xA0 SHL SUB DUP3 AND DUP3 SUB PUSH3 0x1C2 JUMPI JUMP JUMPDEST PUSH1 0x0 DUP1 SLOAD PUSH1 0x1 PUSH1 0x1 PUSH1 0xA0 SHL SUB SWAP3 DUP4 AND PUSH1 0x1 PUSH1 0x1 PUSH1 0xA0 SHL SUB NOT DUP3 AND DUP2 OR DUP4 SSTORE SWAP3 AND SWAP1 PUSH32 0x8BE0079C531659141344CD1FD0A4F28419497F9722A3DAAFE3B4186F6B6457E0 SWAP1 DUP1 LOG3 JUMP INVALID PUSH1 0x80 PUSH1 0x40 MSTORE PUSH1 0x4 CALLDATASIZE LT ISZERO PUSH2 0x1B JUMPI JUMPDEST CALLDATASIZE ISZERO PUSH2 0x19 JUMPI PUSH1 0x0 DUP1 REVERT JUMPDEST STOP JUMPDEST PUSH1 0x0 CALLDATALOAD PUSH1 0xE0 SHR DUP1 PUSH4 0x7AD91AA EQ PUSH2 0x17B JUMPI DUP1 PUSH4 0x1B70E79C EQ PUSH2 0x176 JUMPI DUP1 PUSH4 0x2E1A7D4D EQ PUSH2 0x171 JUMPI DUP1 PUSH4 0x41B240DF EQ PUSH2 0x16C JUMPI DUP1 PUSH4 0x43459F88 EQ PUSH2 0x167 JUMPI DUP1 PUSH4 0x53E052AC EQ PUSH2 0x162 JUMPI DUP1 PUSH4 0x58F85880 EQ PUSH2 0x15D JUMPI DUP1 PUSH4 0x61449CA2 EQ PUSH2 0x158 JUMPI DUP1 PUSH4 0x6340D55C EQ PUSH2 0x153 JUMPI DUP1 PUSH4 0x71444DD0 EQ PUSH2 0x14E JUMPI DUP1 PUSH4 0x715018A6 EQ PUSH2 0x149 JUMPI DUP1 PUSH4 0x8DA5CB5B EQ PUSH2 0x144 JUMPI DUP1 PUSH4 0x9EC2C8CC EQ PUSH2 0x13F JUMPI DUP1 PUSH4 0xAA413F0E EQ PUSH2 0x13A JUMPI DUP1 PUSH4 0xB6B3EEDF EQ PUSH2 0x135 JUMPI DUP1 PUSH4 0xB8B7A5A6 EQ PUSH2 0x130 JUMPI DUP1 PUSH4 0xC415B95C EQ PUSH2 0x12B JUMPI DUP1 PUSH4 0xC7BF9142 EQ PUSH2 0x126 JUMPI DUP1 PUSH4 0xC8CD8879 EQ PUSH2 0x121 JUMPI DUP1 PUSH4 0xD2C35CE8 EQ PUSH2 0x11C JUMPI DUP1 PUSH4 0xE2BBB158 EQ PUSH2 0x117 JUMPI PUSH4 0xF2FDE38B SUB PUSH2 0xE JUMPI PUSH2 0x1349 JUMP JUMPDEST PUSH2 0x109F JUMP JUMPDEST PUSH2 0xFD0 JUMP JUMPDEST PUSH2 0xF4C JUMP JUMPDEST PUSH2 0xEF3 JUMP JUMPDEST PUSH2 0xECA JUMP JUMPDEST PUSH2 0xEA1 JUMP JUMPDEST PUSH2 0xE49 JUMP JUMPDEST PUSH2 0xDF8 JUMP JUMPDEST PUSH2 0xD66 JUMP JUMPDEST PUSH2 0xD3D JUMP JUMPDEST PUSH2 0xCDF JUMP JUMPDEST PUSH2 0xC00 JUMP JUMPDEST PUSH2 0xB5D JUMP JUMPDEST PUSH2 0xAAF JUMP JUMPDEST PUSH2 0x92F JUMP JUMPDEST PUSH2 0x889 JUMP JUMPDEST PUSH2 0x80A JUMP JUMPDEST PUSH2 0x775 JUMP JUMPDEST PUSH2 0x365 JUMP JUMPDEST PUSH2 0x31F JUMP JUMPDEST PUSH2 0x29A JUMP JUMPDEST SWAP2 SWAP1 DUP3 MLOAD SWAP3 DUP4 DUP3 MSTORE PUSH1 0x0 JUMPDEST DUP5 DUP2 LT PUSH2 0x1AC JUMPI POP POP DUP3 PUSH1 0x0 PUSH1 0x20 DUP1 SWAP5 SWAP6 DUP5 ADD ADD MSTORE PUSH1 0x1F DUP1 NOT SWAP2 ADD AND ADD ADD SWAP1 JUMP JUMPDEST PUSH1 0x20 DUP2 DUP4 ADD DUP2 ADD MLOAD DUP5 DUP4 ADD DUP3 ADD MSTORE ADD PUSH2 0x18B JUMP JUMPDEST PUSH1 0x4 GT ISZERO PUSH2 0x1CA JUMPI JUMP JUMPDEST PUSH4 0x4E487B71 PUSH1 0xE0 SHL PUSH1 0x0 MSTORE PUSH1 0x21 PUSH1 0x4 MSTORE PUSH1 0x24 PUSH1 0x0 REVERT JUMPDEST SWAP1 PUSH1 0x4 DUP3 LT ISZERO PUSH2 0x1CA JUMPI MSTORE JUMP JUMPDEST DUP1 MLOAD DUP3 MSTORE PUSH1 0x20 DUP1 DUP3 ADD MLOAD PUSH1 0x1 PUSH1 0x1 PUSH1 0xA0 SHL SUB AND SWAP1 DUP4 ADD MSTORE SWAP1 PUSH2 0x297 SWAP1 PUSH2 0x237 PUSH2 0x225 PUSH1 0x40 DUP6 ADD MLOAD PUSH2 0x160 DUP1 PUSH1 0x40 DUP7 ADD MSTORE DUP5 ADD SWAP1 PUSH2 0x180 JUMP JUMPDEST PUSH1 0x60 DUP6 ADD MLOAD DUP4 DUP3 SUB PUSH1 0x60 DUP6 ADD MSTORE PUSH2 0x180 JUMP JUMPDEST PUSH1 0x80 DUP1 DUP6 ADD MLOAD PUSH1 0x1 PUSH1 0x1 PUSH1 0xA0 SHL SUB AND SWAP1 DUP4 ADD MSTORE SWAP3 PUSH1 0xA0 DUP2 ADD MLOAD PUSH1 0xA0 DUP4 ADD MSTORE PUSH1 0xC0 DUP2 ADD MLOAD PUSH1 0xC0 DUP4 ADD MSTORE PUSH1 0xE0 DUP2 ADD MLOAD PUSH1 0xE0 DUP4 ADD MSTORE PUSH2 0x100 DUP1 DUP3 ADD MLOAD SWAP1 DUP4 ADD MSTORE PUSH2 0x288 PUSH2 0x120 DUP1 DUP4 ADD MLOAD SWAP1 DUP5 ADD SWAP1 ISZERO ISZERO SWAP1 MSTORE JUMP JUMPDEST PUSH2 0x140 DUP1 SWAP2 ADD MLOAD SWAP2 ADD SWAP1 PUSH2 0x1E0 JUMP JUMPDEST SWAP1 JUMP JUMPDEST CALLVALUE PUSH2 0x31A JUMPI PUSH1 0x40 CALLDATASIZE PUSH1 0x3 NOT ADD SLT PUSH2 0x31A JUMPI PUSH2 0x2B9 PUSH1 0x24 CALLDATALOAD PUSH1 0x4 CALLDATALOAD PUSH2 0x2050 JUMP JUMPDEST PUSH1 0x40 MLOAD PUSH1 0x20 SWAP2 DUP3 DUP3 ADD SWAP3 DUP1 DUP4 MSTORE DUP2 MLOAD DUP1 SWAP5 MSTORE PUSH1 0x40 DUP4 ADD SWAP4 DUP2 PUSH1 0x40 DUP3 PUSH1 0x5 SHL DUP7 ADD ADD SWAP4 ADD SWAP2 PUSH1 0x0 SWAP6 JUMPDEST DUP3 DUP8 LT PUSH2 0x2EE JUMPI DUP6 DUP6 SUB DUP7 RETURN JUMPDEST SWAP1 SWAP2 SWAP3 SWAP4 DUP3 DUP1 PUSH2 0x30A PUSH1 0x1 SWAP4 PUSH1 0x3F NOT DUP11 DUP3 SUB ADD DUP7 MSTORE DUP9 MLOAD PUSH2 0x1ED JUMP JUMPDEST SWAP7 ADD SWAP3 ADD SWAP7 ADD SWAP6 SWAP3 SWAP2 SWAP1 SWAP3 PUSH2 0x2E1 JUMP JUMPDEST PUSH1 0x0 DUP1 REVERT JUMPDEST CALLVALUE PUSH2 0x31A JUMPI PUSH1 0x20 CALLDATASIZE PUSH1 0x3 NOT ADD SLT PUSH2 0x31A JUMPI PUSH1 0x4 CALLDATALOAD PUSH2 0x33B PUSH2 0x140C JUMP JUMPDEST PUSH2 0x347 SELFBALANCE DUP3 GT ISZERO PUSH2 0x2141 JUMP JUMPDEST PUSH2 0x362 PUSH1 0x0 DUP1 DUP1 DUP1 DUP1 SWAP6 CALLER GAS CALL PUSH2 0x35C PUSH2 0x1C51 JUMP JUMPDEST POP PUSH2 0x1E00 JUMP JUMPDEST DUP1 RETURN JUMPDEST CALLVALUE PUSH2 0x31A JUMPI PUSH1 0x20 CALLDATASIZE PUSH1 0x3 NOT ADD SLT PUSH2 0x31A JUMPI PUSH1 0x4 CALLDATALOAD PUSH2 0x381 PUSH2 0x1AB8 JUMP JUMPDEST PUSH2 0x395 DUP2 PUSH1 0x0 MSTORE PUSH1 0x8 PUSH1 0x20 MSTORE PUSH1 0x40 PUSH1 0x0 KECCAK256 SWAP1 JUMP JUMPDEST SWAP1 PUSH2 0x3A2 DUP3 SLOAD ISZERO ISZERO PUSH2 0x18EC JUMP JUMPDEST PUSH1 0x1 DUP3 ADD DUP1 SLOAD PUSH1 0x1 PUSH1 0x1 PUSH1 0xA0 SHL SUB SWAP4 SWAP1 PUSH2 0x3BF SWAP1 DUP6 AND CALLER EQ PUSH2 0x1D1A JUMP JUMPDEST PUSH1 0x9 DUP2 ADD SWAP4 PUSH2 0x3D3 DUP6 SLOAD PUSH1 0xFF SWAP1 PUSH1 0x8 SHR AND SWAP1 JUMP JUMPDEST SWAP2 PUSH2 0x3DD DUP4 PUSH2 0x1C0 JUMP JUMPDEST DUP3 ISZERO SWAP6 DUP7 DUP1 ISZERO PUSH2 0x665 JUMPI JUMPDEST DUP1 ISZERO PUSH2 0x652 JUMPI JUMPDEST PUSH2 0x3F8 SWAP1 PUSH2 0x1D66 JUMP JUMPDEST PUSH2 0x401 DUP5 PUSH2 0x1C0 JUMP JUMPDEST PUSH1 0x1 DUP5 EQ SWAP3 DUP4 ISZERO PUSH2 0x63F JUMPI JUMPDEST DUP4 ISZERO DUP1 PUSH2 0x632 JUMPI JUMPDEST PUSH2 0x5C3 JUMPI DUP1 PUSH32 0x90C3239DD73158697951389819D91DA3F6114F6B17741DEC0C9C377F642C774E SWAP7 PUSH2 0x4E3 SWAP7 PUSH2 0x499 SWAP11 PUSH1 0x8 DUP8 ADD SLOAD TIMESTAMP LT ISZERO SWAP2 DUP3 PUSH2 0x5B1 JUMPI JUMPDEST POP POP PUSH2 0x565 JUMPI JUMPDEST POP POP PUSH2 0x4A7 PUSH1 0x4 PUSH1 0x6 DUP6 ADD SLOAD SWAP5 PUSH2 0x487 PUSH2 0x480 PUSH2 0x478 DUP5 SLOAD DUP10 PUSH2 0x1DAB JUMP JUMPDEST PUSH2 0x2710 SWAP1 DIV SWAP1 JUMP JUMPDEST DUP1 SWAP8 PUSH2 0x1562 JUMP JUMPDEST SWAP11 DUP12 SWAP6 PUSH2 0x300 PUSH2 0xFF00 NOT DUP3 SLOAD AND OR SWAP1 SSTORE JUMP JUMPDEST ADD SLOAD PUSH1 0x1 PUSH1 0x1 PUSH1 0xA0 SHL SUB AND SWAP1 JUMP JUMPDEST AND DUP1 PUSH2 0x531 JUMPI POP POP DUP1 PUSH2 0x4EF JUMPI JUMPDEST POP PUSH2 0x4CA PUSH1 0x0 DUP1 DUP1 DUP1 DUP10 CALLER GAS CALL PUSH2 0x35C PUSH2 0x1C51 JUMP JUMPDEST PUSH1 0x40 DUP1 MLOAD SWAP6 DUP7 MSTORE SWAP1 ISZERO ISZERO PUSH1 0x20 DUP7 ADD MSTORE CALLER SWAP5 SWAP2 DUP3 SWAP2 DUP3 ADD SWAP1 JUMP JUMPDEST SUB SWAP1 LOG3 PUSH2 0x19 PUSH1 0x1 DUP1 SSTORE JUMP JUMPDEST PUSH1 0x0 DUP1 DUP1 DUP1 PUSH2 0x52B SWAP5 PUSH2 0x51B PUSH2 0x50F PUSH2 0x50F PUSH1 0x5 SLOAD PUSH1 0x1 DUP1 PUSH1 0xA0 SHL SUB AND SWAP1 JUMP JUMPDEST PUSH1 0x1 PUSH1 0x1 PUSH1 0xA0 SHL SUB AND SWAP1 JUMP JUMPDEST GAS CALL PUSH2 0x525 PUSH2 0x1C51 JUMP JUMPDEST POP PUSH2 0x1DBE JUMP JUMPDEST CODESIZE PUSH2 0x4B5 JUMP JUMPDEST DUP3 PUSH2 0x543 SWAP4 PUSH2 0x548 JUMPI JUMPDEST POP CALLER SWAP1 PUSH2 0x1E3E JUMP JUMPDEST PUSH2 0x4CA JUMP JUMPDEST PUSH1 0x5 SLOAD PUSH2 0x55F SWAP2 SWAP1 PUSH1 0x1 PUSH1 0x1 PUSH1 0xA0 SHL SUB AND DUP4 PUSH2 0x1E3E JUMP JUMPDEST CODESIZE PUSH2 0x53B JUMP JUMPDEST DUP4 SLOAD PUSH2 0xFF00 NOT AND PUSH2 0x200 OR DUP5 SSTORE PUSH2 0x583 SWAP1 SLOAD PUSH1 0x1 PUSH1 0x1 PUSH1 0xA0 SHL SUB AND SWAP1 JUMP JUMPDEST AND DUP8 PUSH32 0xE44052FC5E34B4C20E0D59B3FD3C5E6F26458D96C934413747613FD0A38B568A PUSH1 0x0 DUP1 LOG3 DUP1 CODESIZE PUSH2 0x45A JUMP JUMPDEST PUSH2 0x5BC SWAP2 SWAP3 POP PUSH2 0x1C0 JUMP JUMPDEST CODESIZE DUP1 PUSH2 0x453 JUMP JUMPDEST PUSH1 0x40 MLOAD PUSH3 0x461BCD PUSH1 0xE5 SHL DUP2 MSTORE PUSH1 0x20 PUSH1 0x4 DUP3 ADD MSTORE PUSH1 0x38 PUSH1 0x24 DUP3 ADD MSTORE PUSH32 0x43616E6E6F74207769746864726177206265666F726520646561646C696E6520 PUSH1 0x44 DUP3 ADD MSTORE PUSH32 0x756E6C65737320676F616C20697320636F6D706C657465640000000000000000 PUSH1 0x64 DUP3 ADD MSTORE PUSH1 0x84 SWAP1 REVERT JUMPDEST SUB SWAP1 REVERT JUMPDEST POP PUSH1 0x8 DUP4 ADD SLOAD TIMESTAMP LT PUSH2 0x415 JUMP JUMPDEST PUSH1 0x6 DUP4 ADD SLOAD PUSH1 0x5 DUP5 ADD SLOAD GT ISZERO SWAP4 POP PUSH2 0x40D JUMP JUMPDEST POP PUSH2 0x65C DUP5 PUSH2 0x1C0 JUMP JUMPDEST PUSH1 0x2 DUP5 EQ PUSH2 0x3EF JUMP JUMPDEST POP PUSH2 0x66F DUP5 PUSH2 0x1C0 JUMP JUMPDEST PUSH1 0x1 DUP5 EQ PUSH2 0x3E8 JUMP JUMPDEST PUSH4 0x4E487B71 PUSH1 0xE0 SHL PUSH1 0x0 MSTORE PUSH1 0x41 PUSH1 0x4 MSTORE PUSH1 0x24 PUSH1 0x0 REVERT JUMPDEST PUSH1 0x40 DUP2 ADD SWAP1 DUP2 LT PUSH8 0xFFFFFFFFFFFFFFFF DUP3 GT OR PUSH2 0x6AA JUMPI PUSH1 0x40 MSTORE JUMP JUMPDEST PUSH2 0x678 JUMP JUMPDEST SWAP1 PUSH1 0x1F DUP1 NOT SWAP2 ADD AND DUP2 ADD SWAP1 DUP2 LT PUSH8 0xFFFFFFFFFFFFFFFF DUP3 GT OR PUSH2 0x6AA JUMPI PUSH1 0x40 MSTORE JUMP JUMPDEST PUSH1 0x40 MLOAD SWAP1 PUSH2 0x160 DUP3 ADD DUP3 DUP2 LT PUSH8 0xFFFFFFFFFFFFFFFF DUP3 GT OR PUSH2 0x6AA JUMPI PUSH1 0x40 MSTORE JUMP JUMPDEST PUSH8 0xFFFFFFFFFFFFFFFF DUP2 GT PUSH2 0x6AA JUMPI PUSH1 0x1F ADD PUSH1 0x1F NOT AND PUSH1 0x20 ADD SWAP1 JUMP JUMPDEST DUP2 PUSH1 0x1F DUP3 ADD SLT ISZERO PUSH2 0x31A JUMPI DUP1 CALLDATALOAD SWAP1 PUSH2 0x725 DUP3 PUSH2 0x6F2 JUMP JUMPDEST SWAP3 PUSH2 0x733 PUSH1 0x40 MLOAD SWAP5 DUP6 PUSH2 0x6AF JUMP JUMPDEST DUP3 DUP5 MSTORE PUSH1 0x20 DUP4 DUP4 ADD ADD GT PUSH2 0x31A JUMPI DUP2 PUSH1 0x0 SWAP3 PUSH1 0x20 DUP1 SWAP4 ADD DUP4 DUP7 ADD CALLDATACOPY DUP4 ADD ADD MSTORE SWAP1 JUMP JUMPDEST PUSH1 0x4 CALLDATALOAD SWAP1 PUSH1 0x1 PUSH1 0x1 PUSH1 0xA0 SHL SUB DUP3 AND DUP3 SUB PUSH2 0x31A JUMPI JUMP JUMPDEST DUP1 ISZERO ISZERO SUB PUSH2 0x31A JUMPI JUMP JUMPDEST CALLVALUE PUSH2 0x31A JUMPI PUSH1 0xC0 CALLDATASIZE PUSH1 0x3 NOT ADD SLT PUSH2 0x31A JUMPI PUSH8 0xFFFFFFFFFFFFFFFF PUSH1 0x4 CALLDATALOAD DUP2 DUP2 GT PUSH2 0x31A JUMPI PUSH2 0x7A7 SWAP1 CALLDATASIZE SWAP1 PUSH1 0x4 ADD PUSH2 0x70E JUMP JUMPDEST SWAP1 PUSH1 0x24 CALLDATALOAD SWAP1 DUP2 GT PUSH2 0x31A JUMPI PUSH2 0x7C0 SWAP1 CALLDATASIZE SWAP1 PUSH1 0x4 ADD PUSH2 0x70E JUMP JUMPDEST SWAP1 PUSH1 0x44 CALLDATALOAD PUSH1 0x1 PUSH1 0x1 PUSH1 0xA0 SHL SUB DUP2 AND DUP2 SUB PUSH2 0x31A JUMPI PUSH2 0x806 SWAP3 PUSH2 0x7F6 SWAP3 PUSH1 0xA4 CALLDATALOAD SWAP3 PUSH2 0x7E9 DUP5 PUSH2 0x76B JUMP JUMPDEST PUSH1 0x84 CALLDATALOAD SWAP3 PUSH1 0x64 CALLDATALOAD SWAP3 PUSH2 0x1784 JUMP JUMPDEST PUSH1 0x40 MLOAD SWAP1 DUP2 MSTORE SWAP1 DUP2 SWAP1 PUSH1 0x20 DUP3 ADD SWAP1 JUMP JUMPDEST SUB SWAP1 RETURN JUMPDEST CALLVALUE PUSH2 0x31A JUMPI PUSH1 0x40 CALLDATASIZE PUSH1 0x3 NOT ADD SLT PUSH2 0x31A JUMPI PUSH1 0x24 CALLDATALOAD PUSH1 0x4 CALLDATALOAD PUSH2 0x829 PUSH2 0x140C JUMP JUMPDEST DUP2 DUP2 GT PUSH2 0x838 JUMPI PUSH1 0x6 SSTORE PUSH1 0x7 SSTORE STOP JUMPDEST PUSH1 0x40 MLOAD PUSH3 0x461BCD PUSH1 0xE5 SHL DUP2 MSTORE PUSH1 0x20 PUSH1 0x4 DUP3 ADD MSTORE PUSH1 0x24 DUP1 DUP3 ADD MSTORE PUSH32 0x4D696E206475726174696F6E206D757374206265203C3D206D61782064757261 PUSH1 0x44 DUP3 ADD MSTORE PUSH4 0x3A34B7B7 PUSH1 0xE1 SHL PUSH1 0x64 DUP3 ADD MSTORE PUSH1 0x84 SWAP1 REVERT JUMPDEST CALLVALUE PUSH2 0x31A JUMPI PUSH1 0x40 CALLDATASIZE PUSH1 0x3 NOT ADD SLT PUSH2 0x31A JUMPI PUSH2 0x8A2 PUSH2 0x755 JUMP JUMPDEST PUSH1 0x24 CALLDATALOAD SWAP1 PUSH2 0x8AE PUSH2 0x140C JUMP JUMPDEST PUSH1 0x40 MLOAD PUSH4 0x70A08231 PUSH1 0xE0 SHL DUP2 MSTORE ADDRESS PUSH1 0x4 DUP3 ADD MSTORE SWAP2 SWAP1 PUSH1 0x1 PUSH1 0x1 PUSH1 0xA0 SHL SUB AND PUSH1 0x20 DUP4 PUSH1 0x24 DUP2 DUP5 GAS STATICCALL SWAP3 DUP4 ISZERO PUSH2 0x92A JUMPI PUSH2 0x19 SWAP4 PUSH2 0x8F5 SWAP2 PUSH1 0x0 SWAP2 PUSH2 0x8FC JUMPI JUMPDEST POP DUP4 GT ISZERO PUSH2 0x2141 JUMP JUMPDEST CALLER SWAP1 PUSH2 0x1E3E JUMP JUMPDEST PUSH2 0x91D SWAP2 POP PUSH1 0x20 RETURNDATASIZE DUP2 GT PUSH2 0x923 JUMPI JUMPDEST PUSH2 0x915 DUP2 DUP4 PUSH2 0x6AF JUMP JUMPDEST DUP2 ADD SWAP1 PUSH2 0x19FA JUMP JUMPDEST CODESIZE PUSH2 0x8EC JUMP JUMPDEST POP RETURNDATASIZE PUSH2 0x90B JUMP JUMPDEST PUSH2 0x1A09 JUMP JUMPDEST CALLVALUE PUSH2 0x31A JUMPI PUSH1 0x0 CALLDATASIZE PUSH1 0x3 NOT ADD SLT PUSH2 0x31A JUMPI PUSH1 0x20 PUSH1 0x4 SLOAD PUSH1 0x40 MLOAD SWAP1 DUP2 MSTORE RETURN JUMPDEST SWAP1 PUSH1 0x1 DUP3 DUP2 SHR SWAP3 AND DUP1 ISZERO PUSH2 0x97D JUMPI JUMPDEST PUSH1 0x20 DUP4 LT EQ PUSH2 0x967 JUMPI JUMP JUMPDEST PUSH4 0x4E487B71 PUSH1 0xE0 SHL PUSH1 0x0 MSTORE PUSH1 0x22 PUSH1 0x4 MSTORE PUSH1 0x24 PUSH1 0x0 REVERT JUMPDEST SWAP2 PUSH1 0x7F AND SWAP2 PUSH2 0x95C JUMP JUMPDEST SWAP1 PUSH1 0x0 SWAP3 SWAP2 DUP1 SLOAD SWAP2 PUSH2 0x998 DUP4 PUSH2 0x94D JUMP JUMPDEST SWAP2 DUP3 DUP3 MSTORE PUSH1 0x1 SWAP4 DUP5 DUP2 AND SWAP1 DUP2 PUSH1 0x0 EQ PUSH2 0x9FA JUMPI POP PUSH1 0x1 EQ PUSH2 0x9BA JUMPI JUMPDEST POP POP POP POP JUMP JUMPDEST SWAP1 SWAP2 SWAP4 SWAP5 POP PUSH1 0x0 MSTORE PUSH1 0x20 SWAP3 DUP4 PUSH1 0x0 KECCAK256 SWAP3 DUP5 PUSH1 0x0 SWAP5 JUMPDEST DUP4 DUP7 LT PUSH2 0x9E6 JUMPI POP POP POP POP ADD ADD SWAP1 CODESIZE DUP1 DUP1 DUP1 PUSH2 0x9B4 JUMP JUMPDEST DUP1 SLOAD DUP6 DUP8 ADD DUP4 ADD MSTORE SWAP5 ADD SWAP4 DUP6 SWAP1 DUP3 ADD PUSH2 0x9CF JUMP JUMPDEST SWAP3 SWAP5 POP POP POP PUSH1 0x20 SWAP4 SWAP5 POP PUSH1 0xFF NOT AND DUP4 DUP4 ADD MSTORE ISZERO ISZERO PUSH1 0x5 SHL ADD ADD SWAP1 CODESIZE DUP1 DUP1 DUP1 PUSH2 0x9B4 JUMP JUMPDEST SWAP1 PUSH2 0xA38 PUSH2 0xA31 SWAP3 PUSH1 0x40 MLOAD SWAP4 DUP5 DUP1 SWAP3 PUSH2 0x987 JUMP JUMPDEST SUB DUP4 PUSH2 0x6AF JUMP JUMPDEST JUMP JUMPDEST SWAP7 SWAP3 PUSH2 0x140 SWAP9 SWAP5 PUSH2 0xA76 PUSH2 0xA84 SWAP3 SWAP8 SWAP15 SWAP14 SWAP12 SWAP8 PUSH2 0xA38 SWAP14 SWAP10 SWAP6 SWAP5 DUP12 MSTORE PUSH1 0x1 DUP1 PUSH1 0xA0 SHL SUB DUP1 SWAP6 AND PUSH1 0x20 DUP13 ADD MSTORE PUSH2 0x160 DUP1 PUSH1 0x40 DUP14 ADD MSTORE DUP12 ADD SWAP1 PUSH2 0x180 JUMP JUMPDEST SWAP1 DUP10 DUP3 SUB PUSH1 0x60 DUP12 ADD MSTORE PUSH2 0x180 JUMP JUMPDEST SWAP12 AND PUSH1 0x80 DUP8 ADD MSTORE PUSH1 0xA0 DUP7 ADD MSTORE PUSH1 0xC0 DUP6 ADD MSTORE PUSH1 0xE0 DUP5 ADD MSTORE PUSH2 0x100 DUP4 ADD MSTORE ISZERO ISZERO PUSH2 0x120 DUP3 ADD MSTORE ADD SWAP1 PUSH2 0x1E0 JUMP JUMPDEST CALLVALUE PUSH2 0x31A JUMPI PUSH1 0x20 CALLDATASIZE PUSH1 0x3 NOT ADD SLT PUSH2 0x31A JUMPI PUSH1 0x4 CALLDATALOAD PUSH1 0x0 MSTORE PUSH1 0x8 PUSH1 0x20 MSTORE PUSH1 0x40 PUSH1 0x0 KECCAK256 DUP1 SLOAD SWAP1 PUSH2 0x806 PUSH1 0x1 DUP1 PUSH1 0xA0 SHL SUB PUSH1 0x1 DUP4 ADD SLOAD AND SWAP2 PUSH1 0x40 MLOAD SWAP4 PUSH2 0xB00 DUP6 PUSH2 0xAF9 DUP2 PUSH1 0x2 DUP7 ADD PUSH2 0x987 JUMP JUMPDEST SUB DUP7 PUSH2 0x6AF JUMP JUMPDEST PUSH1 0x40 MLOAD SWAP2 PUSH2 0xB1C DUP4 PUSH2 0xB15 DUP2 PUSH1 0x3 DUP6 ADD PUSH2 0x987 JUMP JUMPDEST SUB DUP5 PUSH2 0x6AF JUMP JUMPDEST PUSH1 0x4 DUP2 ADD SLOAD PUSH1 0x1 PUSH1 0x1 PUSH1 0xA0 SHL SUB AND PUSH1 0x5 DUP3 ADD SLOAD PUSH1 0x6 DUP4 ADD SLOAD SWAP1 PUSH1 0x7 DUP5 ADD SLOAD SWAP3 PUSH1 0x9 PUSH1 0x8 DUP7 ADD SLOAD SWAP6 ADD SLOAD SWAP7 PUSH1 0x40 MLOAD SWAP11 DUP12 SWAP11 PUSH1 0xFF DUP1 DUP12 PUSH1 0x8 SHR AND SWAP11 AND SWAP9 DUP13 PUSH2 0xA3A JUMP JUMPDEST CALLVALUE PUSH2 0x31A JUMPI PUSH1 0x20 CALLDATASIZE PUSH1 0x3 NOT ADD SLT PUSH2 0x31A JUMPI PUSH1 0x4 CALLDATALOAD PUSH2 0xB79 PUSH2 0x140C JUMP JUMPDEST PUSH2 0x1F4 DUP2 GT PUSH2 0xBB3 JUMPI PUSH1 0x20 DUP2 PUSH32 0xD10D75876659A287A59A6CCFA2E3FFF42F84D94B542837ACD30BC184D562DE40 SWAP3 PUSH1 0x4 SSTORE PUSH1 0x40 MLOAD SWAP1 DUP2 MSTORE LOG1 STOP JUMPDEST PUSH1 0x40 MLOAD PUSH3 0x461BCD PUSH1 0xE5 SHL DUP2 MSTORE PUSH1 0x20 PUSH1 0x4 DUP3 ADD MSTORE PUSH1 0x14 PUSH1 0x24 DUP3 ADD MSTORE PUSH20 0x4665652063616E6E6F7420657863656564203525 PUSH1 0x60 SHL PUSH1 0x44 DUP3 ADD MSTORE PUSH1 0x64 SWAP1 REVERT JUMPDEST SWAP1 PUSH1 0x20 PUSH2 0x297 SWAP3 DUP2 DUP2 MSTORE ADD SWAP1 PUSH2 0x1ED JUMP JUMPDEST CALLVALUE PUSH2 0x31A JUMPI PUSH1 0x20 CALLDATASIZE PUSH1 0x3 NOT ADD SLT PUSH2 0x31A JUMPI PUSH1 0x4 CALLDATALOAD PUSH2 0xC1C PUSH2 0x1E8E JUMP JUMPDEST POP DUP1 PUSH1 0x0 MSTORE PUSH1 0x8 PUSH1 0x20 MSTORE PUSH2 0xC36 PUSH1 0x40 PUSH1 0x0 KECCAK256 SLOAD ISZERO ISZERO PUSH2 0x18EC JUMP JUMPDEST PUSH1 0x0 MSTORE PUSH1 0x8 PUSH1 0x20 MSTORE PUSH2 0xC4B PUSH1 0x40 PUSH1 0x0 KECCAK256 PUSH2 0x1F00 JUMP JUMPDEST PUSH2 0xC60 PUSH2 0xC5C PUSH2 0x120 DUP4 ADD MLOAD ISZERO ISZERO SWAP1 JUMP JUMPDEST ISZERO SWAP1 JUMP JUMPDEST DUP1 PUSH2 0xCBF JUMPI JUMPDEST PUSH2 0xC7A JUMPI PUSH2 0x806 SWAP1 PUSH1 0x40 MLOAD SWAP2 DUP3 SWAP2 DUP3 PUSH2 0xBEF JUMP JUMPDEST PUSH1 0x40 MLOAD PUSH3 0x461BCD PUSH1 0xE5 SHL DUP2 MSTORE PUSH1 0x20 PUSH1 0x4 DUP3 ADD DUP2 SWAP1 MSTORE PUSH1 0x24 DUP3 ADD MSTORE PUSH32 0x4E6F7420617574686F72697A656420746F2076696577207468697320676F616C PUSH1 0x44 DUP3 ADD MSTORE PUSH1 0x64 SWAP1 REVERT JUMPDEST POP PUSH1 0x20 DUP2 ADD MLOAD PUSH1 0x1 PUSH1 0x1 PUSH1 0xA0 SHL SUB AND PUSH1 0x1 PUSH1 0x1 PUSH1 0xA0 SHL SUB AND CALLER EQ ISZERO PUSH2 0xC66 JUMP JUMPDEST CALLVALUE PUSH2 0x31A JUMPI PUSH1 0x0 DUP1 PUSH1 0x3 NOT CALLDATASIZE ADD SLT PUSH2 0xD3A JUMPI PUSH2 0xCF9 PUSH2 0x140C JUMP JUMPDEST DUP1 SLOAD PUSH1 0x1 PUSH1 0x1 PUSH1 0xA0 SHL SUB NOT DUP2 AND DUP3 SSTORE DUP2 SWAP1 PUSH1 0x1 PUSH1 0x1 PUSH1 0xA0 SHL SUB AND PUSH32 0x8BE0079C531659141344CD1FD0A4F28419497F9722A3DAAFE3B4186F6B6457E0 DUP3 DUP1 LOG3 DUP1 RETURN JUMPDEST DUP1 REVERT JUMPDEST CALLVALUE PUSH2 0x31A JUMPI PUSH1 0x0 CALLDATASIZE PUSH1 0x3 NOT ADD SLT PUSH2 0x31A JUMPI PUSH1 0x0 SLOAD PUSH1 0x40 MLOAD PUSH1 0x1 PUSH1 0x1 PUSH1 0xA0 SHL SUB SWAP1 SWAP2 AND DUP2 MSTORE PUSH1 0x20 SWAP1 RETURN JUMPDEST CALLVALUE PUSH2 0x31A JUMPI PUSH1 0x20 CALLDATASIZE PUSH1 0x3 NOT ADD SLT PUSH2 0x31A JUMPI PUSH2 0xD7F PUSH2 0x755 JUMP JUMPDEST PUSH2 0xD87 PUSH2 0x140C JUMP JUMPDEST PUSH1 0x1 PUSH1 0x1 PUSH1 0xA0 SHL SUB AND DUP1 ISZERO PUSH2 0xDB3 JUMPI PUSH12 0xFFFFFFFFFFFFFFFFFFFFFFFF PUSH1 0xA0 SHL PUSH1 0x3 SLOAD AND OR PUSH1 0x3 SSTORE PUSH1 0x0 DUP1 RETURN JUMPDEST PUSH1 0x40 MLOAD PUSH3 0x461BCD PUSH1 0xE5 SHL DUP2 MSTORE PUSH1 0x20 PUSH1 0x4 DUP3 ADD MSTORE PUSH1 0x1E PUSH1 0x24 DUP3 ADD MSTORE PUSH32 0x476F616C4E46542063616E6E6F74206265207A65726F20616464726573730000 PUSH1 0x44 DUP3 ADD MSTORE PUSH1 0x64 SWAP1 REVERT JUMPDEST CALLVALUE PUSH2 0x31A JUMPI PUSH1 0x0 CALLDATASIZE PUSH1 0x3 NOT ADD SLT PUSH2 0x31A JUMPI PUSH1 0x20 PUSH1 0x7 SLOAD PUSH1 0x40 MLOAD SWAP1 DUP2 MSTORE RETURN JUMPDEST PUSH4 0x4E487B71 PUSH1 0xE0 SHL PUSH1 0x0 MSTORE PUSH1 0x32 PUSH1 0x4 MSTORE PUSH1 0x24 PUSH1 0x0 REVERT JUMPDEST DUP1 SLOAD DUP3 LT ISZERO PUSH2 0xE44 JUMPI PUSH1 0x0 MSTORE PUSH1 0x20 PUSH1 0x0 KECCAK256 ADD SWAP1 PUSH1 0x0 SWAP1 JUMP JUMPDEST PUSH2 0xE16 JUMP JUMPDEST CALLVALUE PUSH2 0x31A JUMPI PUSH1 0x40 CALLDATASIZE PUSH1 0x3 NOT ADD SLT PUSH2 0x31A JUMPI PUSH2 0xE62 PUSH2 0x755 JUMP JUMPDEST PUSH1 0x1 PUSH1 0x1 PUSH1 0xA0 SHL SUB AND PUSH1 0x0 SWAP1 DUP2 MSTORE PUSH1 0x9 PUSH1 0x20 MSTORE PUSH1 0x40 SWAP1 KECCAK256 DUP1 SLOAD PUSH1 0x24 CALLDATALOAD SWAP2 SWAP1 DUP3 LT ISZERO PUSH2 0x31A JUMPI PUSH1 0x20 SWAP2 PUSH2 0xE93 SWAP2 PUSH2 0xE2C JUMP JUMPDEST SWAP1 SLOAD PUSH1 0x40 MLOAD SWAP2 PUSH1 0x3 SHL SHR DUP2 MSTORE RETURN JUMPDEST CALLVALUE PUSH2 0x31A JUMPI PUSH1 0x0 CALLDATASIZE PUSH1 0x3 NOT ADD SLT PUSH2 0x31A JUMPI PUSH1 0x3 SLOAD PUSH1 0x40 MLOAD PUSH1 0x1 PUSH1 0x1 PUSH1 0xA0 SHL SUB SWAP1 SWAP2 AND DUP2 MSTORE PUSH1 0x20 SWAP1 RETURN JUMPDEST CALLVALUE PUSH2 0x31A JUMPI PUSH1 0x0 CALLDATASIZE PUSH1 0x3 NOT ADD SLT PUSH2 0x31A JUMPI PUSH1 0x5 SLOAD PUSH1 0x40 MLOAD PUSH1 0x1 PUSH1 0x1 PUSH1 0xA0 SHL SUB SWAP1 SWAP2 AND DUP2 MSTORE PUSH1 0x20 SWAP1 RETURN JUMPDEST CALLVALUE PUSH2 0x31A JUMPI PUSH1 0x0 CALLDATASIZE PUSH1 0x3 NOT ADD SLT PUSH2 0x31A JUMPI PUSH1 0x20 PUSH1 0x6 SLOAD PUSH1 0x40 MLOAD SWAP1 DUP2 MSTORE RETURN JUMPDEST PUSH1 0x20 SWAP1 DUP2 PUSH1 0x40 DUP2 DUP4 ADD SWAP3 DUP3 DUP2 MSTORE DUP6 MLOAD DUP1 SWAP5 MSTORE ADD SWAP4 ADD SWAP2 PUSH1 0x0 JUMPDEST DUP3 DUP2 LT PUSH2 0xF38 JUMPI POP POP POP POP SWAP1 JUMP JUMPDEST DUP4 MLOAD DUP6 MSTORE SWAP4 DUP2 ADD SWAP4 SWAP3 DUP2 ADD SWAP3 PUSH1 0x1 ADD PUSH2 0xF2A JUMP JUMPDEST CALLVALUE PUSH2 0x31A JUMPI PUSH1 0x20 DUP1 PUSH1 0x3 NOT CALLDATASIZE ADD SLT PUSH2 0x31A JUMPI PUSH1 0x1 PUSH1 0x1 PUSH1 0xA0 SHL SUB PUSH2 0xF6E PUSH2 0x755 JUMP JUMPDEST AND PUSH1 0x0 MSTORE PUSH1 0x9 DUP2 MSTORE PUSH1 0x40 PUSH1 0x0 KECCAK256 SWAP1 PUSH1 0x40 MLOAD SWAP1 DUP2 DUP2 DUP5 SLOAD SWAP2 DUP3 DUP2 MSTORE ADD SWAP4 PUSH1 0x0 MSTORE DUP2 PUSH1 0x0 KECCAK256 SWAP2 PUSH1 0x0 SWAP1 JUMPDEST DUP3 DUP3 LT PUSH2 0xFB9 JUMPI PUSH2 0x806 DUP6 PUSH2 0xFAD DUP2 DUP10 SUB DUP3 PUSH2 0x6AF JUMP JUMPDEST PUSH1 0x40 MLOAD SWAP2 DUP3 SWAP2 DUP3 PUSH2 0xF11 JUMP JUMPDEST DUP4 SLOAD DUP7 MSTORE SWAP5 DUP6 ADD SWAP5 PUSH1 0x1 SWAP4 DUP5 ADD SWAP4 SWAP1 SWAP2 ADD SWAP1 PUSH2 0xF96 JUMP JUMPDEST CALLVALUE PUSH2 0x31A JUMPI PUSH1 0x20 CALLDATASIZE PUSH1 0x3 NOT ADD SLT PUSH2 0x31A JUMPI PUSH2 0xFE9 PUSH2 0x755 JUMP JUMPDEST PUSH2 0xFF1 PUSH2 0x140C JUMP JUMPDEST PUSH1 0x1 PUSH1 0x1 PUSH1 0xA0 SHL SUB DUP2 AND DUP1 ISZERO PUSH2 0x104E JUMPI PUSH1 0x5 DUP1 SLOAD PUSH1 0x1 PUSH1 0x1 PUSH1 0xA0 SHL SUB NOT AND SWAP2 SWAP1 SWAP2 OR SWAP1 SSTORE PUSH1 0x40 MLOAD PUSH1 0x1 PUSH1 0x1 PUSH1 0xA0 SHL SUB SWAP2 SWAP1 SWAP2 AND DUP2 MSTORE PUSH32 0xE5693914D19C789BDEE50A362998C0BC8D035A835F9871DA5D51152F0582C34F SWAP1 PUSH1 0x20 SWAP1 LOG1 STOP JUMPDEST PUSH1 0x40 MLOAD PUSH3 0x461BCD PUSH1 0xE5 SHL DUP2 MSTORE PUSH1 0x20 PUSH1 0x4 DUP3 ADD MSTORE PUSH1 0x24 DUP1 DUP3 ADD MSTORE PUSH32 0x46656520636F6C6C6563746F722063616E6E6F74206265207A65726F20616464 PUSH1 0x44 DUP3 ADD MSTORE PUSH4 0x72657373 PUSH1 0xE0 SHL PUSH1 0x64 DUP3 ADD MSTORE PUSH1 0x84 SWAP1 REVERT JUMPDEST PUSH1 0x40 DUP1 PUSH1 0x3 NOT CALLDATASIZE ADD SLT PUSH2 0x31A JUMPI PUSH1 0x4 CALLDATALOAD PUSH1 0x24 CALLDATALOAD SWAP2 PUSH2 0x10BB PUSH2 0x1AB8 JUMP JUMPDEST PUSH2 0x10CF DUP3 PUSH1 0x0 MSTORE PUSH1 0x8 PUSH1 0x20 MSTORE PUSH1 0x40 PUSH1 0x0 KECCAK256 SWAP1 JUMP JUMPDEST SWAP1 PUSH2 0x10DC DUP3 SLOAD ISZERO ISZERO PUSH2 0x18EC JUMP JUMPDEST PUSH1 0x9 DUP3 ADD DUP1 SLOAD PUSH2 0x10FB SWAP1 PUSH1 0x8 SHR PUSH1 0xFF AND PUSH2 0x10F5 DUP2 PUSH2 0x1C0 JUMP JUMPDEST ISZERO PUSH2 0x192E JUMP JUMPDEST PUSH2 0x110A PUSH1 0x8 DUP5 ADD SLOAD TIMESTAMP LT PUSH2 0x196F JUMP JUMPDEST PUSH1 0x4 DUP4 ADD SLOAD PUSH1 0x1 PUSH1 0x1 PUSH1 0xA0 SHL SUB SWAP4 SWAP1 DUP5 AND DUP1 PUSH2 0x1280 JUMPI POP PUSH2 0x112C DUP7 CALLVALUE EQ PUSH2 0x1A30 JUMP JUMPDEST PUSH1 0x6 DUP2 ADD PUSH2 0x113B CALLVALUE DUP3 SLOAD PUSH2 0x1A23 JUMP JUMPDEST SWAP1 SSTORE JUMPDEST PUSH1 0x6 DUP2 ADD SWAP2 DUP3 SLOAD PUSH1 0x5 DUP4 ADD SLOAD GT ISZERO PUSH2 0x1186 JUMPI JUMPDEST DUP4 MLOAD DUP8 DUP2 MSTORE CALLER SWAP1 DUP8 SWAP1 PUSH32 0xEAA18152488CE5959073C9C79C88CA90B3D96C00DE1F118CFAAD664C3DAB06B9 SWAP1 DUP1 PUSH1 0x20 DUP2 ADD PUSH2 0x4E3 JUMP JUMPDEST DUP1 SLOAD PUSH2 0xFF00 NOT AND PUSH2 0x100 OR SWAP1 SSTORE PUSH1 0x3 SLOAD PUSH2 0x11A8 SWAP1 PUSH1 0x1 PUSH1 0x1 PUSH1 0xA0 SHL SUB AND PUSH2 0x50F JUMP JUMPDEST PUSH1 0x1 DUP3 ADD DUP1 SLOAD SWAP1 SWAP3 PUSH1 0x20 SWAP2 PUSH1 0x1 PUSH1 0x1 PUSH1 0xA0 SHL SUB AND SWAP3 PUSH1 0x2 PUSH1 0x0 DUP4 SLOAD SWAP4 PUSH2 0x11E5 DUP11 MLOAD SWAP8 DUP9 SWAP7 DUP8 SWAP6 DUP7 SWAP5 PUSH4 0x112232F5 PUSH1 0xE3 SHL DUP7 MSTORE ADD SWAP2 PUSH1 0x4 DUP6 ADD PUSH2 0x1A94 JUMP JUMPDEST SUB SWAP3 GAS CALL SWAP5 DUP6 ISZERO PUSH2 0x92A JUMPI PUSH2 0x124C DUP8 SWAP4 PUSH32 0xF1E784B979C484AE49B13FE4D42C00FEA7F6BD55F7FBB717841D97571A6C2480 SWAP4 PUSH32 0xEAA18152488CE5959073C9C79C88CA90B3D96C00DE1F118CFAAD664C3DAB06B9 SWAP9 PUSH2 0x1262 JUMPI JUMPDEST POP SLOAD PUSH1 0x1 PUSH1 0x1 PUSH1 0xA0 SHL SUB AND SWAP1 JUMP JUMPDEST SWAP4 SLOAD DUP6 MLOAD SWAP1 DUP2 MSTORE SWAP4 AND SWAP3 PUSH1 0x20 SWAP1 LOG3 CODESIZE DUP1 DUP1 PUSH2 0x1151 JUMP JUMPDEST PUSH2 0x1279 SWAP1 PUSH1 0x20 RETURNDATASIZE DUP2 GT PUSH2 0x923 JUMPI PUSH2 0x915 DUP2 DUP4 PUSH2 0x6AF JUMP JUMPDEST POP CODESIZE PUSH2 0x123E JUMP JUMPDEST PUSH2 0x128A CALLVALUE ISZERO PUSH2 0x19AE JUMP JUMPDEST DUP4 MLOAD PUSH4 0x70A08231 PUSH1 0xE0 SHL DUP1 DUP3 MSTORE ADDRESS PUSH1 0x4 DUP4 ADD MSTORE PUSH1 0x20 SWAP3 SWAP1 SWAP2 DUP4 DUP2 PUSH1 0x24 DUP2 DUP6 GAS STATICCALL SWAP3 DUP4 ISZERO PUSH2 0x92A JUMPI DUP5 SWAP2 PUSH1 0x0 SWAP5 PUSH2 0x132A JUMPI JUMPDEST POP PUSH2 0x12C8 DUP12 ADDRESS CALLER DUP7 PUSH2 0x1B0E JUMP JUMPDEST DUP8 MLOAD SWAP1 DUP2 MSTORE ADDRESS PUSH1 0x4 DUP3 ADD MSTORE SWAP2 DUP3 SWAP1 PUSH1 0x24 SWAP1 DUP3 SWAP1 GAS STATICCALL SWAP1 DUP2 ISZERO PUSH2 0x92A JUMPI PUSH2 0x12F7 SWAP4 PUSH1 0x0 SWAP3 PUSH2 0x130D JUMPI JUMPDEST POP POP PUSH2 0x1562 JUMP JUMPDEST PUSH2 0x1306 PUSH1 0x6 DUP4 ADD SWAP2 DUP3 SLOAD PUSH2 0x1A23 JUMP JUMPDEST SWAP1 SSTORE PUSH2 0x113E JUMP JUMPDEST PUSH2 0x1323 SWAP3 POP DUP1 RETURNDATASIZE LT PUSH2 0x923 JUMPI PUSH2 0x915 DUP2 DUP4 PUSH2 0x6AF JUMP JUMPDEST CODESIZE DUP1 PUSH2 0x12F0 JUMP JUMPDEST PUSH2 0x1342 SWAP2 SWAP5 POP DUP3 RETURNDATASIZE DUP5 GT PUSH2 0x923 JUMPI PUSH2 0x915 DUP2 DUP4 PUSH2 0x6AF JUMP JUMPDEST SWAP3 CODESIZE PUSH2 0x12BB JUMP JUMPDEST CALLVALUE PUSH2 0x31A JUMPI PUSH1 0x20 CALLDATASIZE PUSH1 0x3 NOT ADD SLT PUSH2 0x31A JUMPI PUSH2 0x1362 PUSH2 0x755 JUMP JUMPDEST PUSH2 0x136A PUSH2 0x140C JUMP JUMPDEST PUSH1 0x1 PUSH1 0x1 PUSH1 0xA0 SHL SUB SWAP1 DUP2 AND DUP1 ISZERO PUSH2 0x13B8 JUMPI PUSH1 0x0 DUP1 SLOAD PUSH1 0x1 PUSH1 0x1 PUSH1 0xA0 SHL SUB NOT DUP2 AND DUP4 OR DUP3 SSTORE SWAP1 SWAP3 AND PUSH32 0x8BE0079C531659141344CD1FD0A4F28419497F9722A3DAAFE3B4186F6B6457E0 DUP4 DUP1 LOG3 DUP1 RETURN JUMPDEST PUSH1 0x40 MLOAD PUSH3 0x461BCD PUSH1 0xE5 SHL DUP2 MSTORE PUSH1 0x20 PUSH1 0x4 DUP3 ADD MSTORE PUSH1 0x26 PUSH1 0x24 DUP3 ADD MSTORE PUSH32 0x4F776E61626C653A206E6577206F776E657220697320746865207A65726F2061 PUSH1 0x44 DUP3 ADD MSTORE PUSH6 0x646472657373 PUSH1 0xD0 SHL PUSH1 0x64 DUP3 ADD MSTORE PUSH1 0x84 SWAP1 REVERT JUMPDEST PUSH1 0x0 SLOAD PUSH1 0x1 PUSH1 0x1 PUSH1 0xA0 SHL SUB AND CALLER SUB PUSH2 0x1420 JUMPI JUMP JUMPDEST PUSH1 0x64 PUSH1 0x40 MLOAD PUSH3 0x461BCD PUSH1 0xE5 SHL DUP2 MSTORE PUSH1 0x20 PUSH1 0x4 DUP3 ADD MSTORE PUSH1 0x20 PUSH1 0x24 DUP3 ADD MSTORE PUSH32 0x4F776E61626C653A2063616C6C6572206973206E6F7420746865206F776E6572 PUSH1 0x44 DUP3 ADD MSTORE REVERT JUMPDEST ISZERO PUSH2 0x146B JUMPI JUMP JUMPDEST PUSH1 0x40 MLOAD PUSH3 0x461BCD PUSH1 0xE5 SHL DUP2 MSTORE PUSH1 0x20 PUSH1 0x4 DUP3 ADD MSTORE PUSH1 0x15 PUSH1 0x24 DUP3 ADD MSTORE PUSH21 0x5469746C652063616E6E6F7420626520656D707479 PUSH1 0x58 SHL PUSH1 0x44 DUP3 ADD MSTORE PUSH1 0x64 SWAP1 REVERT JUMPDEST ISZERO PUSH2 0x14AF JUMPI JUMP JUMPDEST PUSH1 0x40 MLOAD PUSH3 0x461BCD PUSH1 0xE5 SHL DUP2 MSTORE PUSH1 0x20 PUSH1 0x4 DUP3 ADD MSTORE PUSH1 0x24 DUP1 DUP3 ADD MSTORE PUSH32 0x54617267657420616D6F756E74206D7573742062652067726561746572207468 PUSH1 0x44 DUP3 ADD MSTORE PUSH4 0x616E203 PUSH1 0xE4 SHL PUSH1 0x64 DUP3 ADD MSTORE PUSH1 0x84 SWAP1 REVERT JUMPDEST ISZERO PUSH2 0x1507 JUMPI JUMP JUMPDEST PUSH1 0x40 MLOAD PUSH3 0x461BCD PUSH1 0xE5 SHL DUP2 MSTORE PUSH1 0x20 PUSH1 0x4 DUP3 ADD MSTORE PUSH1 0x1E PUSH1 0x24 DUP3 ADD MSTORE PUSH32 0x446561646C696E65206D75737420626520696E20746865206675747572650000 PUSH1 0x44 DUP3 ADD MSTORE PUSH1 0x64 SWAP1 REVERT JUMPDEST PUSH4 0x4E487B71 PUSH1 0xE0 SHL PUSH1 0x0 MSTORE PUSH1 0x11 PUSH1 0x4 MSTORE PUSH1 0x24 PUSH1 0x0 REVERT JUMPDEST SWAP2 SWAP1 DUP3 SUB SWAP2 DUP3 GT PUSH2 0x156F JUMPI JUMP JUMPDEST PUSH2 0x154C JUMP JUMPDEST ISZERO PUSH2 0x157B JUMPI JUMP JUMPDEST PUSH1 0x40 MLOAD PUSH3 0x461BCD PUSH1 0xE5 SHL DUP2 MSTORE PUSH1 0x20 PUSH1 0x4 DUP3 ADD MSTORE PUSH1 0x17 PUSH1 0x24 DUP3 ADD MSTORE PUSH32 0x476F616C206475726174696F6E20746F6F2073686F7274000000000000000000 PUSH1 0x44 DUP3 ADD MSTORE PUSH1 0x64 SWAP1 REVERT JUMPDEST ISZERO PUSH2 0x15C7 JUMPI JUMP JUMPDEST PUSH1 0x40 MLOAD PUSH3 0x461BCD PUSH1 0xE5 SHL DUP2 MSTORE PUSH1 0x20 PUSH1 0x4 DUP3 ADD MSTORE PUSH1 0x16 PUSH1 0x24 DUP3 ADD MSTORE PUSH22 0x476F616C206475726174696F6E20746F6F206C6F6E67 PUSH1 0x50 SHL PUSH1 0x44 DUP3 ADD MSTORE PUSH1 0x64 SWAP1 REVERT JUMPDEST SWAP1 PUSH1 0x1F DUP2 GT PUSH2 0x1613 JUMPI POP POP POP JUMP JUMPDEST PUSH1 0x0 SWAP2 DUP3 MSTORE PUSH1 0x20 DUP3 KECCAK256 SWAP1 PUSH1 0x20 PUSH1 0x1F DUP6 ADD PUSH1 0x5 SHR DUP4 ADD SWAP5 LT PUSH2 0x164F JUMPI JUMPDEST PUSH1 0x1F ADD PUSH1 0x5 SHR ADD SWAP2 JUMPDEST DUP3 DUP2 LT PUSH2 0x1644 JUMPI POP POP POP JUMP JUMPDEST DUP2 DUP2 SSTORE PUSH1 0x1 ADD PUSH2 0x1638 JUMP JUMPDEST SWAP1 SWAP3 POP DUP3 SWAP1 PUSH2 0x162F JUMP JUMPDEST SWAP2 SWAP1 SWAP2 DUP3 MLOAD PUSH8 0xFFFFFFFFFFFFFFFF DUP2 GT PUSH2 0x6AA JUMPI PUSH2 0x1681 DUP2 PUSH2 0x167B DUP5 SLOAD PUSH2 0x94D JUMP JUMPDEST DUP5 PUSH2 0x1605 JUMP JUMPDEST PUSH1 0x20 DUP1 PUSH1 0x1F DUP4 GT PUSH1 0x1 EQ PUSH2 0x16BD JUMPI POP DUP2 SWAP3 SWAP4 SWAP5 PUSH1 0x0 SWAP3 PUSH2 0x16B2 JUMPI JUMPDEST POP POP DUP2 PUSH1 0x1 SHL SWAP2 PUSH1 0x0 NOT SWAP1 PUSH1 0x3 SHL SHR NOT AND OR SWAP1 SSTORE JUMP JUMPDEST ADD MLOAD SWAP1 POP CODESIZE DUP1 PUSH2 0x169C JUMP JUMPDEST SWAP1 PUSH1 0x1F NOT DUP4 AND SWAP6 PUSH2 0x16D3 DUP6 PUSH1 0x0 MSTORE PUSH1 0x20 PUSH1 0x0 KECCAK256 SWAP1 JUMP JUMPDEST SWAP3 PUSH1 0x0 SWAP1 JUMPDEST DUP9 DUP3 LT PUSH2 0x1710 JUMPI POP POP DUP4 PUSH1 0x1 SWAP6 SWAP7 SWAP8 LT PUSH2 0x16F7 JUMPI JUMPDEST POP POP POP DUP2 SHL ADD SWAP1 SSTORE JUMP JUMPDEST ADD MLOAD PUSH1 0x0 NOT PUSH1 0xF8 DUP5 PUSH1 0x3 SHL AND SHR NOT AND SWAP1 SSTORE CODESIZE DUP1 DUP1 PUSH2 0x16ED JUMP JUMPDEST DUP1 PUSH1 0x1 DUP6 SWAP7 DUP3 SWAP5 SWAP7 DUP7 ADD MLOAD DUP2 SSTORE ADD SWAP6 ADD SWAP4 ADD SWAP1 PUSH2 0x16D8 JUMP JUMPDEST DUP1 SLOAD PUSH9 0x10000000000000000 DUP2 LT ISZERO PUSH2 0x6AA JUMPI PUSH2 0x174A SWAP2 PUSH1 0x1 DUP3 ADD DUP2 SSTORE PUSH2 0xE2C JUMP JUMPDEST DUP2 SWAP3 SWAP2 SLOAD SWAP1 PUSH1 0x3 SHL SWAP2 DUP3 SHL SWAP2 PUSH1 0x0 NOT SWAP1 SHL NOT AND OR SWAP1 SSTORE JUMP JUMPDEST PUSH2 0x177A PUSH1 0x40 SWAP3 SWAP6 SWAP5 SWAP4 SWAP6 PUSH1 0x60 DUP4 MSTORE PUSH1 0x60 DUP4 ADD SWAP1 PUSH2 0x180 JUMP JUMPDEST SWAP5 PUSH1 0x20 DUP3 ADD MSTORE ADD MSTORE JUMP JUMPDEST SWAP4 SWAP1 SWAP5 SWAP3 PUSH2 0x18BB PUSH2 0x1857 SWAP5 PUSH2 0x18B0 PUSH1 0x9 DUP9 PUSH2 0x1883 PUSH32 0xEA338ECEBD76D63D9C1F905132A63F13C68CC4530E205F4026D455CD89D2E666 SWAP9 PUSH2 0x17C6 DUP4 MLOAD ISZERO ISZERO PUSH2 0x1464 JUMP JUMPDEST PUSH2 0x17D1 DUP9 ISZERO ISZERO PUSH2 0x14A8 JUMP JUMPDEST PUSH2 0x17DC TIMESTAMP DUP11 GT PUSH2 0x1500 JUMP JUMPDEST PUSH2 0x17F3 PUSH2 0x17E9 TIMESTAMP DUP12 PUSH2 0x1562 JUMP JUMPDEST PUSH1 0x6 SLOAD GT ISZERO PUSH2 0x1574 JUMP JUMPDEST PUSH2 0x180A PUSH2 0x1800 TIMESTAMP DUP12 PUSH2 0x1562 JUMP JUMPDEST PUSH1 0x7 SLOAD LT ISZERO PUSH2 0x15C0 JUMP JUMPDEST PUSH2 0x1818 PUSH1 0x1 PUSH1 0x2 SLOAD ADD PUSH1 0x2 SSTORE JUMP JUMPDEST PUSH2 0x1860 PUSH1 0x2 SLOAD SWAP14 DUP15 SWAP13 DUP14 SWAP6 PUSH2 0x1837 DUP8 PUSH1 0x0 MSTORE PUSH1 0x8 PUSH1 0x20 MSTORE PUSH1 0x40 PUSH1 0x0 KECCAK256 SWAP1 JUMP JUMPDEST SWAP7 DUP8 SSTORE PUSH1 0x1 DUP8 ADD DUP1 SLOAD PUSH1 0x1 PUSH1 0x1 PUSH1 0xA0 SHL SUB NOT AND CALLER OR SWAP1 SSTORE PUSH1 0x2 DUP8 ADD PUSH2 0x1659 JUMP JUMPDEST PUSH1 0x3 DUP6 ADD PUSH2 0x1659 JUMP JUMPDEST PUSH1 0x4 DUP4 ADD DUP1 SLOAD PUSH1 0x1 PUSH1 0x1 PUSH1 0xA0 SHL SUB NOT AND PUSH1 0x1 PUSH1 0x1 PUSH1 0xA0 SHL SUB SWAP1 SWAP3 AND SWAP2 SWAP1 SWAP2 OR SWAP1 SSTORE JUMP JUMPDEST DUP6 PUSH1 0x5 DUP3 ADD SSTORE PUSH1 0x0 PUSH1 0x6 DUP3 ADD SSTORE TIMESTAMP PUSH1 0x7 DUP3 ADD SSTORE DUP7 PUSH1 0x8 DUP3 ADD SSTORE ADD SWAP2 DUP3 SWAP1 PUSH1 0xFF DUP1 NOT DUP4 SLOAD AND SWAP2 ISZERO ISZERO AND OR SWAP1 SSTORE JUMP JUMPDEST DUP1 SLOAD PUSH2 0xFF00 NOT AND SWAP1 SSTORE JUMP JUMPDEST CALLER PUSH1 0x0 SWAP1 DUP2 MSTORE PUSH1 0x9 PUSH1 0x20 MSTORE PUSH1 0x40 SWAP1 KECCAK256 PUSH2 0x18D5 SWAP1 DUP6 SWAP1 PUSH2 0x1728 JUMP JUMPDEST PUSH2 0x18E6 PUSH1 0x40 MLOAD SWAP3 DUP4 SWAP3 CALLER SWAP8 DUP5 PUSH2 0x1762 JUMP JUMPDEST SUB SWAP1 LOG3 SWAP1 JUMP JUMPDEST ISZERO PUSH2 0x18F3 JUMPI JUMP JUMPDEST PUSH1 0x40 MLOAD PUSH3 0x461BCD PUSH1 0xE5 SHL DUP2 MSTORE PUSH1 0x20 PUSH1 0x4 DUP3 ADD MSTORE PUSH1 0x13 PUSH1 0x24 DUP3 ADD MSTORE PUSH19 0x11DBD85B08191BD95CC81B9BDD08195E1A5CDD PUSH1 0x6A SHL PUSH1 0x44 DUP3 ADD MSTORE PUSH1 0x64 SWAP1 REVERT JUMPDEST ISZERO PUSH2 0x1935 JUMPI JUMP JUMPDEST PUSH1 0x40 MLOAD PUSH3 0x461BCD PUSH1 0xE5 SHL DUP2 MSTORE PUSH1 0x20 PUSH1 0x4 DUP3 ADD MSTORE PUSH1 0x12 PUSH1 0x24 DUP3 ADD MSTORE PUSH18 0x476F616C206973206E6F7420616374697665 PUSH1 0x70 SHL PUSH1 0x44 DUP3 ADD MSTORE PUSH1 0x64 SWAP1 REVERT JUMPDEST ISZERO PUSH2 0x1976 JUMPI JUMP JUMPDEST PUSH1 0x40 MLOAD PUSH3 0x461BCD PUSH1 0xE5 SHL DUP2 MSTORE PUSH1 0x20 PUSH1 0x4 DUP3 ADD MSTORE PUSH1 0x10 PUSH1 0x24 DUP3 ADD MSTORE PUSH16 0x11DBD85B081A185CC8195E1C1A5C9959 PUSH1 0x82 SHL PUSH1 0x44 DUP3 ADD MSTORE PUSH1 0x64 SWAP1 REVERT JUMPDEST ISZERO PUSH2 0x19B5 JUMPI JUMP JUMPDEST PUSH1 0x40 MLOAD PUSH3 0x461BCD PUSH1 0xE5 SHL DUP2 MSTORE PUSH1 0x20 PUSH1 0x4 DUP3 ADD MSTORE PUSH1 0x1B PUSH1 0x24 DUP3 ADD MSTORE PUSH32 0x4554482073656E742077697468204552433230206465706F7369740000000000 PUSH1 0x44 DUP3 ADD MSTORE PUSH1 0x64 SWAP1 REVERT JUMPDEST SWAP1 DUP2 PUSH1 0x20 SWAP2 SUB SLT PUSH2 0x31A JUMPI MLOAD SWAP1 JUMP JUMPDEST PUSH1 0x40 MLOAD RETURNDATASIZE PUSH1 0x0 DUP3 RETURNDATACOPY RETURNDATASIZE SWAP1 REVERT JUMPDEST SWAP1 PUSH1 0x1 DUP3 ADD DUP1 SWAP3 GT PUSH2 0x156F JUMPI JUMP JUMPDEST SWAP2 SWAP1 DUP3 ADD DUP1 SWAP3 GT PUSH2 0x156F JUMPI JUMP JUMPDEST ISZERO PUSH2 0x1A37 JUMPI JUMP JUMPDEST PUSH1 0x40 MLOAD PUSH3 0x461BCD PUSH1 0xE5 SHL DUP2 MSTORE PUSH1 0x20 PUSH1 0x4 DUP3 ADD MSTORE PUSH1 0x2F PUSH1 0x24 DUP3 ADD MSTORE PUSH32 0x53656E742045544820616D6F756E7420646F6573206E6F74206D617463682073 PUSH1 0x44 DUP3 ADD MSTORE PUSH15 0x1C1958DA599A595908185B5BDD5B9D PUSH1 0x8A SHL PUSH1 0x64 DUP3 ADD MSTORE PUSH1 0x84 SWAP1 REVERT JUMPDEST PUSH2 0x297 SWAP4 SWAP3 PUSH1 0x60 SWAP3 PUSH1 0x1 DUP1 PUSH1 0xA0 SHL SUB AND DUP3 MSTORE PUSH1 0x20 DUP3 ADD MSTORE DUP2 PUSH1 0x40 DUP3 ADD MSTORE ADD SWAP1 PUSH2 0x987 JUMP JUMPDEST PUSH1 0x2 PUSH1 0x1 SLOAD EQ PUSH2 0x1AC9 JUMPI PUSH1 0x2 PUSH1 0x1 SSTORE JUMP JUMPDEST PUSH1 0x40 MLOAD PUSH3 0x461BCD PUSH1 0xE5 SHL DUP2 MSTORE PUSH1 0x20 PUSH1 0x4 DUP3 ADD MSTORE PUSH1 0x1F PUSH1 0x24 DUP3 ADD MSTORE PUSH32 0x5265656E7472616E637947756172643A207265656E7472616E742063616C6C00 PUSH1 0x44 DUP3 ADD MSTORE PUSH1 0x64 SWAP1 REVERT JUMPDEST PUSH1 0x40 MLOAD PUSH4 0x23B872DD PUSH1 0xE0 SHL PUSH1 0x20 DUP3 ADD MSTORE PUSH1 0x1 PUSH1 0x1 PUSH1 0xA0 SHL SUB SWAP3 DUP4 AND PUSH1 0x24 DUP3 ADD MSTORE SWAP3 SWAP1 SWAP2 AND PUSH1 0x44 DUP4 ADD MSTORE PUSH1 0x64 DUP1 DUP4 ADD SWAP4 SWAP1 SWAP4 MSTORE SWAP2 DUP2 MSTORE PUSH1 0xA0 DUP2 ADD SWAP2 DUP2 DUP4 LT PUSH8 0xFFFFFFFFFFFFFFFF DUP5 GT OR PUSH2 0x6AA JUMPI PUSH2 0xA38 SWAP3 PUSH1 0x40 MSTORE JUMPDEST PUSH1 0x40 MLOAD PUSH2 0x1BC1 SWAP2 PUSH1 0x1 PUSH1 0x1 PUSH1 0xA0 SHL SUB AND PUSH2 0x1B7C DUP3 PUSH2 0x68E JUMP JUMPDEST PUSH1 0x0 DUP1 PUSH1 0x20 SWAP6 DUP7 DUP6 MSTORE PUSH32 0x5361666545524332303A206C6F772D6C6576656C2063616C6C206661696C6564 DUP8 DUP7 ADD MSTORE DUP7 DUP2 MLOAD SWAP2 ADD DUP3 DUP6 GAS CALL PUSH2 0x1BBB PUSH2 0x1C51 JUMP JUMPDEST SWAP2 PUSH2 0x1C81 JUMP JUMPDEST DUP1 MLOAD DUP3 DUP2 ISZERO SWAP2 DUP3 ISZERO PUSH2 0x1C31 JUMPI JUMPDEST POP POP SWAP1 POP ISZERO PUSH2 0x1BDA JUMPI POP JUMP JUMPDEST PUSH1 0x84 SWAP1 PUSH1 0x40 MLOAD SWAP1 PUSH3 0x461BCD PUSH1 0xE5 SHL DUP3 MSTORE PUSH1 0x4 DUP3 ADD MSTORE PUSH1 0x2A PUSH1 0x24 DUP3 ADD MSTORE PUSH32 0x5361666545524332303A204552433230206F7065726174696F6E20646964206E PUSH1 0x44 DUP3 ADD MSTORE PUSH10 0x1BDD081CDD58D8D95959 PUSH1 0xB2 SHL PUSH1 0x64 DUP3 ADD MSTORE REVERT JUMPDEST DUP4 DUP1 SWAP3 SWAP4 POP ADD SUB SLT PUSH2 0x31A JUMPI DUP2 ADD MLOAD PUSH2 0x1C49 DUP2 PUSH2 0x76B JUMP JUMPDEST DUP1 DUP3 CODESIZE PUSH2 0x1BCE JUMP JUMPDEST RETURNDATASIZE ISZERO PUSH2 0x1C7C JUMPI RETURNDATASIZE SWAP1 PUSH2 0x1C62 DUP3 PUSH2 0x6F2 JUMP JUMPDEST SWAP2 PUSH2 0x1C70 PUSH1 0x40 MLOAD SWAP4 DUP5 PUSH2 0x6AF JUMP JUMPDEST DUP3 MSTORE RETURNDATASIZE PUSH1 0x0 PUSH1 0x20 DUP5 ADD RETURNDATACOPY JUMP JUMPDEST PUSH1 0x60 SWAP1 JUMP JUMPDEST SWAP2 SWAP3 SWAP1 ISZERO PUSH2 0x1CE3 JUMPI POP DUP2 MLOAD ISZERO PUSH2 0x1C95 JUMPI POP SWAP1 JUMP JUMPDEST EXTCODESIZE ISZERO PUSH2 0x1C9E JUMPI SWAP1 JUMP JUMPDEST PUSH1 0x40 MLOAD PUSH3 0x461BCD PUSH1 0xE5 SHL DUP2 MSTORE PUSH1 0x20 PUSH1 0x4 DUP3 ADD MSTORE PUSH1 0x1D PUSH1 0x24 DUP3 ADD MSTORE PUSH32 0x416464726573733A2063616C6C20746F206E6F6E2D636F6E7472616374000000 PUSH1 0x44 DUP3 ADD MSTORE PUSH1 0x64 SWAP1 REVERT JUMPDEST DUP3 MLOAD SWAP1 SWAP2 POP ISZERO PUSH2 0x1CF6 JUMPI POP DUP1 MLOAD SWAP1 PUSH1 0x20 ADD REVERT JUMPDEST PUSH1 0x40 MLOAD PUSH3 0x461BCD PUSH1 0xE5 SHL DUP2 MSTORE PUSH1 0x20 PUSH1 0x4 DUP3 ADD MSTORE SWAP1 DUP2 SWAP1 PUSH2 0x62E SWAP1 PUSH1 0x24 DUP4 ADD SWAP1 PUSH2 0x180 JUMP JUMPDEST ISZERO PUSH2 0x1D21 JUMPI JUMP JUMPDEST PUSH1 0x40 MLOAD PUSH3 0x461BCD PUSH1 0xE5 SHL DUP2 MSTORE PUSH1 0x20 PUSH1 0x4 DUP3 ADD MSTORE PUSH1 0x1C PUSH1 0x24 DUP3 ADD MSTORE PUSH32 0x4F6E6C7920676F616C206F776E65722063616E20776974686472617700000000 PUSH1 0x44 DUP3 ADD MSTORE PUSH1 0x64 SWAP1 REVERT JUMPDEST ISZERO PUSH2 0x1D6D JUMPI JUMP JUMPDEST PUSH1 0x40 MLOAD PUSH3 0x461BCD PUSH1 0xE5 SHL DUP2 MSTORE PUSH1 0x20 PUSH1 0x4 DUP3 ADD MSTORE PUSH1 0x16 PUSH1 0x24 DUP3 ADD MSTORE PUSH22 0x23B7B0B61030B63932B0B23C903BB4BA34323930BBB7 PUSH1 0x51 SHL PUSH1 0x44 DUP3 ADD MSTORE PUSH1 0x64 SWAP1 REVERT JUMPDEST DUP2 DUP2 MUL SWAP3 SWAP2 DUP2 ISZERO SWAP2 DUP5 DIV EQ OR ISZERO PUSH2 0x156F JUMPI JUMP JUMPDEST ISZERO PUSH2 0x1DC5 JUMPI JUMP JUMPDEST PUSH1 0x40 MLOAD PUSH3 0x461BCD PUSH1 0xE5 SHL DUP2 MSTORE PUSH1 0x20 PUSH1 0x4 DUP3 ADD MSTORE PUSH1 0x13 PUSH1 0x24 DUP3 ADD MSTORE PUSH19 0x119959481D1C985B9CD9995C8819985A5B1959 PUSH1 0x6A SHL PUSH1 0x44 DUP3 ADD MSTORE PUSH1 0x64 SWAP1 REVERT JUMPDEST ISZERO PUSH2 0x1E07 JUMPI JUMP JUMPDEST PUSH1 0x40 MLOAD PUSH3 0x461BCD PUSH1 0xE5 SHL DUP2 MSTORE PUSH1 0x20 PUSH1 0x4 DUP3 ADD MSTORE PUSH1 0xF PUSH1 0x24 DUP3 ADD MSTORE PUSH15 0x151C985B9CD9995C8819985A5B1959 PUSH1 0x8A SHL PUSH1 0x44 DUP3 ADD MSTORE PUSH1 0x64 SWAP1 REVERT JUMPDEST PUSH1 0x40 MLOAD PUSH4 0xA9059CBB PUSH1 0xE0 SHL PUSH1 0x20 DUP3 ADD MSTORE PUSH1 0x1 PUSH1 0x1 PUSH1 0xA0 SHL SUB SWAP1 SWAP3 AND PUSH1 0x24 DUP4 ADD MSTORE PUSH1 0x44 DUP1 DUP4 ADD SWAP4 SWAP1 SWAP4 MSTORE SWAP2 DUP2 MSTORE PUSH1 0x80 DUP2 ADD SWAP2 PUSH8 0xFFFFFFFFFFFFFFFF DUP4 GT DUP3 DUP5 LT OR PUSH2 0x6AA JUMPI PUSH2 0xA38 SWAP3 PUSH1 0x40 MSTORE PUSH2 0x1B63 JUMP JUMPDEST PUSH1 0x40 MLOAD SWAP1 PUSH2 0x160 DUP3 ADD DUP3 DUP2 LT PUSH8 0xFFFFFFFFFFFFFFFF DUP3 GT OR PUSH2 0x6AA JUMPI PUSH1 0x40 MSTORE DUP2 PUSH2 0x140 PUSH1 0x0 SWAP2 DUP3 DUP2 MSTORE DUP3 PUSH1 0x20 DUP3 ADD MSTORE PUSH1 0x60 PUSH1 0x40 DUP3 ADD MSTORE PUSH1 0x60 DUP1 DUP3 ADD MSTORE DUP3 PUSH1 0x80 DUP3 ADD MSTORE DUP3 PUSH1 0xA0 DUP3 ADD MSTORE DUP3 PUSH1 0xC0 DUP3 ADD MSTORE DUP3 PUSH1 0xE0 DUP3 ADD MSTORE DUP3 PUSH2 0x100 DUP3 ADD MSTORE DUP3 PUSH2 0x120 DUP3 ADD MSTORE ADD MSTORE JUMP JUMPDEST PUSH1 0x4 DUP3 LT ISZERO PUSH2 0x1CA JUMPI MSTORE JUMP JUMPDEST SWAP1 PUSH2 0xA38 PUSH1 0xFF PUSH1 0x9 PUSH2 0x1F10 PUSH2 0x6D1 JUMP JUMPDEST DUP6 SLOAD DUP2 MSTORE PUSH1 0x1 DUP7 ADD SLOAD PUSH1 0x1 PUSH1 0x1 PUSH1 0xA0 SHL SUB AND PUSH1 0x20 DUP3 ADD MSTORE SWAP5 PUSH2 0x1F34 PUSH1 0x2 DUP3 ADD PUSH2 0xA1D JUMP JUMPDEST PUSH1 0x40 DUP8 ADD MSTORE PUSH2 0x1F45 PUSH1 0x3 DUP3 ADD PUSH2 0xA1D JUMP JUMPDEST PUSH1 0x60 DUP8 ADD MSTORE PUSH1 0x4 DUP2 ADD SLOAD PUSH1 0x1 PUSH1 0x1 PUSH1 0xA0 SHL SUB AND PUSH1 0x80 DUP8 ADD MSTORE PUSH1 0x5 DUP2 ADD SLOAD PUSH1 0xA0 DUP8 ADD MSTORE PUSH1 0x6 DUP2 ADD SLOAD PUSH1 0xC0 DUP8 ADD MSTORE PUSH1 0x7 DUP2 ADD SLOAD PUSH1 0xE0 DUP8 ADD MSTORE PUSH1 0x8 DUP2 ADD SLOAD PUSH2 0x100 DUP8 ADD MSTORE ADD SLOAD DUP2 DUP2 AND ISZERO ISZERO PUSH2 0x120 DUP7 ADD MSTORE PUSH1 0x8 SHR AND PUSH2 0x140 DUP5 ADD PUSH2 0x1EF4 JUMP JUMPDEST PUSH8 0xFFFFFFFFFFFFFFFF DUP2 GT PUSH2 0x6AA JUMPI PUSH1 0x5 SHL PUSH1 0x20 ADD SWAP1 JUMP JUMPDEST PUSH1 0x40 MLOAD PUSH1 0x20 DUP2 ADD DUP2 DUP2 LT PUSH8 0xFFFFFFFFFFFFFFFF DUP3 GT OR PUSH2 0x6AA JUMPI PUSH1 0x40 MSTORE PUSH1 0x0 DUP2 MSTORE SWAP1 JUMP JUMPDEST SWAP1 PUSH2 0x1FE7 DUP3 PUSH2 0x1FA1 JUMP JUMPDEST PUSH2 0x1FF4 PUSH1 0x40 MLOAD SWAP2 DUP3 PUSH2 0x6AF JUMP JUMPDEST DUP3 DUP2 MSTORE DUP1 SWAP3 PUSH2 0x2005 PUSH1 0x1F NOT SWAP2 PUSH2 0x1FA1 JUMP JUMPDEST ADD SWAP1 PUSH1 0x0 JUMPDEST DUP3 DUP2 LT PUSH2 0x2016 JUMPI POP POP POP JUMP JUMPDEST PUSH1 0x20 SWAP1 PUSH2 0x2021 PUSH2 0x1E8E JUMP JUMPDEST DUP3 DUP3 DUP6 ADD ADD MSTORE ADD PUSH2 0x200A JUMP JUMPDEST PUSH1 0x0 NOT DUP2 EQ PUSH2 0x156F JUMPI PUSH1 0x1 ADD SWAP1 JUMP JUMPDEST DUP1 MLOAD DUP3 LT ISZERO PUSH2 0xE44 JUMPI PUSH1 0x20 SWAP2 PUSH1 0x5 SHL ADD ADD SWAP1 JUMP JUMPDEST PUSH1 0x2 SLOAD SWAP2 DUP3 DUP3 LT ISZERO PUSH2 0x2136 JUMPI PUSH2 0x2066 DUP3 DUP5 PUSH2 0x1562 JUMP JUMPDEST SWAP1 DUP1 DUP3 LT ISZERO PUSH2 0x212E JUMPI POP SWAP1 JUMPDEST PUSH2 0x207B DUP3 PUSH2 0x1FDD JUMP JUMPDEST SWAP2 PUSH2 0x2087 PUSH1 0x0 SWAP3 PUSH2 0x1A15 JUMP JUMPDEST DUP5 DUP2 GT ISZERO DUP1 PUSH2 0x2125 JUMPI JUMPDEST ISZERO PUSH2 0x2111 JUMPI PUSH2 0x20B7 PUSH1 0x9 PUSH2 0x20AF DUP4 PUSH1 0x0 MSTORE PUSH1 0x8 PUSH1 0x20 MSTORE PUSH1 0x40 PUSH1 0x0 KECCAK256 SWAP1 JUMP JUMPDEST ADD SLOAD PUSH1 0xFF AND SWAP1 JUMP JUMPDEST PUSH2 0x20CA JUMPI JUMPDEST PUSH2 0x20C5 SWAP1 PUSH2 0x202D JUMP JUMPDEST PUSH2 0x2087 JUMP JUMPDEST SWAP2 PUSH2 0x2109 PUSH2 0x20C5 SWAP2 PUSH2 0x20EE PUSH2 0x20E9 DUP7 PUSH1 0x0 MSTORE PUSH1 0x8 PUSH1 0x20 MSTORE PUSH1 0x40 PUSH1 0x0 KECCAK256 SWAP1 JUMP JUMPDEST PUSH2 0x1F00 JUMP JUMPDEST PUSH2 0x20F8 DUP3 DUP9 PUSH2 0x203C JUMP JUMPDEST MSTORE PUSH2 0x2103 DUP2 DUP8 PUSH2 0x203C JUMP JUMPDEST POP PUSH2 0x202D JUMP JUMPDEST SWAP3 SWAP1 POP PUSH2 0x20BC JUMP JUMPDEST POP SWAP1 SWAP2 SWAP3 POP DUP2 LT PUSH2 0x2120 JUMPI POP SWAP1 JUMP JUMPDEST DUP2 MSTORE SWAP1 JUMP JUMPDEST POP DUP2 DUP4 LT PUSH2 0x2091 JUMP JUMPDEST SWAP1 POP SWAP1 PUSH2 0x2072 JUMP JUMPDEST POP POP POP PUSH2 0x297 PUSH2 0x1FB9 JUMP JUMPDEST ISZERO PUSH2 0x2148 JUMPI JUMP JUMPDEST PUSH1 0x40 MLOAD PUSH3 0x461BCD PUSH1 0xE5 SHL DUP2 MSTORE PUSH1 0x20 PUSH1 0x4 DUP3 ADD MSTORE PUSH1 0x14 PUSH1 0x24 DUP3 ADD MSTORE PUSH20 0x496E73756666696369656E742062616C616E6365 PUSH1 0x60 SHL PUSH1 0x44 DUP3 ADD MSTORE PUSH1 0x64 SWAP1 REVERT INVALID LOG2 PUSH5 0x6970667358 0x22 SLT KECCAK256 PUSH5 0xFB9FA05C50 ADD 0xB0 DUP11 0x5D 0x2D CREATE PUSH17 0x1E022F7E92A28F45611BD8A5F81699194D SWAP7 0xCA PUSH5 0x736F6C6343 STOP ADDMOD EQ STOP CALLER "},"methodIdentifiers":{"createGoal(string,string,address,uint256,uint256,bool)":"41b240df","deposit(uint256,uint256)":"e2bbb158","feeCollector()":"c415b95c","getGoalDetails(uint256)":"71444dd0","getGoalsByUser(address)":"c8cd8879","getPublicGoals(uint256,uint256)":"07ad91aa","goalNFT()":"b8b7a5a6","goals(uint256)":"61449ca2","maxGoalDuration()":"aa413f0e","minGoalDuration()":"c7bf9142","owner()":"8da5cb5b","protocolFeeRate()":"58f85880","renounceOwnership()":"715018a6","transferOwnership(address)":"f2fde38b","updateFeeCollector(address)":"d2c35ce8","updateGoalDurationLimits(uint256,uint256)":"43459f88","updateGoalNFT(address)":"9ec2c8cc","updateProtocolFeeRate(uint256)":"6340d55c","userGoals(address,uint256)":"b6b3eedf","withdraw(uint256)":"2e1a7d4d","withdrawExcessETH(uint256)":"1b70e79c","withdrawExcessTokens(address,uint256)":"53e052ac"}}}}}