{
  "_format": "hh-sol-artifact-1",
  "contractName": "GoalTracker",
  "sourceName": "contracts/GoalTracker.sol",
  "abi": [
    {
      "inputs": [
        {
          "internalType": "address",
          "name": "_feeCollector",
          "type": "address"
        },
        {
          "internalType": "address",
          "name": "_goalNFT",
          "type": "address"
        }
      ],
      "stateMutability": "nonpayable",
      "type": "constructor"
    },
    {
      "anonymous": false,
      "inputs": [
        {
          "indexed": true,
          "internalType": "uint256",
          "name": "goalId",
          "type": "uint256"
        },
        {
          "indexed": true,
          "internalType": "address",
          "name": "depositor",
          "type": "address"
        },
        {
          "indexed": false,
          "internalType": "uint256",
          "name": "amount",
          "type": "uint256"
        }
      ],
      "name": "Deposit",
      "type": "event"
    },
    {
      "anonymous": false,
      "inputs": [
        {
          "indexed": false,
          "internalType": "address",
          "name": "newFeeCollector",
          "type": "address"
        }
      ],
      "name": "FeeCollectorUpdated",
      "type": "event"
    },
    {
      "anonymous": false,
      "inputs": [
        {
          "indexed": true,
          "internalType": "uint256",
          "name": "goalId",
          "type": "uint256"
        },
        {
          "indexed": true,
          "internalType": "address",
          "name": "owner",
          "type": "address"
        },
        {
          "indexed": false,
          "internalType": "uint256",
          "name": "amount",
          "type": "uint256"
        }
      ],
      "name": "GoalCompleted",
      "type": "event"
    },
    {
      "anonymous": false,
      "inputs": [
        {
          "indexed": true,
          "internalType": "uint256",
          "name": "goalId",
          "type": "uint256"
        },
        {
          "indexed": true,
          "internalType": "address",
          "name": "owner",
          "type": "address"
        },
        {
          "indexed": false,
          "internalType": "string",
          "name": "title",
          "type": "string"
        },
        {
          "indexed": false,
          "internalType": "uint256",
          "name": "targetAmount",
          "type": "uint256"
        },
        {
          "indexed": false,
          "internalType": "uint256",
          "name": "deadline",
          "type": "uint256"
        }
      ],
      "name": "GoalCreated",
      "type": "event"
    },
    {
      "anonymous": false,
      "inputs": [
        {
          "indexed": true,
          "internalType": "uint256",
          "name": "goalId",
          "type": "uint256"
        },
        {
          "indexed": true,
          "internalType": "address",
          "name": "owner",
          "type": "address"
        }
      ],
      "name": "GoalExpired",
      "type": "event"
    },
    {
      "anonymous": false,
      "inputs": [
        {
          "indexed": true,
          "internalType": "uint256",
          "name": "goalId",
          "type": "uint256"
        },
        {
          "indexed": true,
          "internalType": "address",
          "name": "owner",
          "type": "address"
        },
        {
          "indexed": false,
          "internalType": "uint256",
          "name": "amount",
          "type": "uint256"
        },
        {
          "indexed": false,
          "internalType": "bool",
          "name": "completed",
          "type": "bool"
        }
      ],
      "name": "GoalWithdrawn",
      "type": "event"
    },
    {
      "anonymous": false,
      "inputs": [
        {
          "indexed": true,
          "internalType": "address",
          "name": "previousOwner",
          "type": "address"
        },
        {
          "indexed": true,
          "internalType": "address",
          "name": "newOwner",
          "type": "address"
        }
      ],
      "name": "OwnershipTransferred",
      "type": "event"
    },
    {
      "anonymous": false,
      "inputs": [
        {
          "indexed": false,
          "internalType": "uint256",
          "name": "newFeeRate",
          "type": "uint256"
        }
      ],
      "name": "ProtocolFeeUpdated",
      "type": "event"
    },
    {
      "inputs": [
        {
          "internalType": "string",
          "name": "_title",
          "type": "string"
        },
        {
          "internalType": "string",
          "name": "_description",
          "type": "string"
        },
        {
          "internalType": "address",
          "name": "_tokenAddress",
          "type": "address"
        },
        {
          "internalType": "uint256",
          "name": "_targetAmount",
          "type": "uint256"
        },
        {
          "internalType": "uint256",
          "name": "_deadline",
          "type": "uint256"
        },
        {
          "internalType": "bool",
          "name": "_isPublic",
          "type": "bool"
        }
      ],
      "name": "createGoal",
      "outputs": [
        {
          "internalType": "uint256",
          "name": "goalId",
          "type": "uint256"
        }
      ],
      "stateMutability": "nonpayable",
      "type": "function"
    },
    {
      "inputs": [
        {
          "internalType": "uint256",
          "name": "_goalId",
          "type": "uint256"
        },
        {
          "internalType": "uint256",
          "name": "_amount",
          "type": "uint256"
        }
      ],
      "name": "deposit",
      "outputs": [],
      "stateMutability": "payable",
      "type": "function"
    },
    {
      "inputs": [],
      "name": "feeCollector",
      "outputs": [
        {
          "internalType": "address",
          "name": "",
          "type": "address"
        }
      ],
      "stateMutability": "view",
      "type": "function"
    },
    {
      "inputs": [
        {
          "internalType": "uint256",
          "name": "_goalId",
          "type": "uint256"
        }
      ],
      "name": "getGoalDetails",
      "outputs": [
        {
          "components": [
            {
              "internalType": "uint256",
              "name": "id",
              "type": "uint256"
            },
            {
              "internalType": "address",
              "name": "owner",
              "type": "address"
            },
            {
              "internalType": "string",
              "name": "title",
              "type": "string"
            },
            {
              "internalType": "string",
              "name": "description",
              "type": "string"
            },
            {
              "internalType": "address",
              "name": "tokenAddress",
              "type": "address"
            },
            {
              "internalType": "uint256",
              "name": "targetAmount",
              "type": "uint256"
            },
            {
              "internalType": "uint256",
              "name": "currentAmount",
              "type": "uint256"
            },
            {
              "internalType": "uint256",
              "name": "createdAt",
              "type": "uint256"
            },
            {
              "internalType": "uint256",
              "name": "deadline",
              "type": "uint256"
            },
            {
              "internalType": "bool",
              "name": "isPublic",
              "type": "bool"
            },
            {
              "internalType": "enum GoalTracker.GoalStatus",
              "name": "status",
              "type": "uint8"
            }
          ],
          "internalType": "struct GoalTracker.Goal",
          "name": "",
          "type": "tuple"
        }
      ],
      "stateMutability": "view",
      "type": "function"
    },
    {
      "inputs": [
        {
          "internalType": "address",
          "name": "_user",
          "type": "address"
        }
      ],
      "name": "getGoalsByUser",
      "outputs": [
        {
          "internalType": "uint256[]",
          "name": "",
          "type": "uint256[]"
        }
      ],
      "stateMutability": "view",
      "type": "function"
    },
    {
      "inputs": [
        {
          "internalType": "uint256",
          "name": "_offset",
          "type": "uint256"
        },
        {
          "internalType": "uint256",
          "name": "_limit",
          "type": "uint256"
        }
      ],
      "name": "getPublicGoals",
      "outputs": [
        {
          "components": [
            {
              "internalType": "uint256",
              "name": "id",
              "type": "uint256"
            },
            {
              "internalType": "address",
              "name": "owner",
              "type": "address"
            },
            {
              "internalType": "string",
              "name": "title",
              "type": "string"
            },
            {
              "internalType": "string",
              "name": "description",
              "type": "string"
            },
            {
              "internalType": "address",
              "name": "tokenAddress",
              "type": "address"
            },
            {
              "internalType": "uint256",
              "name": "targetAmount",
              "type": "uint256"
            },
            {
              "internalType": "uint256",
              "name": "currentAmount",
              "type": "uint256"
            },
            {
              "internalType": "uint256",
              "name": "createdAt",
              "type": "uint256"
            },
            {
              "internalType": "uint256",
              "name": "deadline",
              "type": "uint256"
            },
            {
              "internalType": "bool",
              "name": "isPublic",
              "type": "bool"
            },
            {
              "internalType": "enum GoalTracker.GoalStatus",
              "name": "status",
              "type": "uint8"
            }
          ],
          "internalType": "struct GoalTracker.Goal[]",
          "name": "",
          "type": "tuple[]"
        }
      ],
      "stateMutability": "view",
      "type": "function"
    },
    {
      "inputs": [],
      "name": "goalNFT",
      "outputs": [
        {
          "internalType": "contract GoalNFT",
          "name": "",
          "type": "address"
        }
      ],
      "stateMutability": "view",
      "type": "function"
    },
    {
      "inputs": [
        {
          "internalType": "uint256",
          "name": "",
          "type": "uint256"
        }
      ],
      "name": "goals",
      "outputs": [
        {
          "internalType": "uint256",
          "name": "id",
          "type": "uint256"
        },
        {
          "internalType": "address",
          "name": "owner",
          "type": "address"
        },
        {
          "internalType": "string",
          "name": "title",
          "type": "string"
        },
        {
          "internalType": "string",
          "name": "description",
          "type": "string"
        },
        {
          "internalType": "address",
          "name": "tokenAddress",
          "type": "address"
        },
        {
          "internalType": "uint256",
          "name": "targetAmount",
          "type": "uint256"
        },
        {
          "internalType": "uint256",
          "name": "currentAmount",
          "type": "uint256"
        },
        {
          "internalType": "uint256",
          "name": "createdAt",
          "type": "uint256"
        },
        {
          "internalType": "uint256",
          "name": "deadline",
          "type": "uint256"
        },
        {
          "internalType": "bool",
          "name": "isPublic",
          "type": "bool"
        },
        {
          "internalType": "enum GoalTracker.GoalStatus",
          "name": "status",
          "type": "uint8"
        }
      ],
      "stateMutability": "view",
      "type": "function"
    },
    {
      "inputs": [],
      "name": "maxGoalDuration",
      "outputs": [
        {
          "internalType": "uint256",
          "name": "",
          "type": "uint256"
        }
      ],
      "stateMutability": "view",
      "type": "function"
    },
    {
      "inputs": [],
      "name": "minGoalDuration",
      "outputs": [
        {
          "internalType": "uint256",
          "name": "",
          "type": "uint256"
        }
      ],
      "stateMutability": "view",
      "type": "function"
    },
    {
      "inputs": [],
      "name": "owner",
      "outputs": [
        {
          "internalType": "address",
          "name": "",
          "type": "address"
        }
      ],
      "stateMutability": "view",
      "type": "function"
    },
    {
      "inputs": [],
      "name": "protocolFeeRate",
      "outputs": [
        {
          "internalType": "uint256",
          "name": "",
          "type": "uint256"
        }
      ],
      "stateMutability": "view",
      "type": "function"
    },
    {
      "inputs": [],
      "name": "renounceOwnership",
      "outputs": [],
      "stateMutability": "nonpayable",
      "type": "function"
    },
    {
      "inputs": [
        {
          "internalType": "address",
          "name": "newOwner",
          "type": "address"
        }
      ],
      "name": "transferOwnership",
      "outputs": [],
      "stateMutability": "nonpayable",
      "type": "function"
    },
    {
      "inputs": [
        {
          "internalType": "address",
          "name": "_newFeeCollector",
          "type": "address"
        }
      ],
      "name": "updateFeeCollector",
      "outputs": [],
      "stateMutability": "nonpayable",
      "type": "function"
    },
    {
      "inputs": [
        {
          "internalType": "uint256",
          "name": "_minDuration",
          "type": "uint256"
        },
        {
          "internalType": "uint256",
          "name": "_maxDuration",
          "type": "uint256"
        }
      ],
      "name": "updateGoalDurationLimits",
      "outputs": [],
      "stateMutability": "nonpayable",
      "type": "function"
    },
    {
      "inputs": [
        {
          "internalType": "address",
          "name": "_newGoalNFT",
          "type": "address"
        }
      ],
      "name": "updateGoalNFT",
      "outputs": [],
      "stateMutability": "nonpayable",
      "type": "function"
    },
    {
      "inputs": [
        {
          "internalType": "uint256",
          "name": "_newFeeRate",
          "type": "uint256"
        }
      ],
      "name": "updateProtocolFeeRate",
      "outputs": [],
      "stateMutability": "nonpayable",
      "type": "function"
    },
    {
      "inputs": [
        {
          "internalType": "address",
          "name": "",
          "type": "address"
        },
        {
          "internalType": "uint256",
          "name": "",
          "type": "uint256"
        }
      ],
      "name": "userGoals",
      "outputs": [
        {
          "internalType": "uint256",
          "name": "",
          "type": "uint256"
        }
      ],
      "stateMutability": "view",
      "type": "function"
    },
    {
      "inputs": [
        {
          "internalType": "uint256",
          "name": "_goalId",
          "type": "uint256"
        }
      ],
      "name": "withdraw",
      "outputs": [],
      "stateMutability": "nonpayable",
      "type": "function"
    },
    {
      "inputs": [
        {
          "internalType": "uint256",
          "name": "_amount",
          "type": "uint256"
        }
      ],
      "name": "withdrawExcessETH",
      "outputs": [],
      "stateMutability": "nonpayable",
      "type": "function"
    },
    {
      "inputs": [
        {
          "internalType": "address",
          "name": "_token",
          "type": "address"
        },
        {
          "internalType": "uint256",
          "name": "_amount",
          "type": "uint256"
        }
      ],
      "name": "withdrawExcessTokens",
      "outputs": [],
      "stateMutability": "nonpayable",
      "type": "function"
    },
    {
      "stateMutability": "payable",
      "type": "receive"
    }
  ],
  "bytecode": "0x608034620001c257620023f490601f38839003908101601f19168201906001600160401b03821183831017620001c75780839160409586948552833981010312620001c2576200005d60206200005583620001dd565b9201620001dd565b6200006833620001f2565b6001805560326004556201518060065563096601806007556001600160a01b039182169081156200017257829060018060a01b03199283600554161760055516906003541617600355339060005416036200012f573315620000dd57620000cf33620001f2565b516121ba90816200023a8239f35b5162461bcd60e51b815260206004820152602660248201527f4f776e61626c653a206e6577206f776e657220697320746865207a65726f206160448201526564647265737360d01b6064820152608490fd5b5162461bcd60e51b815260206004820181905260248201527f4f776e61626c653a2063616c6c6572206973206e6f7420746865206f776e65726044820152606490fd5b835162461bcd60e51b8152602060048201526024808201527f46656520636f6c6c6563746f722063616e6e6f74206265207a65726f206164646044820152637265737360e01b6064820152608490fd5b600080fd5b634e487b7160e01b600052604160045260246000fd5b51906001600160a01b0382168203620001c257565b600080546001600160a01b039283166001600160a01b03198216811783559216907f8be0079c531659141344cd1fd0a4f28419497f9722a3daafe3b4186f6b6457e09080a356fe6080604052600436101561001b575b361561001957600080fd5b005b60003560e01c806307ad91aa1461017b5780631b70e79c146101765780632e1a7d4d1461017157806341b240df1461016c57806343459f881461016757806353e052ac1461016257806358f858801461015d57806361449ca2146101585780636340d55c1461015357806371444dd01461014e578063715018a6146101495780638da5cb5b146101445780639ec2c8cc1461013f578063aa413f0e1461013a578063b6b3eedf14610135578063b8b7a5a614610130578063c415b95c1461012b578063c7bf914214610126578063c8cd887914610121578063d2c35ce81461011c578063e2bbb158146101175763f2fde38b0361000e57611349565b61109f565b610fd0565b610f4c565b610ef3565b610eca565b610ea1565b610e49565b610df8565b610d66565b610d3d565b610cdf565b610c00565b610b5d565b610aaf565b61092f565b610889565b61080a565b610775565b610365565b61031f565b61029a565b919082519283825260005b8481106101ac575050826000602080949584010152601f8019910116010190565b60208183018101518483018201520161018b565b600411156101ca57565b634e487b7160e01b600052602160045260246000fd5b9060048210156101ca5752565b805182526020808201516001600160a01b03169083015290610297906102376102256040850151610160806040860152840190610180565b60608501518382036060850152610180565b6080808501516001600160a01b0316908301529260a081015160a083015260c081015160c083015260e081015160e08301526101008082015190830152610288610120808301519084019015159052565b610140809101519101906101e0565b90565b3461031a57604036600319011261031a576102b9602435600435612050565b60405160209182820192808352815180945260408301938160408260051b8601019301916000955b8287106102ee5785850386f35b90919293828061030a600193603f198a820301865288516101ed565b96019201960195929190926102e1565b600080fd5b3461031a57602036600319011261031a5760043561033b61140c565b61034747821115612141565b61036260008080808095335af161035c611c51565b50611e00565b80f35b3461031a57602036600319011261031a57600435610381611ab8565b610395816000526008602052604060002090565b906103a2825415156118ec565b6001820180546001600160a01b0393906103bf9085163314611d1a565b60098101936103d3855460ff9060081c1690565b916103dd836101c0565b821595868015610665575b8015610652575b6103f890611d66565b610401846101c0565b6001841492831561063f575b831580610632575b6105c357807f90c3239dd73158697951389819d91da3f6114f6b17741dec0c9c377f642c774e966104e3966104999a600887015442101591826105b1575b5050610565575b50506104a76004600685015494610487610480610478845489611dab565b612710900490565b8097611562565b9a8b9561030061ff0019825416179055565b01546001600160a01b031690565b1680610531575050806104ef575b506104ca600080808089335af161035c611c51565b6040805195865290151560208601523394918291820190565b0390a361001960018055565b600080808061052b9461051b61050f61050f60055460018060a01b031690565b6001600160a01b031690565b5af1610525611c51565b50611dbe565b386104b5565b8261054393610548575b503390611e3e565b6104ca565b60055461055f91906001600160a01b031683611e3e565b3861053b565b835461ff00191661020017845561058390546001600160a01b031690565b16877fe44052fc5e34b4c20e0d59b3fd3c5e6f26458d96c934413747613fd0a38b568a600080a3803861045a565b6105bc9192506101c0565b3880610453565b60405162461bcd60e51b815260206004820152603860248201527f43616e6e6f74207769746864726177206265666f726520646561646c696e652060448201527f756e6c65737320676f616c20697320636f6d706c6574656400000000000000006064820152608490fd5b0390fd5b5060088301544210610415565b600683015460058401541115935061040d565b5061065c846101c0565b600284146103ef565b5061066f846101c0565b600184146103e8565b634e487b7160e01b600052604160045260246000fd5b6040810190811067ffffffffffffffff8211176106aa57604052565b610678565b90601f8019910116810190811067ffffffffffffffff8211176106aa57604052565b60405190610160820182811067ffffffffffffffff8211176106aa57604052565b67ffffffffffffffff81116106aa57601f01601f191660200190565b81601f8201121561031a57803590610725826106f2565b9261073360405194856106af565b8284526020838301011161031a57816000926020809301838601378301015290565b600435906001600160a01b038216820361031a57565b8015150361031a57565b3461031a5760c036600319011261031a5767ffffffffffffffff60043581811161031a576107a790369060040161070e565b9060243590811161031a576107c090369060040161070e565b906044356001600160a01b038116810361031a57610806926107f69260a435926107e98461076b565b6084359260643592611784565b6040519081529081906020820190565b0390f35b3461031a57604036600319011261031a5760243560043561082961140c565b81811161083857600655600755005b60405162461bcd60e51b8152602060048201526024808201527f4d696e206475726174696f6e206d757374206265203c3d206d617820647572616044820152633a34b7b760e11b6064820152608490fd5b3461031a57604036600319011261031a576108a2610755565b602435906108ae61140c565b6040516370a0823160e01b815230600482015291906001600160a01b0316602083602481845afa92831561092a57610019936108f5916000916108fc575b50831115612141565b3390611e3e565b61091d915060203d8111610923575b61091581836106af565b8101906119fa565b386108ec565b503d61090b565b611a09565b3461031a57600036600319011261031a576020600454604051908152f35b90600182811c9216801561097d575b602083101461096757565b634e487b7160e01b600052602260045260246000fd5b91607f169161095c565b90600092918054916109988361094d565b9182825260019384811690816000146109fa57506001146109ba575b50505050565b90919394506000526020928360002092846000945b8386106109e65750505050010190388080806109b4565b8054858701830152940193859082016109cf565b9294505050602093945060ff191683830152151560051b010190388080806109b4565b90610a38610a319260405193848092610987565b03836106af565b565b96926101409894610a76610a8492979e9d9b97610a389d9995948b5260018060a01b0380951660208c01526101608060408d01528b0190610180565b9089820360608b0152610180565b9b16608087015260a086015260c085015260e0840152610100830152151561012082015201906101e0565b3461031a57602036600319011261031a576004356000526008602052604060002080549061080660018060a01b036001830154169160405193610b0085610af98160028601610987565b03866106af565b60405191610b1c83610b158160038501610987565b03846106af565b60048101546001600160a01b0316600582015460068301549060078401549260096008860154950154966040519a8b9a60ff808b60081c169a16988c610a3a565b3461031a57602036600319011261031a57600435610b7961140c565b6101f48111610bb3576020817fd10d75876659a287a59a6ccfa2e3fff42f84d94b542837acd30bc184d562de4092600455604051908152a1005b60405162461bcd60e51b81526020600482015260146024820152734665652063616e6e6f742065786365656420352560601b6044820152606490fd5b9060206102979281815201906101ed565b3461031a57602036600319011261031a57600435610c1c611e8e565b50806000526008602052610c3660406000205415156118ec565b6000526008602052610c4b6040600020611f00565b610c60610c5c610120830151151590565b1590565b80610cbf575b610c7a576108069060405191829182610bef565b60405162461bcd60e51b815260206004820181905260248201527f4e6f7420617574686f72697a656420746f2076696577207468697320676f616c6044820152606490fd5b5060208101516001600160a01b03166001600160a01b0316331415610c66565b3461031a57600080600319360112610d3a57610cf961140c565b80546001600160a01b03198116825581906001600160a01b03167f8be0079c531659141344cd1fd0a4f28419497f9722a3daafe3b4186f6b6457e08280a380f35b80fd5b3461031a57600036600319011261031a576000546040516001600160a01b039091168152602090f35b3461031a57602036600319011261031a57610d7f610755565b610d8761140c565b6001600160a01b03168015610db3576bffffffffffffffffffffffff60a01b6003541617600355600080f35b60405162461bcd60e51b815260206004820152601e60248201527f476f616c4e46542063616e6e6f74206265207a65726f206164647265737300006044820152606490fd5b3461031a57600036600319011261031a576020600754604051908152f35b634e487b7160e01b600052603260045260246000fd5b8054821015610e445760005260206000200190600090565b610e16565b3461031a57604036600319011261031a57610e62610755565b6001600160a01b031660009081526009602052604090208054602435919082101561031a57602091610e9391610e2c565b90546040519160031b1c8152f35b3461031a57600036600319011261031a576003546040516001600160a01b039091168152602090f35b3461031a57600036600319011261031a576005546040516001600160a01b039091168152602090f35b3461031a57600036600319011261031a576020600654604051908152f35b6020908160408183019282815285518094520193019160005b828110610f38575050505090565b835185529381019392810192600101610f2a565b3461031a5760208060031936011261031a576001600160a01b03610f6e610755565b1660005260098152604060002090604051908181845491828152019360005281600020916000905b828210610fb95761080685610fad818903826106af565b60405191829182610f11565b835486529485019460019384019390910190610f96565b3461031a57602036600319011261031a57610fe9610755565b610ff161140c565b6001600160a01b038116801561104e57600580546001600160a01b0319169190911790556040516001600160a01b039190911681527fe5693914d19c789bdee50a362998c0bc8d035a835f9871da5d51152f0582c34f90602090a1005b60405162461bcd60e51b8152602060048201526024808201527f46656520636f6c6c6563746f722063616e6e6f74206265207a65726f206164646044820152637265737360e01b6064820152608490fd5b60408060031936011261031a57600435602435916110bb611ab8565b6110cf826000526008602052604060002090565b906110dc825415156118ec565b6009820180546110fb9060081c60ff166110f5816101c0565b1561192e565b61110a6008840154421061196f565b60048301546001600160a01b039390841680611280575061112c863414611a30565b6006810161113b348254611a23565b90555b6006810191825460058301541115611186575b8351878152339087907feaa18152488ce5959073c9c79c88ca90b3d96c00de1f118cfaad664c3dab06b99080602081016104e3565b805461ff0019166101001790556003546111a8906001600160a01b031661050f565b60018201805490926020916001600160a01b031692600260008354936111e58a519788968795869463112232f560e31b8652019160048501611a94565b03925af194851561092a5761124c87937ff1e784b979c484ae49b13fe4d42c00fea7f6bd55f7fbb717841d97571a6c2480937feaa18152488ce5959073c9c79c88ca90b3d96c00de1f118cfaad664c3dab06b998611262575b50546001600160a01b031690565b93548551908152931692602090a3388080611151565b6112799060203d81116109235761091581836106af565b503861123e565b61128a34156119ae565b83516370a0823160e01b80825230600483015260209290918381602481855afa92831561092a57849160009461132a575b506112c88b303386611b0e565b875190815230600482015291829060249082905afa90811561092a576112f79360009261130d575b5050611562565b61130660068301918254611a23565b905561113e565b6113239250803d106109235761091581836106af565b38806112f0565b611342919450823d84116109235761091581836106af565b92386112bb565b3461031a57602036600319011261031a57611362610755565b61136a61140c565b6001600160a01b0390811680156113b857600080546001600160a01b03198116831782559092167f8be0079c531659141344cd1fd0a4f28419497f9722a3daafe3b4186f6b6457e08380a380f35b60405162461bcd60e51b815260206004820152602660248201527f4f776e61626c653a206e6577206f776e657220697320746865207a65726f206160448201526564647265737360d01b6064820152608490fd5b6000546001600160a01b0316330361142057565b606460405162461bcd60e51b815260206004820152602060248201527f4f776e61626c653a2063616c6c6572206973206e6f7420746865206f776e65726044820152fd5b1561146b57565b60405162461bcd60e51b81526020600482015260156024820152745469746c652063616e6e6f7420626520656d70747960581b6044820152606490fd5b156114af57565b60405162461bcd60e51b8152602060048201526024808201527f54617267657420616d6f756e74206d75737420626520677265617465722074686044820152630616e20360e41b6064820152608490fd5b1561150757565b60405162461bcd60e51b815260206004820152601e60248201527f446561646c696e65206d75737420626520696e207468652066757475726500006044820152606490fd5b634e487b7160e01b600052601160045260246000fd5b9190820391821161156f57565b61154c565b1561157b57565b60405162461bcd60e51b815260206004820152601760248201527f476f616c206475726174696f6e20746f6f2073686f72740000000000000000006044820152606490fd5b156115c757565b60405162461bcd60e51b8152602060048201526016602482015275476f616c206475726174696f6e20746f6f206c6f6e6760501b6044820152606490fd5b90601f811161161357505050565b600091825260208220906020601f850160051c8301941061164f575b601f0160051c01915b82811061164457505050565b818155600101611638565b909250829061162f565b919091825167ffffffffffffffff81116106aa576116818161167b845461094d565b84611605565b602080601f83116001146116bd5750819293946000926116b2575b50508160011b916000199060031b1c1916179055565b01519050388061169c565b90601f198316956116d385600052602060002090565b926000905b888210611710575050836001959697106116f7575b505050811b019055565b015160001960f88460031b161c191690553880806116ed565b806001859682949686015181550195019301906116d8565b8054680100000000000000008110156106aa5761174a91600182018155610e2c565b819291549060031b91821b91600019901b1916179055565b61177a60409295949395606083526060830190610180565b9460208201520152565b939094926118bb611857946118b06009886118837fea338ecebd76d63d9c1f905132a63f13c68cc4530e205f4026d455cd89d2e666986117c683511515611464565b6117d18815156114a8565b6117dc428a11611500565b6117f36117e9428b611562565b6006541115611574565b61180a611800428b611562565b60075410156115c0565b611818600160025401600255565b6118606002549d8e9c8d95611837876000526008602052604060002090565b9687556001870180546001600160a01b0319163317905560028701611659565b60038501611659565b6004830180546001600160a01b0319166001600160a01b03909216919091179055565b856005820155600060068201554260078201558660088201550191829060ff801983541691151516179055565b805461ff0019169055565b3360009081526009602052604090206118d5908590611728565b6118e6604051928392339784611762565b0390a390565b156118f357565b60405162461bcd60e51b815260206004820152601360248201527211dbd85b08191bd95cc81b9bdd08195e1a5cdd606a1b6044820152606490fd5b1561193557565b60405162461bcd60e51b8152602060048201526012602482015271476f616c206973206e6f742061637469766560701b6044820152606490fd5b1561197657565b60405162461bcd60e51b815260206004820152601060248201526f11dbd85b081a185cc8195e1c1a5c995960821b6044820152606490fd5b156119b557565b60405162461bcd60e51b815260206004820152601b60248201527f4554482073656e742077697468204552433230206465706f73697400000000006044820152606490fd5b9081602091031261031a575190565b6040513d6000823e3d90fd5b906001820180921161156f57565b9190820180921161156f57565b15611a3757565b60405162461bcd60e51b815260206004820152602f60248201527f53656e742045544820616d6f756e7420646f6573206e6f74206d61746368207360448201526e1c1958da599a595908185b5bdd5b9d608a1b6064820152608490fd5b610297939260609260018060a01b0316825260208201528160408201520190610987565b600260015414611ac9576002600155565b60405162461bcd60e51b815260206004820152601f60248201527f5265656e7472616e637947756172643a207265656e7472616e742063616c6c006044820152606490fd5b6040516323b872dd60e01b60208201526001600160a01b03928316602482015292909116604483015260648083019390935291815260a081019181831067ffffffffffffffff8411176106aa57610a38926040525b604051611bc1916001600160a01b0316611b7c8261068e565b6000806020958685527f5361666545524332303a206c6f772d6c6576656c2063616c6c206661696c656487860152868151910182855af1611bbb611c51565b91611c81565b8051828115918215611c31575b5050905015611bda5750565b6084906040519062461bcd60e51b82526004820152602a60248201527f5361666545524332303a204552433230206f7065726174696f6e20646964206e6044820152691bdd081cdd58d8d9595960b21b6064820152fd5b838092935001031261031a57810151611c498161076b565b808238611bce565b3d15611c7c573d90611c62826106f2565b91611c7060405193846106af565b82523d6000602084013e565b606090565b91929015611ce35750815115611c95575090565b3b15611c9e5790565b60405162461bcd60e51b815260206004820152601d60248201527f416464726573733a2063616c6c20746f206e6f6e2d636f6e74726163740000006044820152606490fd5b825190915015611cf65750805190602001fd5b60405162461bcd60e51b81526020600482015290819061062e906024830190610180565b15611d2157565b60405162461bcd60e51b815260206004820152601c60248201527f4f6e6c7920676f616c206f776e65722063616e207769746864726177000000006044820152606490fd5b15611d6d57565b60405162461bcd60e51b815260206004820152601660248201527523b7b0b61030b63932b0b23c903bb4ba34323930bbb760511b6044820152606490fd5b8181029291811591840414171561156f57565b15611dc557565b60405162461bcd60e51b8152602060048201526013602482015272119959481d1c985b9cd9995c8819985a5b1959606a1b6044820152606490fd5b15611e0757565b60405162461bcd60e51b815260206004820152600f60248201526e151c985b9cd9995c8819985a5b1959608a1b6044820152606490fd5b60405163a9059cbb60e01b60208201526001600160a01b039092166024830152604480830193909352918152608081019167ffffffffffffffff8311828410176106aa57610a3892604052611b63565b60405190610160820182811067ffffffffffffffff8211176106aa5760405281610140600091828152826020820152606060408201526060808201528260808201528260a08201528260c08201528260e082015282610100820152826101208201520152565b60048210156101ca5752565b90610a3860ff6009611f106106d1565b8554815260018601546001600160a01b0316602082015294611f3460028201610a1d565b6040870152611f4560038201610a1d565b606087015260048101546001600160a01b03166080870152600581015460a0870152600681015460c0870152600781015460e087015260088101546101008701520154818116151561012086015260081c166101408401611ef4565b67ffffffffffffffff81116106aa5760051b60200190565b6040516020810181811067ffffffffffffffff8211176106aa576040526000815290565b90611fe782611fa1565b611ff460405191826106af565b8281528092612005601f1991611fa1565b019060005b82811061201657505050565b602090612021611e8e565b8282850101520161200a565b600019811461156f5760010190565b8051821015610e445760209160051b010190565b6002549182821015612136576120668284611562565b908082101561212e5750905b61207b82611fdd565b91612087600092611a15565b8481111580612125575b15612111576120b760096120af836000526008602052604060002090565b015460ff1690565b6120ca575b6120c59061202d565b612087565b916121096120c5916120ee6120e9866000526008602052604060002090565b611f00565b6120f8828861203c565b52612103818761203c565b5061202d565b9290506120bc565b50909192508110612120575090565b815290565b50818310612091565b905090612072565b505050610297611fb9565b1561214857565b60405162461bcd60e51b8152602060048201526014602482015273496e73756666696369656e742062616c616e636560601b6044820152606490fdfea264697066735822122064fb9fa05c5001b08a5d2df0701e022f7e92a28f45611bd8a5f81699194d96ca64736f6c63430008140033",
  "linkReferences": {},
  "deployedLinkReferences": {}
}