{
  "_format": "hh-sol-artifact-1",
  "contractName": "GoalNFT",
  "sourceName": "contracts/GoalNFT.sol",
  "abi": [
    {
      "inputs": [
        {
          "internalType": "string",
          "name": "_baseImageURI",
          "type": "string"
        }
      ],
      "stateMutability": "nonpayable",
      "type": "constructor"
    },
    {
      "anonymous": false,
      "inputs": [
        {
          "indexed": true,
          "internalType": "address",
          "name": "owner",
          "type": "address"
        },
        {
          "indexed": true,
          "internalType": "address",
          "name": "approved",
          "type": "address"
        },
        {
          "indexed": true,
          "internalType": "uint256",
          "name": "tokenId",
          "type": "uint256"
        }
      ],
      "name": "Approval",
      "type": "event"
    },
    {
      "anonymous": false,
      "inputs": [
        {
          "indexed": true,
          "internalType": "address",
          "name": "owner",
          "type": "address"
        },
        {
          "indexed": true,
          "internalType": "address",
          "name": "operator",
          "type": "address"
        },
        {
          "indexed": false,
          "internalType": "bool",
          "name": "approved",
          "type": "bool"
        }
      ],
      "name": "ApprovalForAll",
      "type": "event"
    },
    {
      "anonymous": false,
      "inputs": [
        {
          "indexed": false,
          "internalType": "string",
          "name": "newBaseImageURI",
          "type": "string"
        }
      ],
      "name": "BaseImageURIUpdated",
      "type": "event"
    },
    {
      "anonymous": false,
      "inputs": [
        {
          "indexed": true,
          "internalType": "address",
          "name": "newGoalTracker",
          "type": "address"
        }
      ],
      "name": "GoalTrackerUpdated",
      "type": "event"
    },
    {
      "anonymous": false,
      "inputs": [
        {
          "indexed": true,
          "internalType": "address",
          "name": "previousOwner",
          "type": "address"
        },
        {
          "indexed": true,
          "internalType": "address",
          "name": "newOwner",
          "type": "address"
        }
      ],
      "name": "OwnershipTransferred",
      "type": "event"
    },
    {
      "anonymous": false,
      "inputs": [
        {
          "indexed": true,
          "internalType": "address",
          "name": "recipient",
          "type": "address"
        },
        {
          "indexed": true,
          "internalType": "uint256",
          "name": "tokenId",
          "type": "uint256"
        },
        {
          "indexed": true,
          "internalType": "uint256",
          "name": "goalId",
          "type": "uint256"
        }
      ],
      "name": "RewardMinted",
      "type": "event"
    },
    {
      "anonymous": false,
      "inputs": [
        {
          "indexed": true,
          "internalType": "address",
          "name": "from",
          "type": "address"
        },
        {
          "indexed": true,
          "internalType": "address",
          "name": "to",
          "type": "address"
        },
        {
          "indexed": true,
          "internalType": "uint256",
          "name": "tokenId",
          "type": "uint256"
        }
      ],
      "name": "Transfer",
      "type": "event"
    },
    {
      "inputs": [
        {
          "internalType": "address",
          "name": "to",
          "type": "address"
        },
        {
          "internalType": "uint256",
          "name": "tokenId",
          "type": "uint256"
        }
      ],
      "name": "approve",
      "outputs": [],
      "stateMutability": "nonpayable",
      "type": "function"
    },
    {
      "inputs": [
        {
          "internalType": "address",
          "name": "owner",
          "type": "address"
        }
      ],
      "name": "balanceOf",
      "outputs": [
        {
          "internalType": "uint256",
          "name": "",
          "type": "uint256"
        }
      ],
      "stateMutability": "view",
      "type": "function"
    },
    {
      "inputs": [],
      "name": "baseImageURI",
      "outputs": [
        {
          "internalType": "string",
          "name": "",
          "type": "string"
        }
      ],
      "stateMutability": "view",
      "type": "function"
    },
    {
      "inputs": [
        {
          "internalType": "uint256",
          "name": "tokenId",
          "type": "uint256"
        }
      ],
      "name": "getApproved",
      "outputs": [
        {
          "internalType": "address",
          "name": "",
          "type": "address"
        }
      ],
      "stateMutability": "view",
      "type": "function"
    },
    {
      "inputs": [
        {
          "internalType": "address",
          "name": "_owner",
          "type": "address"
        }
      ],
      "name": "getTokensByOwner",
      "outputs": [
        {
          "internalType": "uint256[]",
          "name": "",
          "type": "uint256[]"
        }
      ],
      "stateMutability": "view",
      "type": "function"
    },
    {
      "inputs": [],
      "name": "goalTracker",
      "outputs": [
        {
          "internalType": "address",
          "name": "",
          "type": "address"
        }
      ],
      "stateMutability": "view",
      "type": "function"
    },
    {
      "inputs": [
        {
          "internalType": "address",
          "name": "owner",
          "type": "address"
        },
        {
          "internalType": "address",
          "name": "operator",
          "type": "address"
        }
      ],
      "name": "isApprovedForAll",
      "outputs": [
        {
          "internalType": "bool",
          "name": "",
          "type": "bool"
        }
      ],
      "stateMutability": "view",
      "type": "function"
    },
    {
      "inputs": [
        {
          "internalType": "address",
          "name": "_recipient",
          "type": "address"
        },
        {
          "internalType": "uint256",
          "name": "_goalId",
          "type": "uint256"
        },
        {
          "internalType": "string",
          "name": "_goalTitle",
          "type": "string"
        }
      ],
      "name": "mintReward",
      "outputs": [
        {
          "internalType": "uint256",
          "name": "",
          "type": "uint256"
        }
      ],
      "stateMutability": "nonpayable",
      "type": "function"
    },
    {
      "inputs": [],
      "name": "name",
      "outputs": [
        {
          "internalType": "string",
          "name": "",
          "type": "string"
        }
      ],
      "stateMutability": "view",
      "type": "function"
    },
    {
      "inputs": [],
      "name": "owner",
      "outputs": [
        {
          "internalType": "address",
          "name": "",
          "type": "address"
        }
      ],
      "stateMutability": "view",
      "type": "function"
    },
    {
      "inputs": [
        {
          "internalType": "uint256",
          "name": "tokenId",
          "type": "uint256"
        }
      ],
      "name": "ownerOf",
      "outputs": [
        {
          "internalType": "address",
          "name": "",
          "type": "address"
        }
      ],
      "stateMutability": "view",
      "type": "function"
    },
    {
      "inputs": [],
      "name": "renounceOwnership",
      "outputs": [],
      "stateMutability": "nonpayable",
      "type": "function"
    },
    {
      "inputs": [
        {
          "internalType": "address",
          "name": "from",
          "type": "address"
        },
        {
          "internalType": "address",
          "name": "to",
          "type": "address"
        },
        {
          "internalType": "uint256",
          "name": "tokenId",
          "type": "uint256"
        }
      ],
      "name": "safeTransferFrom",
      "outputs": [],
      "stateMutability": "nonpayable",
      "type": "function"
    },
    {
      "inputs": [
        {
          "internalType": "address",
          "name": "from",
          "type": "address"
        },
        {
          "internalType": "address",
          "name": "to",
          "type": "address"
        },
        {
          "internalType": "uint256",
          "name": "tokenId",
          "type": "uint256"
        },
        {
          "internalType": "bytes",
          "name": "data",
          "type": "bytes"
        }
      ],
      "name": "safeTransferFrom",
      "outputs": [],
      "stateMutability": "nonpayable",
      "type": "function"
    },
    {
      "inputs": [
        {
          "internalType": "address",
          "name": "operator",
          "type": "address"
        },
        {
          "internalType": "bool",
          "name": "approved",
          "type": "bool"
        }
      ],
      "name": "setApprovalForAll",
      "outputs": [],
      "stateMutability": "nonpayable",
      "type": "function"
    },
    {
      "inputs": [
        {
          "internalType": "string",
          "name": "_baseImageURI",
          "type": "string"
        }
      ],
      "name": "setBaseImageURI",
      "outputs": [],
      "stateMutability": "nonpayable",
      "type": "function"
    },
    {
      "inputs": [
        {
          "internalType": "address",
          "name": "_goalTracker",
          "type": "address"
        }
      ],
      "name": "setGoalTracker",
      "outputs": [],
      "stateMutability": "nonpayable",
      "type": "function"
    },
    {
      "inputs": [
        {
          "internalType": "bytes4",
          "name": "interfaceId",
          "type": "bytes4"
        }
      ],
      "name": "supportsInterface",
      "outputs": [
        {
          "internalType": "bool",
          "name": "",
          "type": "bool"
        }
      ],
      "stateMutability": "view",
      "type": "function"
    },
    {
      "inputs": [],
      "name": "symbol",
      "outputs": [
        {
          "internalType": "string",
          "name": "",
          "type": "string"
        }
      ],
      "stateMutability": "view",
      "type": "function"
    },
    {
      "inputs": [
        {
          "internalType": "uint256",
          "name": "index",
          "type": "uint256"
        }
      ],
      "name": "tokenByIndex",
      "outputs": [
        {
          "internalType": "uint256",
          "name": "",
          "type": "uint256"
        }
      ],
      "stateMutability": "view",
      "type": "function"
    },
    {
      "inputs": [
        {
          "internalType": "address",
          "name": "owner",
          "type": "address"
        },
        {
          "internalType": "uint256",
          "name": "index",
          "type": "uint256"
        }
      ],
      "name": "tokenOfOwnerByIndex",
      "outputs": [
        {
          "internalType": "uint256",
          "name": "",
          "type": "uint256"
        }
      ],
      "stateMutability": "view",
      "type": "function"
    },
    {
      "inputs": [
        {
          "internalType": "uint256",
          "name": "",
          "type": "uint256"
        }
      ],
      "name": "tokenToGoalId",
      "outputs": [
        {
          "internalType": "uint256",
          "name": "",
          "type": "uint256"
        }
      ],
      "stateMutability": "view",
      "type": "function"
    },
    {
      "inputs": [
        {
          "internalType": "uint256",
          "name": "tokenId",
          "type": "uint256"
        }
      ],
      "name": "tokenURI",
      "outputs": [
        {
          "internalType": "string",
          "name": "",
          "type": "string"
        }
      ],
      "stateMutability": "view",
      "type": "function"
    },
    {
      "inputs": [],
      "name": "totalSupply",
      "outputs": [
        {
          "internalType": "uint256",
          "name": "",
          "type": "uint256"
        }
      ],
      "stateMutability": "view",
      "type": "function"
    },
    {
      "inputs": [
        {
          "internalType": "address",
          "name": "from",
          "type": "address"
        },
        {
          "internalType": "address",
          "name": "to",
          "type": "address"
        },
        {
          "internalType": "uint256",
          "name": "tokenId",
          "type": "uint256"
        }
      ],
      "name": "transferFrom",
      "outputs": [],
      "stateMutability": "nonpayable",
      "type": "function"
    },
    {
      "inputs": [
        {
          "internalType": "address",
          "name": "newOwner",
          "type": "address"
        }
      ],
      "name": "transferOwnership",
      "outputs": [],
      "stateMutability": "nonpayable",
      "type": "function"
    }
  ],
  "bytecode": "0x608060405234620005c15762002936803803806200001d81620005fc565b92833981016020918281830312620005c15780516001600160401b0391828211620005c1570190601f838184011215620005c157825192828411620005c657601f19936200007183820186168801620005fc565b95818752878284010111620005c157869160005b828110620005ad5750509060009186010152620000a1620005dc565b90601982527f426173655361766520476f616c20416368696576656d656e740000000000000086830152620000d5620005dc565b946004958681526311d3d05360e21b888201528351858111620004af57600054946001958681811c91168015620005a2575b8b8210146200058d5790818684931162000537575b508a90868311600114620004d057600092620004c4575b5050600019600383901b1c191690851b176000555b805190858211620004af5784548581811c91168015620004a4575b8a8210146200048f5790818584931162000439575b508990858311600114620003d557600092620003c9575b5050600019600383901b1c191690841b1783555b620001ae3362000622565b8051938411620003b457600d548381811c91168015620003a9575b88821014620003945782811162000348575b5086918411600114620002e05783945090839291600094620002d4575b50501b916000199060031b1c191617600d555b600a54336001600160a01b0390911603620002935733156200024257620002323362000622565b6040516122ca90816200066c8239f35b6084916040519162461bcd60e51b8352820152602660248201527f4f776e61626c653a206e6577206f776e657220697320746865207a65726f206160448201526564647265737360d01b6064820152fd5b816064926040519262461bcd60e51b845283015260248201527f4f776e61626c653a2063616c6c6572206973206e6f7420746865206f776e65726044820152fd5b015192503880620001f8565b9193831691600d60005283876000209360005b898883831062000330575050501062000316575b505050811b01600d556200020b565b015160001960f88460031b161c1916905538808062000307565b868601518855909601959485019487935001620002f3565b600d600052876000208380870160051c8201928a88106200038a575b0160051c019084905b8281106200037d575050620001db565b600081550184906200036d565b9250819262000364565b602287634e487b7160e01b6000525260246000fd5b90607f1690620001c9565b604186634e487b7160e01b6000525260246000fd5b0151905038806200018f565b908887941691846000528b6000209260005b8d82821062000422575050841162000408575b505050811b018355620001a3565b015160001960f88460031b161c19169055388080620003fa565b8385015186558a97909501949384019301620003e7565b90915085600052896000208580850160051c8201928c861062000485575b918891869594930160051c01915b8281106200047557505062000178565b6000815585945088910162000465565b9250819262000457565b602289634e487b7160e01b6000525260246000fd5b90607f169062000163565b604188634e487b7160e01b6000525260246000fd5b01519050388062000133565b908988941691600080528c600020928d6000905b8282106200051f575050841162000505575b505050811b0160005562000148565b015160001960f88460031b161c19169055388080620004f6565b8385015186558b979095019493840193018e620004e4565b909150600080528a6000208680850160051c8201928d861062000583575b918991869594930160051c01915b828110620005735750506200011c565b6000815585945089910162000563565b9250819262000555565b60228a634e487b7160e01b6000525260246000fd5b90607f169062000107565b818101840151888201850152830162000085565b600080fd5b634e487b7160e01b600052604160045260246000fd5b60408051919082016001600160401b03811183821017620005c657604052565b6040519190601f01601f191682016001600160401b03811183821017620005c657604052565b600a80546001600160a01b039283166001600160a01b0319821681179092559091167f8be0079c531659141344cd1fd0a4f28419497f9722a3daafe3b4186f6b6457e0600080a356fe608080604052600436101561001357600080fd5b60003560e01c90816301ffc9a7146115755750806306fdde03146114d2578063081812fc146114b4578063095ea7b31461133a57806318160ddd1461131c57806323b872dd146112f85780632f745c59146112d1578063345ff8ec146112a557806336e3ef30146111ec57806340398d67146110f357806342842e0e146110c05780634f6ccce71461102f5780636352211e14610fff57806370a0823114610fd4578063715018a614610f7757806374f82e3014610ee35780638647ca7614610d34578063891197a8146106415780638da5cb5b1461061857806395d89b4114610539578063a22cb46514610467578063b88d4fde146103df578063c87b56dd1461028a578063d28fb95014610261578063e985e9c51461020b5763f2fde38b1461013d57600080fd5b3461020657602036600319011261020657610156611642565b61015e61178c565b6001600160a01b039081169081156101b257600a54826bffffffffffffffffffffffff60a01b821617600a55167f8be0079c531659141344cd1fd0a4f28419497f9722a3daafe3b4186f6b6457e0600080a3005b60405162461bcd60e51b815260206004820152602660248201527f4f776e61626c653a206e6577206f776e657220697320746865207a65726f206160448201526564647265737360d01b6064820152608490fd5b600080fd5b3461020657604036600319011261020657610224611642565b61022c611658565b9060018060a01b03809116600052600560205260406000209116600052602052602060ff604060002054166040519015158152f35b3461020657600036600319011261020657600c546040516001600160a01b039091168152602090f35b3461020657602080600319360112610206576004356000818152600260205260409020546001600160a01b03161561038057600052600f81526040600020906040519182600082546102db816116a3565b9384845260019186838216918260001461035e57505060011461031f575b5050610307925003836116f9565b61031b60405192828493845283019061161d565b0390f35b85925060005281600020906000915b858310610346575050610307935082010185806102f9565b8054838901850152879450869390920191810161032e565b925093505061030794915060ff191682840152151560051b82010185806102f9565b60405162461bcd60e51b815260048101839052603160248201527f45524337323155524953746f726167653a2055524920717565727920666f72206044820152703737b732bc34b9ba32b73a103a37b5b2b760791b6064820152608490fd5b34610206576080366003190112610206576103f8611642565b610400611658565b906064359060443567ffffffffffffffff83116102065736602384011215610206576104659361043d610460943690602481600401359101611737565b9261045061044b84336119e1565b611908565b61045b838383611aa9565b611df8565b6119bd565b005b3461020657604036600319011261020657610480611642565b60243590811515809203610206576001600160a01b0316903382146104f457336000526005602052604060002082600052602052604060002060ff1981541660ff83161790556040519081527f17307eab39ab6107e8899845ad3d59bd9653f200f220920489ca2b5937696c3160203392a3005b60405162461bcd60e51b815260206004820152601960248201527f4552433732313a20617070726f766520746f2063616c6c6572000000000000006044820152606490fd5b34610206576000366003190112610206576040516000600180549061055d826116a3565b808552918181169081156105f15750600114610598575b61031b84610584818603826116f9565b60405191829160208352602083019061161d565b600081815292507fb10e2d527612073b26eecdfd717e6a320cf44b4afac2b0732d9fcbe2b7fa0cf65b8284106105d957505050810160200161058482610574565b805460208587018101919091529093019281016105c1565b60ff191660208087019190915292151560051b850190920192506105849150839050610574565b3461020657600036600319011261020657600a546040516001600160a01b039091168152602090f35b346102065760603660031901126102065761065a611642565b60443567ffffffffffffffff81116102065761067a90369060040161176e565b600c546001600160a01b03919082163303610ce55781831615610ca15760019283600b54019182600b556040516106b0816116dd565b6000808252848152600260205260409020546106d8906001600160a01b031615155b15611f44565b60085484600052600960205280604060002055600160401b811015610c13576107e49161072a86610711848b6104609601600855611f0d565b90919082549060031b91821b91600019901b1916179055565b610733856117e4565b8786166000526006602052604060002081600052602052866040600020558660005260076020526040600020556107826106d287600052600260205260018060a01b0360406000205416151590565b848716600081815260036020908152604080832080548d0190558983526002909152812080546001600160a01b031916831790558791907fddf252ad1be2c89b69c2b068fc378daa952ba7f163c4a11628f55a4df523b3ef8180a48585611cda565b82600052600e6020526024356040600020556107ff83612119565b9061080b602435612119565b61081442612119565b9160405193607b60f81b60208601527f226e616d65223a2022476f616c20416368696576656d656e743a200000000000602186015261085d825180936020603c890191016115fa565b61088b60f21b858301603c8101919091527f226465736372697074696f6e223a202254686973204e46542072657072657365603e8201527f6e747320746865207375636365737366756c20636f6d706c6574696f6e206f66605e8201527f206120736176696e677320676f616c206f6e2042617365536176652e222c0000607e820152691134b6b0b3b2911d101160b11b609c90910152600d54600092610903826116a3565b918b8116908115610c7a5750600114610c29575b5050938093610a6f9360208461093889609d97610a749b51948592016115fa565b650b9c1b99c88b60d21b91019081526e2261747472696275746573223a205b60881b60068201527f7b2274726169745f74797065223a2022476f616c204944222c202276616c7565601582015263111d101160e11b60358201528151916109a890839060398401906020016115fa565b019062089f4b60ea1b918260398201527f7b2274726169745f74797065223a2022416368696576656d656e742044617465603c8201526c111610113b30b63ab2911d101160991b605c820152610a088251809360206069850191016115fa565b019060698201527f7b2274726169745f74797065223a2022506c6174666f726d222c202276616c75606c8201526e65223a20224261736553617665227d60881b608c820152605d60f81b609b820152607d60f81b609c82015203607d8101845201826116f9565b611fc2565b93610ac8603d60405180977f646174613a6170706c69636174696f6e2f6a736f6e3b6261736536342c0000006020830152610ab881518092602086860191016115fa565b810103601d8101885201866116f9565b82600052600f602052604060002090855167ffffffffffffffff8111610c1357610af283546116a3565b601f8111610bcc575b506020968790601f8311600114610b6a57928293918392600094610b5f575b50501b916000199060031b1c19161790555b816040519360243592167f3ab3e8ad6923a956799ae3fe031dfa1cb6a25c9743413b0c4ca812a87b02202a600080a48152f35b015192508980610b1a565b90601f1983169185600052838a6000209360005b87828210610bb457505010610b9b575b505050811b019055610b2c565b015160001960f88460031b161c19169055878080610b8e565b84860151875590950194938c01938692508c01610b7e565b836000526020600020601f830160051c81019160208410610c09575b601f0160051c01905b818110610bfe5750610afb565b600081558301610bf1565b9091508190610be8565b634e487b7160e01b600052604160045260246000fd5b90919250600d6000526000805160206122758339815191528a6000915b848310610c605750505085010160a6019083610a6f610917565b90816020925460a685878d01010152019101908b90610c46565b60ff191691880160a681810193909352831515909302909201019250849050610a6f610917565b606460405162461bcd60e51b815260206004820152602060248201527f526563697069656e742063616e6e6f74206265207a65726f20616464726573736044820152fd5b60405162461bcd60e51b815260206004820152602160248201527f4f6e6c7920476f616c547261636b65722063616e206d696e74207265776172646044820152607360f81b6064820152608490fd5b34610206576020806003193601126102065767ffffffffffffffff9060043582811161020657610d6890369060040161176e565b90610d7161178c565b8151928311610c1357610d85600d546116a3565b601f8111610e91575b508092601f8111600114610e0057807f31cd199f0d1c8c972ab9eab5e47d990d12e7c8e45f636403cdf29e71cddb2bf894600091610df5575b508160011b916000199060031b1c191617600d555b610df060405192828493845283019061161d565b0390a1005b905083015185610dc7565b601f19811693600d6000526000805160206122758339815191529460005b818110610e7a57509482916001937f31cd199f0d1c8c972ab9eab5e47d990d12e7c8e45f636403cdf29e71cddb2bf89710610e61575b5050811b01600d55610ddc565b85015160001960f88460031b161c191690558580610e54565b858301518755600190960195918401918401610e1e565b600d600052600080516020612275833981519152601f850160051c810191838610610ed9575b601f0160051c01905b818110610ecd5750610d8e565b60008155600101610ec0565b9091508190610eb7565b34610206576000366003190112610206576040516000600d54610f05816116a3565b808452906001908181169081156105f15750600114610f2e5761031b84610584818603826116f9565b600d600090815292506000805160206122758339815191525b828410610f5f57505050810160200161058482610574565b80546020858701810191909152909301928101610f47565b3461020657600036600319011261020657610f9061178c565b600a80546001600160a01b031981169091556000906001600160a01b03167f8be0079c531659141344cd1fd0a4f28419497f9722a3daafe3b4186f6b6457e08280a3005b34610206576020366003190112610206576020610ff7610ff2611642565b6117e4565b604051908152f35b3461020657602036600319011261020657602061101d6004356118a7565b6040516001600160a01b039091168152f35b346102065760203660031901126102065760043560085481101561106657611058602091611f0d565b90546040519160031b1c8152f35b60405162461bcd60e51b815260206004820152602c60248201527f455243373231456e756d657261626c653a20676c6f62616c20696e646578206f60448201526b7574206f6620626f756e647360a01b6064820152608490fd5b34610206576104656104606110d43661166e565b90604051926110e2846116dd565b6000845261045061044b84336119e1565b34610206576020806003193601126102065761110d611642565b611116816117e4565b61111f8161225c565b9061112d60405192836116f9565b8082526111398161225c565b8285019390601f190136853760005b8281106111935750505090604051928392818401908285525180915260408401929160005b82811061117c57505050500390f35b83518552869550938101939281019260010161116d565b61119d8183611e7f565b84518210156111d657868260051b8601015260001981146111c057600101611148565b634e487b7160e01b600052601160045260246000fd5b634e487b7160e01b600052603260045260246000fd5b3461020657602036600319011261020657611205611642565b61120d61178c565b6001600160a01b0316801561125557600c80546001600160a01b031916821790557fe671735e9a8814f4b1d2b3b0cacc4ee2e1fbb075a76588fc28b7221bd3d76fd4600080a2005b60405162461bcd60e51b815260206004820152602260248201527f476f616c547261636b65722063616e6e6f74206265207a65726f206164647265604482015261737360f01b6064820152608490fd5b3461020657602036600319011261020657600435600052600e6020526020604060002054604051908152f35b34610206576040366003190112610206576020610ff76112ef611642565b60243590611e7f565b34610206576104656113093661166e565b9161131761044b84336119e1565b611aa9565b34610206576000366003190112610206576020600854604051908152f35b3461020657604036600319011261020657611353611642565b602435906001600160a01b03808061136a856118a7565b1692169180831461146557803314908115611440575b50156113d557600083815260046020526040902080546001600160a01b031916831790556113ad836118a7565b167f8c5be1e5ebec7d5bd14f71427d1e84f3dd0314c0f7b2291e5b200ac8c7c3b925600080a4005b60405162461bcd60e51b815260206004820152603d60248201527f4552433732313a20617070726f76652063616c6c6572206973206e6f7420746f60448201527f6b656e206f776e6572206f7220617070726f76656420666f7220616c6c0000006064820152608490fd5b9050600052600560205260406000203360005260205260ff6040600020541684611380565b60405162461bcd60e51b815260206004820152602160248201527f4552433732313a20617070726f76616c20746f2063757272656e74206f776e656044820152603960f91b6064820152608490fd5b3461020657602036600319011261020657602061101d6004356118ca565b3461020657600036600319011261020657604051600080546114f3816116a3565b808452906001908181169081156105f1575060011461151c5761031b84610584818603826116f9565b600080805292507f290decd9548b62a8d60345a988386fc84ba6bc95484008f6362f93160ef3e5635b82841061155d57505050810160200161058482610574565b80546020858701810191909152909301928101611545565b34610206576020366003190112610206576004359063ffffffff60e01b82168092036102065760209163780e9d6360e01b81149081156115b7575b5015158152f35b6380ac58cd60e01b8114915081156115e9575b81156115d8575b50836115b0565b6301ffc9a760e01b149050836115d1565b635b5e139f60e01b811491506115ca565b60005b83811061160d5750506000910152565b81810151838201526020016115fd565b90602091611636815180928185528580860191016115fa565b601f01601f1916010190565b600435906001600160a01b038216820361020657565b602435906001600160a01b038216820361020657565b6060906003190112610206576001600160a01b0390600435828116810361020657916024359081168103610206579060443590565b90600182811c921680156116d3575b60208310146116bd57565b634e487b7160e01b600052602260045260246000fd5b91607f16916116b2565b6020810190811067ffffffffffffffff821117610c1357604052565b90601f8019910116810190811067ffffffffffffffff821117610c1357604052565b67ffffffffffffffff8111610c1357601f01601f191660200190565b9291926117438261171b565b9161175160405193846116f9565b829481845281830111610206578281602093846000960137010152565b9080601f830112156102065781602061178993359101611737565b90565b600a546001600160a01b031633036117a057565b606460405162461bcd60e51b815260206004820152602060248201527f4f776e61626c653a2063616c6c6572206973206e6f7420746865206f776e65726044820152fd5b6001600160a01b0316801561180457600052600360205260406000205490565b60405162461bcd60e51b815260206004820152602960248201527f4552433732313a2061646472657373207a65726f206973206e6f7420612076616044820152683634b21037bbb732b960b91b6064820152608490fd5b1561186257565b60405162461bcd60e51b815260206004820152601860248201527f4552433732313a20696e76616c696420746f6b656e20494400000000000000006044820152606490fd5b6000908152600260205260409020546001600160a01b031661178981151561185b565b6000818152600260205260409020546118ed906001600160a01b0316151561185b565b6000908152600460205260409020546001600160a01b031690565b1561190f57565b60405162461bcd60e51b815260206004820152602d60248201527f4552433732313a2063616c6c6572206973206e6f7420746f6b656e206f776e6560448201526c1c881bdc88185c1c1c9bdd9959609a1b6064820152608490fd5b60809060208152603260208201527f4552433732313a207472616e7366657220746f206e6f6e20455243373231526560408201527131b2b4bb32b91034b6b83632b6b2b73a32b960711b60608201520190565b156119c457565b60405162461bcd60e51b8152806119dd6004820161196a565b0390fd5b906001600160a01b0380806119f5846118a7565b16931691838314938415611a28575b508315611a12575b50505090565b611a1e919293506118ca565b1614388080611a0c565b909350600052600560205260406000208260005260205260ff604060002054169238611a04565b15611a5657565b60405162461bcd60e51b815260206004820152602560248201527f4552433732313a207472616e736665722066726f6d20696e636f72726563742060448201526437bbb732b960d91b6064820152608490fd5b611acd91611ab6846118a7565b6001600160a01b0393848416939185168414611a4f565b838216938415611c8957839182611be6575090506008549085600052600960205281604060002055600160401b821015610c1357611b3392611b1a87610711856001899701600855611f0d565b828603611bb3575b50611b2c866118a7565b1614611a4f565b7fddf252ad1be2c89b69c2b068fc378daa952ba7f163c4a11628f55a4df523b3ef60008481526004602052604081206bffffffffffffffffffffffff60a01b9081815416905583825260036020526040822060001981540190558482526040822060018154019055858252600260205284604083209182541617905580a4565b611bbc906117e4565b60406000878152600660205281812083825260205288828220558881526007602052205538611b22565b858303611bf8575b50611b3392611b1a565b611c039192506117e4565b6000198101919082116111c057611b339284926000908882526020906007825260409182842054828103611c52575b508a84528383812055868452600681528284209184525281205592611bee565b8785526006825283852083865282528385205488865260068352848620828752835280858720558552600782528385205538611c32565b60405162461bcd60e51b8152602060048201526024808201527f4552433732313a207472616e7366657220746f20746865207a65726f206164646044820152637265737360e01b6064820152608490fd5b91929091803b15611def57611d27936040519081630a85bd0160e11b9384825233600483015260009687602484015260448301526080606483015281878160209a8b96608483019061161d565b03926001600160a01b03165af1849181611dab575b50611d9a575050503d600014611d92573d611d568161171b565b90611d6460405192836116f9565b81528091833d92013e5b80519182611d8f5760405162461bcd60e51b8152806119dd6004820161196a565b01fd5b506060611d6e565b6001600160e01b0319161492509050565b9091508581813d8311611de8575b611dc381836116f9565b81010312611de457516001600160e01b031981168103611de4579038611d3c565b8480fd5b503d611db9565b50915050600190565b92939190803b15611e7557611e4a946040518092630a85bd0160e11b9485835233600484015260018060a01b03809816602484015260448301526080606483015281806020998a95608483019061161d565b03916000988991165af1849181611dab5750611d9a575050503d600014611d92573d611d568161171b565b5050915050600190565b611e88816117e4565b821015611eb45760018060a01b0316600052600660205260406000209060005260205260406000205490565b60405162461bcd60e51b815260206004820152602b60248201527f455243373231456e756d657261626c653a206f776e657220696e646578206f7560448201526a74206f6620626f756e647360a81b6064820152608490fd5b6008548110156111d65760086000527ff3f7a9fe364faab93b216da50a3214154f22a0a2b415b23a84c8169e8b636ee30190600090565b15611f4b57565b60405162461bcd60e51b815260206004820152601c60248201527f4552433732313a20746f6b656e20616c7265616479206d696e746564000000006044820152606490fd5b90611f9a8261171b565b611fa760405191826116f9565b8281528092611fb8601f199161171b565b0190602036910137565b805115612105576040516060810181811067ffffffffffffffff821117610c1357604052604081527f4142434445464748494a4b4c4d4e4f505152535455565758595a61626364656660208201527f6768696a6b6c6d6e6f707172737475767778797a303132333435363738392b2f604082015281516002928382018092116111c0576003918290046001600160fe1b03811681036111c057612068908594951b611f90565b936020850193829183518401925b8381106120b457505050505106806001146120a157600214612096575090565b603d90600019015390565b50603d9081600019820153600119015390565b85600491979293949701918251600190603f9082828260121c16880101518453828282600c1c16880101518385015382828260061c1688010151888501531685010151878201530195929190612076565b50604051612112816116dd565b6000815290565b806000917a184f03e93ff9f4daa797ed6e38ed64bf6a1f0100000000000000008082101561224e575b506d04ee2d6d415b85acef81000000008083101561223f575b50662386f26fc1000080831015612230575b506305f5e10080831015612221575b5061271080831015612212575b506064821015612202575b600a809210156121f8575b6001908160216121b0828701611f90565b95860101905b6121c2575b5050505090565b600019019083906f181899199a1a9b1b9c1cb0b131b232b360811b8282061a8353049182156121f3579190826121b6565b6121bb565b916001019161219f565b9190606460029104910191612194565b60049193920491019138612189565b6008919392049101913861217c565b6010919392049101913861216d565b6020919392049101913861215b565b604093508104915038612142565b67ffffffffffffffff8111610c135760051b6020019056fed7b6990105719101dabeb77144f2a3385c8033acd3af97e9423a695e81ad1eb5a2646970667358221220bbe8af4e3754c6e042d74d28a880b61fbd616b305acebed67ce1bfbab5086c1464736f6c63430008140033",
  "linkReferences": {},
  "deployedLinkReferences": {}
}