{
  "_format": "hh-sol-artifact-1",
  "contractName": "SimpleGoalNFT",
  "sourceName": "contracts/SimpleGoalNFT.sol",
  "abi": [
    {
      "inputs": [
        {
          "internalType": "string",
          "name": "_baseImageURI",
          "type": "string"
        }
      ],
      "stateMutability": "nonpayable",
      "type": "constructor"
    },
    {
      "anonymous": false,
      "inputs": [
        {
          "indexed": true,
          "internalType": "address",
          "name": "owner",
          "type": "address"
        },
        {
          "indexed": true,
          "internalType": "address",
          "name": "approved",
          "type": "address"
        },
        {
          "indexed": true,
          "internalType": "uint256",
          "name": "tokenId",
          "type": "uint256"
        }
      ],
      "name": "Approval",
      "type": "event"
    },
    {
      "anonymous": false,
      "inputs": [
        {
          "indexed": true,
          "internalType": "address",
          "name": "owner",
          "type": "address"
        },
        {
          "indexed": true,
          "internalType": "address",
          "name": "operator",
          "type": "address"
        },
        {
          "indexed": false,
          "internalType": "bool",
          "name": "approved",
          "type": "bool"
        }
      ],
      "name": "ApprovalForAll",
      "type": "event"
    },
    {
      "anonymous": false,
      "inputs": [
        {
          "indexed": true,
          "internalType": "address",
          "name": "previousOwner",
          "type": "address"
        },
        {
          "indexed": true,
          "internalType": "address",
          "name": "newOwner",
          "type": "address"
        }
      ],
      "name": "OwnershipTransferred",
      "type": "event"
    },
    {
      "anonymous": false,
      "inputs": [
        {
          "indexed": true,
          "internalType": "address",
          "name": "from",
          "type": "address"
        },
        {
          "indexed": true,
          "internalType": "address",
          "name": "to",
          "type": "address"
        },
        {
          "indexed": true,
          "internalType": "uint256",
          "name": "tokenId",
          "type": "uint256"
        }
      ],
      "name": "Transfer",
      "type": "event"
    },
    {
      "inputs": [
        {
          "internalType": "address",
          "name": "to",
          "type": "address"
        },
        {
          "internalType": "uint256",
          "name": "tokenId",
          "type": "uint256"
        }
      ],
      "name": "approve",
      "outputs": [],
      "stateMutability": "nonpayable",
      "type": "function"
    },
    {
      "inputs": [
        {
          "internalType": "address",
          "name": "owner",
          "type": "address"
        }
      ],
      "name": "balanceOf",
      "outputs": [
        {
          "internalType": "uint256",
          "name": "",
          "type": "uint256"
        }
      ],
      "stateMutability": "view",
      "type": "function"
    },
    {
      "inputs": [],
      "name": "baseImageURI",
      "outputs": [
        {
          "internalType": "string",
          "name": "",
          "type": "string"
        }
      ],
      "stateMutability": "view",
      "type": "function"
    },
    {
      "inputs": [
        {
          "internalType": "uint256",
          "name": "tokenId",
          "type": "uint256"
        }
      ],
      "name": "getApproved",
      "outputs": [
        {
          "internalType": "address",
          "name": "",
          "type": "address"
        }
      ],
      "stateMutability": "view",
      "type": "function"
    },
    {
      "inputs": [],
      "name": "goalTracker",
      "outputs": [
        {
          "internalType": "address",
          "name": "",
          "type": "address"
        }
      ],
      "stateMutability": "view",
      "type": "function"
    },
    {
      "inputs": [
        {
          "internalType": "address",
          "name": "owner",
          "type": "address"
        },
        {
          "internalType": "address",
          "name": "operator",
          "type": "address"
        }
      ],
      "name": "isApprovedForAll",
      "outputs": [
        {
          "internalType": "bool",
          "name": "",
          "type": "bool"
        }
      ],
      "stateMutability": "view",
      "type": "function"
    },
    {
      "inputs": [
        {
          "internalType": "address",
          "name": "_recipient",
          "type": "address"
        },
        {
          "internalType": "uint256",
          "name": "_tokenId",
          "type": "uint256"
        }
      ],
      "name": "mintReward",
      "outputs": [],
      "stateMutability": "nonpayable",
      "type": "function"
    },
    {
      "inputs": [],
      "name": "name",
      "outputs": [
        {
          "internalType": "string",
          "name": "",
          "type": "string"
        }
      ],
      "stateMutability": "view",
      "type": "function"
    },
    {
      "inputs": [],
      "name": "owner",
      "outputs": [
        {
          "internalType": "address",
          "name": "",
          "type": "address"
        }
      ],
      "stateMutability": "view",
      "type": "function"
    },
    {
      "inputs": [
        {
          "internalType": "uint256",
          "name": "tokenId",
          "type": "uint256"
        }
      ],
      "name": "ownerOf",
      "outputs": [
        {
          "internalType": "address",
          "name": "",
          "type": "address"
        }
      ],
      "stateMutability": "view",
      "type": "function"
    },
    {
      "inputs": [],
      "name": "renounceOwnership",
      "outputs": [],
      "stateMutability": "nonpayable",
      "type": "function"
    },
    {
      "inputs": [
        {
          "internalType": "address",
          "name": "from",
          "type": "address"
        },
        {
          "internalType": "address",
          "name": "to",
          "type": "address"
        },
        {
          "internalType": "uint256",
          "name": "tokenId",
          "type": "uint256"
        }
      ],
      "name": "safeTransferFrom",
      "outputs": [],
      "stateMutability": "nonpayable",
      "type": "function"
    },
    {
      "inputs": [
        {
          "internalType": "address",
          "name": "from",
          "type": "address"
        },
        {
          "internalType": "address",
          "name": "to",
          "type": "address"
        },
        {
          "internalType": "uint256",
          "name": "tokenId",
          "type": "uint256"
        },
        {
          "internalType": "bytes",
          "name": "data",
          "type": "bytes"
        }
      ],
      "name": "safeTransferFrom",
      "outputs": [],
      "stateMutability": "nonpayable",
      "type": "function"
    },
    {
      "inputs": [
        {
          "internalType": "address",
          "name": "operator",
          "type": "address"
        },
        {
          "internalType": "bool",
          "name": "approved",
          "type": "bool"
        }
      ],
      "name": "setApprovalForAll",
      "outputs": [],
      "stateMutability": "nonpayable",
      "type": "function"
    },
    {
      "inputs": [
        {
          "internalType": "address",
          "name": "_goalTracker",
          "type": "address"
        }
      ],
      "name": "setGoalTracker",
      "outputs": [],
      "stateMutability": "nonpayable",
      "type": "function"
    },
    {
      "inputs": [
        {
          "internalType": "bytes4",
          "name": "interfaceId",
          "type": "bytes4"
        }
      ],
      "name": "supportsInterface",
      "outputs": [
        {
          "internalType": "bool",
          "name": "",
          "type": "bool"
        }
      ],
      "stateMutability": "view",
      "type": "function"
    },
    {
      "inputs": [],
      "name": "symbol",
      "outputs": [
        {
          "internalType": "string",
          "name": "",
          "type": "string"
        }
      ],
      "stateMutability": "view",
      "type": "function"
    },
    {
      "inputs": [
        {
          "internalType": "uint256",
          "name": "tokenId",
          "type": "uint256"
        }
      ],
      "name": "tokenURI",
      "outputs": [
        {
          "internalType": "string",
          "name": "",
          "type": "string"
        }
      ],
      "stateMutability": "view",
      "type": "function"
    },
    {
      "inputs": [
        {
          "internalType": "address",
          "name": "from",
          "type": "address"
        },
        {
          "internalType": "address",
          "name": "to",
          "type": "address"
        },
        {
          "internalType": "uint256",
          "name": "tokenId",
          "type": "uint256"
        }
      ],
      "name": "transferFrom",
      "outputs": [],
      "stateMutability": "nonpayable",
      "type": "function"
    },
    {
      "inputs": [
        {
          "internalType": "address",
          "name": "newOwner",
          "type": "address"
        }
      ],
      "name": "transferOwnership",
      "outputs": [],
      "stateMutability": "nonpayable",
      "type": "function"
    }
  ],
  "bytecode": "0x608060405234620005b157620018e8803803806200001d81620005ec565b92833981016020918281830312620005b15780516001600160401b0391828211620005b1570190601f838184011215620005b157825192828411620005b657601f19936200007183820186168801620005ec565b95818752878284010111620005b157869160005b8281106200059d5750509060009186010152620000a1620005cc565b90600d82526c10985cd954d85d994811dbd85b609a1b86830152620000c5620005cc565b946004958681526311d3d05360e21b8882015283518581116200049f57600054946001958681811c9116801562000592575b8b8210146200057d5790818684931162000527575b508a90868311600114620004c057600092620004b4575b5050600019600383901b1c191690851b176000555b8051908582116200049f5784548581811c9116801562000494575b8a8210146200047f5790818584931162000429575b508990858311600114620003c557600092620003b9575b5050600019600383901b1c191690841b1783555b6200019e3362000612565b8051938411620003a4576008548381811c9116801562000399575b88821014620003845782811162000338575b5086918411600114620002d05783945090839291600094620002c4575b50501b916000199060031b1c1916176008555b600654336001600160a01b0390911603620002835733156200023257620002223362000612565b60405161128c90816200065c8239f35b6084916040519162461bcd60e51b8352820152602660248201527f4f776e61626c653a206e6577206f776e657220697320746865207a65726f206160448201526564647265737360d01b6064820152fd5b816064926040519262461bcd60e51b845283015260248201527f4f776e61626c653a2063616c6c6572206973206e6f7420746865206f776e65726044820152fd5b015192503880620001e8565b9193831691600860005283876000209360005b898883831062000320575050501062000306575b505050811b01600855620001fb565b015160001960f88460031b161c19169055388080620002f7565b868601518855909601959485019487935001620002e3565b6008600052876000208380870160051c8201928a88106200037a575b0160051c019084905b8281106200036d575050620001cb565b600081550184906200035d565b9250819262000354565b602287634e487b7160e01b6000525260246000fd5b90607f1690620001b9565b604186634e487b7160e01b6000525260246000fd5b0151905038806200017f565b908887941691846000528b6000209260005b8d828210620004125750508411620003f8575b505050811b01835562000193565b015160001960f88460031b161c19169055388080620003ea565b8385015186558a97909501949384019301620003d7565b90915085600052896000208580850160051c8201928c861062000475575b918891869594930160051c01915b8281106200046557505062000168565b6000815585945088910162000455565b9250819262000447565b602289634e487b7160e01b6000525260246000fd5b90607f169062000153565b604188634e487b7160e01b6000525260246000fd5b01519050388062000123565b908988941691600080528c600020928d6000905b8282106200050f5750508411620004f5575b505050811b0160005562000138565b015160001960f88460031b161c19169055388080620004e6565b8385015186558b979095019493840193018e620004d4565b909150600080528a6000208680850160051c8201928d861062000573575b918991869594930160051c01915b828110620005635750506200010c565b6000815585945089910162000553565b9250819262000545565b60228a634e487b7160e01b6000525260246000fd5b90607f1690620000f7565b818101840151888201850152830162000085565b600080fd5b634e487b7160e01b600052604160045260246000fd5b60408051919082016001600160401b03811183821017620005b657604052565b6040519190601f01601f191682016001600160401b03811183821017620005b657604052565b600680546001600160a01b039283166001600160a01b0319821681179092559091167f8be0079c531659141344cd1fd0a4f28419497f9722a3daafe3b4186f6b6457e0600080a356fe6080604081815260048036101561001557600080fd5b600092833560e01c90816301ffc9a714610b8d5750806306fdde0314610ac2578063081812fc14610aa2578063095ea7b31461093557806323b872dd1461090b57806336e3ef30146108cb57806342842e0e146108a25780636352211e1461087157806370a08231146107db578063715018a61461077e57806374f82e30146106b15780638da5cb5b1461068857806395d89b411461056f5780639a49090e1461040b578063a22cb4651461033c578063b88d4fde146102b3578063c87b56dd14610243578063d28fb9501461021a578063e985e9c5146101c85763f2fde38b146100ff57600080fd5b346101c45760203660031901126101c457610118610c39565b90610121610d0f565b6001600160a01b03918216928315610172575050600654826001600160601b0360a01b821617600655167f8be0079c531659141344cd1fd0a4f28419497f9722a3daafe3b4186f6b6457e08380a380f35b906020608492519162461bcd60e51b8352820152602660248201527f4f776e61626c653a206e6577206f776e657220697320746865207a65726f206160448201526564647265737360d01b6064820152fd5b8280fd5b50503461021657806003193601126102165760ff816020936101e8610c39565b6101f0610c54565b6001600160a01b0391821683526005875283832091168252855220549151911615158152f35b5080fd5b50503461021657816003193601126102165760075490516001600160a01b039091168152602090f35b509190346102165760203660031901126102165761028261027d6102af9435600052600260205260018060a01b0360406000205416151590565b610d67565b81815161028e81610c9f565b5280519161029b83610c9f565b825251918291602083526020830190610bf9565b0390f35b5090346101c45760803660031901126101c4576102ce610c39565b6102d6610c54565b846064359467ffffffffffffffff86116102165736602387011215610216578501359461030e61030587610cf3565b95519586610cd1565b8585523660248783010111610216578561033996602460209301838801378501015260443591610e79565b80f35b5090346101c457806003193601126101c457610356610c39565b9060243591821515809303610407576001600160a01b0316923384146103c55750338452600560205280842083855260205280842060ff1981541660ff8416179055519081527f17307eab39ab6107e8899845ad3d59bd9653f200f220920489ca2b5937696c3160203392a380f35b6020606492519162461bcd60e51b8352820152601960248201527f4552433732313a20617070726f766520746f2063616c6c6572000000000000006044820152fd5b8480fd5b50346101c457816003193601126101c457610424610c39565b60075460243593916001600160a01b0391821633148015610562575b1561052e57169182156104ec5750600083815260026020526040902054610473906001600160a01b031615155b1561120a565b600083815260026020526040902054610496906001600160a01b0316151561046d565b81845260036020528084206001815401905582845260026020528320816001600160601b0360a01b825416179055827fddf252ad1be2c89b69c2b068fc378daa952ba7f163c4a11628f55a4df523b3ef8180a480f35b6020606492519162461bcd60e51b8352820152602060248201527f4552433732313a206d696e7420746f20746865207a65726f20616464726573736044820152fd5b825162461bcd60e51b8152602081860152600e60248201526d139bdd08185d5d1a1bdc9a5e995960921b6044820152606490fd5b5081600654163314610440565b5091346106855780600319360112610685578151918160019283549384811c9181861695861561067b575b6020968785108114610668578899509688969785829a5291826000146106415750506001146105e6575b5050506102af92916105d7910385610cd1565b51928284938452830190610bf9565b91908693508083527fb10e2d527612073b26eecdfd717e6a320cf44b4afac2b0732d9fcbe2b7fa0cf65b82841061062957505050820101816105d76102af6105c4565b8054848a018601528895508794909301928101610610565b60ff19168782015293151560051b860190930193508492506105d791506102af90506105c4565b634e487b7160e01b835260228a52602483fd5b92607f169261059a565b80fd5b50503461021657816003193601126102165760065490516001600160a01b039091168152602090f35b5091346106855780600319360112610685578151918160085492600184811c91818616958615610774575b6020968785108114610668578899509688969785829a529182600014610641575050600114610718575050506102af92916105d7910385610cd1565b9190869350600883527ff3f7a9fe364faab93b216da50a3214154f22a0a2b415b23a84c8169e8b636ee35b82841061075c57505050820101816105d76102af6105c4565b8054848a018601528895508794909301928101610743565b92607f16926106dc565b8334610685578060031936011261068557610797610d0f565b600680546001600160a01b0319811690915581906001600160a01b03167f8be0079c531659141344cd1fd0a4f28419497f9722a3daafe3b4186f6b6457e08280a380f35b50829034610216576020366003190112610216576001600160a01b036107ff610c39565b1690811561081c5760208480858581526003845220549051908152f35b608490602085519162461bcd60e51b8352820152602960248201527f4552433732313a2061646472657373207a65726f206973206e6f7420612076616044820152683634b21037bbb732b960b91b6064820152fd5b509134610685576020366003190112610685575061089160209235610db3565b90516001600160a01b039091168152f35b50503461021657610339906108b636610c6a565b919251926108c384610c9f565b858452610e79565b8334610685576020366003190112610685576108e5610c39565b6108ed610d0f565b60018060a01b03166001600160601b0360a01b600754161760075580f35b83346106855761033961091d36610c6a565b9161093061092b8433610f14565b610e17565b610fdc565b50346101c457816003193601126101c45761094e610c39565b6024359290916001600160a01b039190828061096987610db3565b16941693808514610a5557803314908115610a36575b50156109ce57848652602052842080546001600160a01b031916831790556109a683610db3565b167f8c5be1e5ebec7d5bd14f71427d1e84f3dd0314c0f7b2291e5b200ac8c7c3b9258480a480f35b6020608492519162461bcd60e51b8352820152603d60248201527f4552433732313a20617070726f76652063616c6c6572206973206e6f7420746f60448201527f6b656e206f776e6572206f7220617070726f76656420666f7220616c6c0000006064820152fd5b90508652600560205281862033875260205260ff82872054163861097f565b506020608492519162461bcd60e51b8352820152602160248201527f4552433732313a20617070726f76616c20746f2063757272656e74206f776e656044820152603960f91b6064820152fd5b509134610685576020366003190112610685575061089160209235610dd9565b50913461068557806003193601126106855781519181825492600184811c91818616958615610b83575b6020968785108114610668578899509688969785829a529182600014610641575050600114610b28575050506102af92916105d7910385610cd1565b91908693508280527f290decd9548b62a8d60345a988386fc84ba6bc95484008f6362f93160ef3e5635b828410610b6b57505050820101816105d76102af6105c4565b8054848a018601528895508794909301928101610b52565b92607f1692610aec565b925050346101c45760203660031901126101c4573563ffffffff60e01b81168091036101c457602092506380ac58cd60e01b8114908115610be8575b8115610bd7575b5015158152f35b6301ffc9a760e01b14905038610bd0565b635b5e139f60e01b81149150610bc9565b919082519283825260005b848110610c25575050826000602080949584010152601f8019910116010190565b602081830181015184830182015201610c04565b600435906001600160a01b0382168203610c4f57565b600080fd5b602435906001600160a01b0382168203610c4f57565b6060906003190112610c4f576001600160a01b03906004358281168103610c4f57916024359081168103610c4f579060443590565b6020810190811067ffffffffffffffff821117610cbb57604052565b634e487b7160e01b600052604160045260246000fd5b90601f8019910116810190811067ffffffffffffffff821117610cbb57604052565b67ffffffffffffffff8111610cbb57601f01601f191660200190565b6006546001600160a01b03163303610d2357565b606460405162461bcd60e51b815260206004820152602060248201527f4f776e61626c653a2063616c6c6572206973206e6f7420746865206f776e65726044820152fd5b15610d6e57565b60405162461bcd60e51b815260206004820152601860248201527f4552433732313a20696e76616c696420746f6b656e20494400000000000000006044820152606490fd5b6000908152600260205260409020546001600160a01b0316610dd6811515610d67565b90565b600081815260026020526040902054610dfc906001600160a01b03161515610d67565b6000908152600460205260409020546001600160a01b031690565b15610e1e57565b60405162461bcd60e51b815260206004820152602d60248201527f4552433732313a2063616c6c6572206973206e6f7420746f6b656e206f776e6560448201526c1c881bdc88185c1c1c9bdd9959609a1b6064820152608490fd5b90610e9d939291610e8d61092b8433610f14565b610e98838383610fdc565b6110ed565b15610ea457565b60405162461bcd60e51b815280610ebd60048201610ec1565b0390fd5b60809060208152603260208201527f4552433732313a207472616e7366657220746f206e6f6e20455243373231526560408201527131b2b4bb32b91034b6b83632b6b2b73a32b960711b60608201520190565b906001600160a01b038080610f2884610db3565b16931691838314938415610f5b575b508315610f45575b50505090565b610f5191929350610dd9565b1614388080610f3f565b909350600052600560205260406000208260005260205260ff604060002054169238610f37565b15610f8957565b60405162461bcd60e51b815260206004820152602560248201527f4552433732313a207472616e736665722066726f6d20696e636f72726563742060448201526437bbb732b960d91b6064820152608490fd5b9061100491610fea84610db3565b6001600160a01b0393918416928492909183168414610f82565b1691821561109c57816110219161101a86610db3565b1614610f82565b7fddf252ad1be2c89b69c2b068fc378daa952ba7f163c4a11628f55a4df523b3ef60008481526004602052604081206001600160601b0360a01b9081815416905583825260036020526040822060001981540190558482526040822060018154019055858252600260205284604083209182541617905580a4565b60405162461bcd60e51b8152602060048201526024808201527f4552433732313a207472616e7366657220746f20746865207a65726f206164646044820152637265737360e01b6064820152608490fd5b92939190803b156112005761113f946040518092630a85bd0160e11b9485835233600484015260018060a01b03809816602484015260448301526080606483015281806020998a956084830190610bf9565b03916000988991165af18491816111c0575b506111af575050503d6000146111a7573d61116b81610cf3565b906111796040519283610cd1565b81528091833d92013e5b805191826111a45760405162461bcd60e51b815280610ebd60048201610ec1565b01fd5b506060611183565b6001600160e01b0319161492509050565b9091508581813d83116111f9575b6111d88183610cd1565b8101031261040757516001600160e01b031981168103610407579038611151565b503d6111ce565b5050915050600190565b1561121157565b60405162461bcd60e51b815260206004820152601c60248201527f4552433732313a20746f6b656e20616c7265616479206d696e746564000000006044820152606490fdfea2646970667358221220ca4f32016d95549b86bfbcacde4de8fe3580312fbadaa54b825ae8cebd5a0c5164736f6c63430008140033",
  "linkReferences": {},
  "deployedLinkReferences": {}
}